:020000040800F2
:1000000058A701209D01000841BC00081590000878
:1000100091BA0008D11A00085D1001080000000024
:10002000000000000000000000000000C1D3000834
:10003000912600080000000041CA0008B1DE000857
:10004000B7010008B7010008B7010008B7010008B0
:100050008D280008B7010008B7010008B7010008A3
:10006000B7010008CD270008D5270008B701000810
:100070003920000845200008B7010008B701000832
:10008000B7010008B7010008B7010008B701000870
:10009000D51A0008E11A0008B7010008DD2700089A
:1000A000B7010008B7010008B7010008B701000850
:1000B000B7010008B7010008B7010008B701000840
:1000C000B7010008259000081990000861D20008C7
:1000D000B7010008B7010008B701000871E800087F
:1000E000B7010008B7010008B7010008B701000810
:1000F000B701000899DF0008B70100085120000887
:10010000B7010008B70100088DDF0008B70100083B
:10011000B7010008B7010008B7010008B7010008DF
:100120005D20000869200008B7010008752000085C
:10013000B7010008B7010008B7010008B7010008BF
:10014000ED1A0008F91A0008B7010008A1C200085A
:10015000B701000881200008B70100087DE8000809
:10016000B7010008B7010008B7010008B70100088F
:10017000B7010008B7010008B7010008000000003F
:10018000B7010008B7010008DFF80CD001F028F82B
:10019000004800477917010858A701200648804702
:1001A00006480047FEE7FEE7FEE7FEE7FEE7FEE75C
:1001B000FEE7FEE7FEE7FEE779DF000889010008B9
:1001C0009FED1A1AF5EE000A40EE010ABDEEE00AB4
:1001D000F5EEC00A10EE100AF1EE10FA38BF401E1C
:1001E00000EE100A1349F7EE001AB8EEC00A30EE1E
:1001F000C00ADFED0F0A20EE200AFCEEC00A10EE66
:10020000900AC0F3080000EE900A01EB8000F8EEBF
:10021000600A90ED011A70EE600A90ED000A71EE2E
:10022000E01A21EE800A00EE810A704783F9223E2F
:100230000000004440500108B5EEC00AF1EE10FA8B
:1002400007D2DFED1E0AB4EEE00AF1EE10FAA8BF05
:100250007047DFED1B0AB5EEC00A60EE200ABDEE66
:10026000E01A11EE100AF1EE10FA38BF401E00EE4F
:10027000100A1549F7EE001AB8EEC00A30EEC00AAF
:10028000DFED100A60EE200ABCEEE00A10EE100A64
:10029000C0F3080000EE100A01EB8000B8EE400A3F
:1002A00090ED011A70EEC00A90ED000A71EEE01AAE
:1002B00021EE800A00EE810A70470000CD024CB4A6
:1002C00083F9223E000000444050010870B40588C4
:1002D0000E884468D1F804C05368B54208D14088FC
:1002E0004988884201BF11888D425188884203D0D5
:1002F00070BC6FF00200704705FB00F1880827D042
:1003000094ED001ADCED000A94ED010ADCED011A0F
:1003100031EE201AD4ED020A70EE211A9CED020A89
:1003200083ED001AC3ED011A94ED031ADCED031AF4
:1003300030EE800A401E71EE210A83ED020A04F1BC
:100340001004C3ED030A03F110030CF1100CD7D114
:1003500011F0030030D0B0F1004F30D200282BDD77
:10036000211F1B1FACF1040210F0010F0AD091ED08
:10037000010AD2ED010A091D121D30EE200A83ED9B
:10038000010A1B1D400817D091ED010AD2ED010AA8
:10039000401E30EE200A83ED010A91ED020AD2EDF3
:1003A000020A01F1080102F1080230EE200A83ED91
:1003B000020A03F10803E7D170BC00207047B4ECD7
:1003C000010A401EFCEC010A30EE200AA3EC010AEF
:1003D000F5D1F1E701804280436070472DE9F34F8A
:1003E00084B0049840680090486801900498B0F880
:1003F00000E04588DFEDFE0A00200290B0EE600AC2
:10040000AE4506D108884988884204BF71468645B2
:1004100004D06FF0020006B0BDE8F08F01985FEAEB
:10042000010C18BFB7EE001A3DD000BFBEEB0C01A7
:1004300017D0B1F1004F80F01F82002911DD021F9B
:1004400011F0010F1CBFC2ED010A121D4B1006D0A6
:10045000C2ED010AC2ED020A08325B1EF8D100EBC0
:100460008100BCF10102A0EC011A19D0B2F1004FD9
:1004700080F00882002A13DD031F12F0010F1CBF59
:10048000C3ED010A1B1D511008D000BFC3ED010AC6
:10049000C3ED020A491E03F10803F7D100EB820005
:1004A000BCF1010CC2D14FF000080395002D14BF20
:1004B000B0EE602A002000F0BF8100BF009908FB69
:1004C00005F001EB800B0199DBED002A01EB8000C8
:1004D0000346F0EE421AC64552D9AEEB0802ABEB2A
:1004E000850112F0010F17D001EB850191ED000A93
:1004F000B5EEC00AF1EE10FA07DDB4EEE10AF1EE56
:1005000010FA09DDF0EE401A06E0B1EE400AF4EE12
:10051000C01AF1EE10FAF5D3521031D001EB850C70
:100520009CED000AB5EEC00AF1EE10FA05DDB4EE5E
:10053000E10AF1EE10FA09DD06E0B1EE400AF4EE50
:10054000C01AF1EE10FA01D2F0EE401A01EBC5012B
:1005500091ED000AB5EEC00AF1EE10FA05DDB4EE39
:10056000E10AF1EE10FA09DD06E0B1EE400AF4EE20
:10057000C01AF1EE10FA01D2F0EE401A521ECDD19F
:10058000F5EEC01AF1EE10FA00F07381F5EEC02A14
:100590000126F1EE10FA0099D4BFB1EE620AB0EE76
:1005A000620AB4EE610AF1EE10FA1CBFAEEB08026B
:1005B000B2F1010C47D005FB08F201EB820292ED8B
:1005C000001A00BFB0EE410A05FB06F4B5EEC00A02
:1005D00000EB8404F1EE10FACCBFF0EE400AF1EE2D
:1005E000400AF4EE610AF1EE10FA28D1B5EB080CDE
:1005F00011D0BCF1004F7DD2BCF1000F0BDD00BF6C
:1006000092ED000AD1ED000ABCF1010CE2EC010A06
:10061000A1EC010AF4D129000ED0B1F1004F6AD249
:10062000002909DD94ED000AD0ED000A491EE4EC32
:10063000010AA0EC010AF5D1012002900BE0761C22
:10064000BCF1010CBED10298012804D0F5EEC02AFD
:10065000F1EE10FA7ED09BED000AB5EB08009A4649
:100660005946064622D0B0F1004F74D200281DDD55
:10067000091F10F0010F06D0F0EE400A80EEA01A1C
:1006800081ED011A091D401010D000BFD1ED010A03
:10069000401E80EE801A81ED011A91ED021AC1EE22
:1006A000000AC1ED020A01F10801EFD1280026D0AD
:1006B000B0F1004F7ED2002821DDAAF1040110F034
:1006C000010F06D0D1ED010A80EE801A81ED011AEA
:1006D000091D401013D000BFD1ED010A401E80EE6D
:1006E000801A81ED011AD1ED020A80EE801A81EDA7
:1006F000021A01E0CBE0D6E001F10801ECD1DDE91E
:1007000000124FF000095FEA0E0773D0C14504BF25
:1007100001EB860102EB850274D091ED000ADC4604
:100720005046331E35D01C46B6F1004F7ED2002C09
:100730002FDD0B1FABF1040C16F0010F0FD0F0EE04
:10074000400ADCED011AB0EE601A00EEE11A83ED0A
:10075000011A01E08DE0B1E01B1D0CF1040C7410D6
:1007600015D000BFD3ED010A9CED011A40EE410AFD
:10077000C3ED010AD3ED020A9CED021A0CF1080C3C
:1007800040EE410AC3ED020A0833641EEAD101EBD0
:1007900086012B0036D0B3F1004F72D2002B31DD31
:1007A000A2F1040CAAF1040013F0010F0CD0DCED4F
:1007B000010A00E08BE090ED011A001D40EE410AB5
:1007C000CCED010A0CF1040C5C1019D0DCED010A2F
:1007D00090ED011A40EE410ACCED010ADCED020A6F
:1007E00090ED021A083040EE410ACCED020A03E017
:1007F000000000000DE005E0641E0CF1080CE5D1DE
:1008000002EB830201EB88017F1E09F101097FF4ED
:100810007DAF009808F10108001D00900398401E6C
:1008200003907FF44BAE0299012900E058E004BF29
:1008300006B0BDE8F08F00BFB5EEC00AF1EE10FAC9
:100840007FF4E9AD04990EFB05F3002B4A684FF0E5
:1008500000010BD902EB810C9CED000AB5EEC00A39
:10086000F1EE10FA02D1491C8B42F3D88B427FF48F
:10087000D2AD6FF00400CEE5E0EC010A491EFBD1D9
:10088000EFE538E0E0EC010A521EFBD108E692EDFC
:10089000000AD1ED000ABCF1010CE2EC010AA1EC66
:1008A000010AF4D1B7E694ED000AD0ED000A491E22
:1008B000E4EC010AA0EC010AF5D1BDE6D1ED000A95
:1008C000401E80EE801AA1EC011AF7D1EEE6D3EDBE
:1008D000000A401E80EE801AA3EC011AF7D10EE741
:1008E000BCEC011AD1ED000A5B1E40EE410AE1ECBE
:1008F000010AF5D14DE7B0EC011AD2ED000A5B1EFA
:1009000040EE410AE2EC010AF5D17BE72DE9F04F18
:1009100082B0466853680193058847884B88002059
:1009200000900888874201BFB2F800C06545528830
:1009300093421EBF6FF0020002B0BDE8F08F9FED42
:10094000412A4FEA970EC7F3400B00BFDDE90002D2
:1009500002EB800A4A6898464FF00009B0EE420A5E
:10096000B4465FEA0E0025D092ED001ADCED001AC5
:1009700002EB8302DCED010A01EE810A92ED001A1E
:1009800002EB8302401ED2ED001A02EB830200EE5E
:10099000810A9CED021ADCED030A00040CF1100C34
:1009A000000C01EE210A92ED001A02EB830200EE28
:1009B000810AD9D117F0030026D0ACF10404A2EBD0
:1009C000830210F0010F08D002EB8302D4ED010A7C
:1009D00092ED001A241D00EE810A5FEA0B0013D08D
:1009E00002EB830CD4ED010A9CED001A02EBC3026A
:1009F000401E00EE810AD4ED020A92ED001A04F1C5
:100A0000080400EE810AEBD109F10100AAEC010A09
:100A10001FFA80F9486800EB8902A8F101001FFA6B
:100A200080F8B8F1000F99D1009806EB87061844BA
:100A300080B20090681E05042D0C87D102B0002002
:100A4000BDE8F08F0000000070B405880E8844688F
:100A5000D1F804C05368B54208D14088498888421B
:100A600001BF11888D425188884203D070BC6FF05D
:100A70000200704705FB00F1880827D094ED001AAA
:100A8000DCED000A94ED010ADCED011A31EE601A8A
:100A9000D4ED020A70EE611A9CED020A83ED001A91
:100AA000C3ED011A94ED031ADCED031A30EEC00A0F
:100AB000401E71EE610A83ED020A04F11004C3EDD9
:100AC000030A03F110030CF1100CD7D111F003004D
:100AD00030D0B0F1004F30D200282BDD211F1B1F7A
:100AE000ACF1040210F0010F0AD091ED010AD2ED31
:100AF000010A091D121D30EE600A83ED010A1B1D5B
:100B0000400817D091ED010AD2ED010A401E30EEE7
:100B1000600A83ED010A91ED020AD2ED020A01F1A9
:100B2000080102F1080230EE600A83ED020A03F1C7
:100B30000803E7D170BC00207047B4EC010A401EE6
:100B4000FCEC010A30EE600AA3EC010AF5D1F1E7F2
:100B50002DE9F04F02884768B0F802804888D1F844
:100B6000049082B04FF0000A1646824207BF0988FF
:100B700088456FF0020002B018BFBDE8F08F4FEA61
:100B8000980B02EB42000190C8F34000CDF8000042
:100B900009EB8A01BBF1000F33D0019801EB820C05
:100BA00001EB80043B46E64601EBC2054FEA0B0031
:100BB00093ED000A401E81ED000A93ED010A01EB5E
:100BC00002118CED000A93ED020A0CEB021C85ED7C
:100BD000000A93ED030A05EB021584ED000A04EB0D
:100BE000021403F11003E3D10EEB820000EB82004C
:100BF00000EB8201ABF10100504307EB0B1701EB57
:100C0000001118F0030C21D03B1FA1EB82011CF056
:100C1000010F06D093ED010A01EB82011B1D81ED4E
:100C2000000A009880B100BF93ED010A01EB820435
:100C300001EBC20184ED000A93ED020A401E81ED32
:100C4000000A03F10803EFD107EB8C070AF101005A
:100C50001FFA80FA701E0604360C99D102B00020EB
:100C6000BDE8F08F2DE9F05F0546002092469B46D7
:100C700088460646814640241BE0284641464746B2
:100C8000224600F0F6F953465A46C01A914110D355
:100C900011461846224600F0DDF92D1A67EB0108CF
:100CA0004F4622460120002100F0D4F917EB00093D
:100CB0004E41201EA4F10104DFDC484631462A469D
:100CC0004346BDE8F09F10B5431A934209D28318FA
:100CD000881803E010F8011D03F8011D521EF9D217
:100CE00010BD40EA01039B0703D009E008C9121FA9
:100CF00008C0042AFAD203E011F8013B00F8013BD6
:100D0000521EF9D210BDD2B201E000F8012B491EEB
:100D1000FBD270470022F6E710B513460A46044698
:100D20001946FFF7F0FF204610BD10B5002200E085
:100D3000521C835C8C5CA34201D1002BF8D1D8B249
:100D4000E1B2401A10BD034611F8012B00F8012B47
:100D5000002AF9D11846704710B54843044614F0EC
:100D600029F8002805D00021002C02D0641E01556E
:100D7000FAE710BD2DE9FE4F804681EA0300C00F5F
:100D80000C46009021F0004123F00045B8EB020032
:100D9000A94105D24046214690461C460B460246D4
:100DA00023F00040104347D0270DC7F30A00C3F3D8
:100DB0000A510290401A019040286BDAC3F31300E5
:100DC00040F4801B0098924620B10023D2EB030A26
:100DD00063EB0B0B01985946C0F14002504600F0FE
:100DE00039F906460D4650465946019A00F051F928
:100DF00010EB08006141002487EA115284EAE7738E
:100E00001A4340D0009A62B3019A012A4FEA07526E
:100E100015DC001B61EB02014FF0004202EA0752B1
:100E2000CDE90042001C41F5801132462B4600F00E
:100E300088F903B0BDE8F08F40462146F9E7001B72
:100E400061EB0201001C41F5801300185B41201882
:100E5000A2F5001747EB030140EAD570B6196D41C2
:100E600011E06D084FEA360645EAC0754FEA0752B1
:100E7000001B61EB0201001C41F5801149084FEA9B
:100E800030000019514132462B4603B0BDE8F04F07
:100E900000F048B90098012240000023D0EB020284
:100EA00063EBE073009821464FEAE074B8EB000072
:100EB00061EB0401E9E783F000435BE781F0004167
:100EC00058E72DE9FE4F81EA030404F0004421F0C5
:100ED000004100944FF0000B23F0004350EA01045E
:100EE0005ED052EA03045BD0C3F30A54C1F30A553F
:100EF0002C44A4F2F3340194A0FB0254C1F3130177
:100F000041F48011C3F3130343F4801301FB024443
:100F100000FB034E840A970A44EA815447EA835748
:100F2000A4FB076802958D0A05FB07854FEA932C01
:100F300004FB0C542705029D4FEA065847EA163772
:100F4000B5EB08056EEB070C870E920E47EA81178A
:100F500042EA8312A7FB0201B6EB0B0164EB00042B
:100F60002B0D43EA0C335E1844EB1C50DA46514615
:100F7000E7FB0201C5F313044FEA0B3343EA1453B2
:100F80004FEA0432019C43EA0603A4F10C040294E4
:100F9000009CCDE900B400F0D4F803B0BDE8F08FB8
:100FA00000200146F9E730B5041E71F1000404DBAE
:100FB0004FF00044404264EB0101141E73F1000441
:100FC00005DB1C464FF00043524263EB0403101A4A
:100FD0008B4101D3012030BD002030BD0EB540F261
:100FE000334102910021CDE900110A460B4600F081
:100FF000A8F803B000BD00F0004230F000400AD075
:10100000C10D01F56071C0F3160042EA0151C2083A
:1010100040071143704700200146704701F000432C
:1010200030B421F0004150EA010206D00A0DA2F5C9
:101030006072C1F31301002A02DC30BC002070474B
:10104000440F44EAC104C100E01830BC00EBC250B8
:1010500000F031B8202A04DB203A00FA02F1002027
:1010600070479140C2F1200320FA03F319439040E6
:101070007047202A04DB203A21FA02F00021704751
:1010800021FA02F3D040C2F12002914008431946F0
:101090007047202A06DBCB17203A41FA02F043EAD8
:1010A000E07306E041FA02F3D040C2F12002914021
:1010B0000843194670470029A8BF7047401C4900E3
:1010C00008BF20F00100704710B4B0FA80FC00FAAD
:1010D0000CF050EA010404BF10BC704749B1CCF1D8
:1010E000200421FA04F411FA0CF118BF0121214364
:1010F0000843A3EB0C01CB1D4FEA00614FEA10201F
:1011000042BF002010BC704700EBC35010440029C0
:10111000A4BF10BC7047401C490008BF20F001006C
:1011200010BC704710B5141E73F1000408DA401C9F
:1011300041F1000192185B411A4301D120F00100F6
:1011400010BD2DE9F04D92469B4611B1B1FA81F2E6
:1011500002E0B0FA80F220329046FFF77BFF0446AF
:101160000F4640EA0A0041EA0B0153465A4608433B
:1011700013D0114653EA010019D0C8F1400250467D
:10118000FFF777FF05460E46504659464246FFF7A1
:1011900061FF084305D0012004E020463946BDE840
:1011A000F08D0020054346EAE0762C4337430A9849
:1011B0006305E40AA0EB08000022FD0A44EA475454
:1011C0000A3002D500200146E9E7010510196941FE
:1011D000DDE9084500196941BDE8F04DA2E70000CE
:1011E000064C074D06E0E06840F0010394E8070074
:1011F00098471034AC42F6D3FEF7CAFFDC5A010818
:101200001C5B010870B58C1810F8015B15F0070322
:1012100001D110F8013B2A1106D110F8012B03E08F
:1012200010F8016B01F8016B5B1EF9D12B0705D497
:101230000023521E0DD401F8013BFAE710F8013BE0
:10124000CB1A921C03E013F8015B01F8015B521EFC
:10125000F9D5A142D8D3002070BD0000B0EEC00A7D
:10126000704700002DE9F04F81B02DED108B82B05A
:101270000C4640F6EC01C2F200014CF2CC5A086078
:10128000C2F2010A00208AF8000010F071F89AF802
:10129000001008438AF8000010F01EF99AF80010B8
:1012A00040EA01008AF8000084B301F041F98AEDB8
:1012B000050A01F03DF99AED051AB2EE08AA30EEE2
:1012C000410AB4EE4A0AF1EE10FA41DD43F6AC00F1
:1012D00041F2B061C3F62230C3F6CE1141F23F6253
:1012E000CAE9120100209FEDB00AC4F21B12C4F239
:1012F0002020CAE91412CAF83C009FEDAC1A9AF8F3
:10130000000081EE000A8AED110A1AE043F6AC01F2
:1013100048F6C437C3F62231C3F6817741F2B06292
:1013200041F23F63CAE911710021C3F6CE12C4F243
:101330001B13C4F22021CAE91322CAF85430CAF898
:101340003C10C0B202B0BDEC108B01B0BDE8F08F14
:101350009FED978A9FED97CADFED979A9FED979A39
:10136000B6EE00BA0024B4EE00DAB3EE07FAB0EE3F
:1013700048EA0AE001F0DCF89AED051A30EE410A7D
:10138000B4EE4A0AF1EE10FAA0DC9FEDF90A00F083
:10139000FDFF4FF0000BCAE91244CAE9144400BF34
:1013A000CDF804B000F0F2F9922000F0F9FA9220A2
:1013B00000F0F6FA552000F0F3FA8046552000F0D0
:1013C000EFFA0546552000F0EBFA8146552000F073
:1013D000E7FA0746552000F0E3FA0446552000F0EE
:1013E000DFFA064600F0CAF948EA052000B200EE2E
:1013F000100A40F21000C2F2000090ED011A49EA12
:10140000072000B202EE100A44EA062000B2B8EE4D
:10141000C00AB8EEC22A03EE100A21EE000A21EE3D
:10142000022AB8EEC33A21EE031A20EE003A22EE69
:10143000024A34EE033A21EE014A33EE043AF1EE69
:10144000C38A8AED090A9AED150A8AED0A2A8AEDFD
:101450000B1AD34638EE800A8AED150A00F0A6F979
:10146000802000F09DFA552000F09AFA044655209D
:1014700000F096FA552000F093FA8146552000F0CE
:101480008FFA0646552000F08BFA8046552000F072
:1014900087FA0546552000F083FA8246552000F071
:1014A0007FFA074600F07AF90F2C39D149EA062075
:1014B00000B200EE100A40F21000C2F2000090EDFF
:1014C000021AB8EEC00A9BED122A21EE000A48EA81
:1014D00005208BED0C0A32EE000A00B28BED120AE9
:1014E00000EE100A9BED133AB8EEC00A21EE000A96
:1014F0004AEA07208BED0D0A33EE000A00B28BEDAD
:10150000130A00EE100A9BED144AB8EEC00A21EE51
:10151000000A8BED0E0A34EE000A59468BED140AD0
:10152000019CDA46002C4BD09BED0C0AB4EE6C0A01
:10153000F1EE10FAC8BFF0EE40CA9BED0D1AB4EE02
:101540006A0AF1EE10FAB4EE6D1AB8BFF0EE40AAD6
:10155000F1EE10FAC8BFF0EE41DA9BED0E0AB4EEE0
:101560006F1AF1EE10FAB4EE6B0AB8BFF0EE41FA62
:10157000F1EE10FAB4EE6E0AC8BFF0EE40BAF1EE2A
:1015800010FAF4EE4E8AB8BFF0EE40EAF1EE10FA2F
:10159000F4EE488AC8BFB0EE68EAF1EE10FAB8BFC0
:1015A000B0EE688A1CE000BF3F161B41C3F51C412A
:1015B000000000003EC32E399A99193E6F12033A7B
:1015C000DBED0CCADBED0EBADBED0DDAF0EE6BEA0B
:1015D000F0EE6DFAF0EE6CAAB0EE68EAB0EE688A52
:1015E0003EEE480AB4EE4B0A8AED040A3CEEEA2AC3
:1015F0003DEEEF1AF1EE10FA3BEEEE0A8AED062A06
:101600008AED071A8AED080A19DCB4EE692AF1EEB0
:1016100010FA14DCB4EE691AF1EE10FA0FDCB4EE35
:10162000690AF1EE10FA0ADCB0EE490A00F0AEFEEB
:1016300041F26F70844204F1010BFFF4B1AE9AEDF8
:10164000120A9AED131A9AED152A9AED143A22EE1F
:101650000C2A20EE0C0A21EE0C1A23EE0C3A8AED2D
:10166000120A8AED131A8AED143A8AED152A00F04F
:101670008DF8A22000F094F9A22000F091F95520F5
:1016800000F08EF90446552000F08AF9054600F076
:1016900075F8E000002440EA5511B4EB902F4FF6A6
:1016A0000000CFF6FF7018BF014300EE101AB8EE2D
:1016B000C00A20EE0D0A30EE0F0A8AED0F0A9AEDED
:1016C000040ABAF80C00B4EE4B0A0130F1EE10FA3D
:1016D000AAF80C003FF74EAE9AED150A9FED251AB9
:1016E00030EE011AB0EEC11AB4EE4B1AF1EE10FA58
:1016F0003FF740AE9AED061AB4EE691AF1EE10FA11
:101700003FF738AE9AED071AB4EE691AF1EE10FA07
:101710003FF730AE9AED081AB4EE691AF1EE10FAFE
:101720003FF728AE9AED121A9FED132AB0EEC11AB8
:10173000B4EE421AF1EE10FA3FF71CAE9AED131A0E
:101740009FED0D2AB0EEC11AB4EE421AF1EE10FA76
:101750003FF710AE9AED141A9FED072AB0EEC11AAA
:10176000B4EE421AF1EE10FA3FF704AEC5E500BF41
:101770000AD7A33BCDCC1CC10AD7233C0020C4F21E
:1017800002001021012203F007B900000020C4F27A
:1017900002001021002203F0FFB8000040F20040D8
:1017A000C4F202000121012203F0F6B840F2004029
:1017B000C4F202000121002203F0EEB870B5044625
:1017C000FFF7E4FF922000F0EBF8922000F0E8F839
:1017D000552000F0E5F84CF2CC55C2F20105E87056
:1017E000552000F0DDF82871552000F0D9F8687117
:1017F000552000F0D5F8A871552000F0D1F8E87117
:10180000552000F0CDF82872FFF7B8FFB5F90300B6
:1018100040F21006C2F2000600EE100A96ED011A20
:10182000B8EEC00A94ED082A21EE000A20EE020A62
:1018300084ED000AB5F9050096ED011A00EE100AD4
:10184000B8EEC00A21EE021A21EE000A84ED010A68
:10185000B5F9070000EE100AB8EEC00A21EE000A42
:1018600084ED020AFFF7A2FF802000F099F85520CE
:1018700000F096F8E870552000F092F82871552095
:1018800000F08EF86871552000F08AF8A871552094
:1018900000F086F8E871552000F082F82872552093
:1018A00000F07EF86872552000F07AF8A872FFF711
:1018B00075FFE8780F2843D1B5F90500317800EEBF
:1018C000100AB8EEC01A96ED020A20EE011A09B30A
:1018D00094ED092AB5F90700B5F9091031EE421A5D
:1018E00002EE100A94ED0A3AB8EEC22A84ED031A09
:1018F00001EE101A94ED0B4A20EE022AB8EEC11A3E
:1019000032EE432A20EE010A84ED042A30EE440A26
:1019100014E000BFB5F90700B5F9091002EE100A8E
:1019200084ED031A01EE101AB8EEC22AB8EEC11AFD
:1019300020EE022A20EE010A84ED042A84ED050A35
:10194000FFF724FFA22000F02BF8A22000F028F8D7
:10195000552000F025F8E870552000F021F8287196
:10196000FFF70CFFE8782979C00040EA51114FF6E3
:1019700000020023CFF6FF72B3EB902F18BF114384
:1019800000EE101AB8EEC00AB4EE001A20EE010AFA
:10199000B3EE071A30EE010A84ED070A70BD0000AD
:1019A00080B582B040F6EC01C2F200010B688DF800
:1019B00007004FF47A7C0DF107010DF1060218467D
:1019C0000123CDF800C005F07FFC9DF8060002B0B1
:1019D00080BD000040F6441100EB8000C2F200011F
:1019E00001EBC002137F012B18BF704751F8300084
:1019F000518B02F0C9BF0000F0B581B00C460968F8
:101A00000A68D20644D50546C868C00640D50027F6
:101A1000009708680090486800900098204606F0FB
:101A200037FD4CF27446C2F2010606EB85004068B1
:101A3000017B59B1D0F80D10077321B14068884778
:101A400006EB8500406802460CE000BFD0F80D10A0
:101A50000122027321B10068884706EB85004068C7
:101A6000024604300168B2F81120204607F01CFA43
:101A700006EB850040688068C06B0068016821F053
:101A80000801016020680168090701D00168406809
:101A900001B0F0BD70B54CF27445C2F20105297871
:101AA000002908BF70BD0446002602E001368E42C0
:101AB0000CD205EB860040688068A042F6D1F0B2F7
:101AC0002146FFF799FF2978F0E700BF70BD0000BD
:101AD000FEE700004DF6E060C2F2010001F088BFB1
:101AE0004DF6E060C2F2010001F082BF4DF60870D1
:101AF000C2F2010001F07CBF4DF60870C2F2010095
:101B000001F076BF2DE9F04F8DB089468246DDE9C0
:101B10001F1C19989B460592DDE91D32BDF87270B5
:101B2000DDE91A56BDF86240DDF85C80CDF82A0088
:101B3000CDF8221001202721ADF82840CDF82E50F5
:101B4000ADF83260ADF81870CDF81A30CDF81E201F
:101B5000ADF826C0FFF700F904464FEA1820032528
:101B6000A07255FA98F0C8F30726E07210F0F6FE5E
:101B700055FA88F7E060384684F8048010F0EEFEED
:101B80000546C4F806003046677110F0E7FE206194
:101B900073202870D4F8060041F60D4380F80180C8
:101BA000D4F80600652150FA88F0C0F60003817071
:101BB000BBF1000F18BF5B46059A5046494600949A
:101BC00000F06EF80AAB20600ECBDDE90676DDE9A9
:101BD000085C41F6F930C0F60000CDE90047CDE9D8
:101BE0000265CDF810C00FF03BFA01462046C4F85C
:101BF00017100DB0BDE8F08F10B50446C068617DC8
:101C0000FFF788F80020A08210BD0000F0B581B079
:101C1000014611F8242F0746D1F81150732A287D68
:101C200008D140B997F82500AA7A904235D1012011
:101C3000287500E088B36B7D97F83020EE7AD418D1
:101C4000E868B44202D9194623E000BF1844FFF700
:101C50003AF897F83000697DEB7A0A18D1B29942C8
:101C60006A751AD1E86850FA82F212F8012C652AD6
:101C70000FD12B69AA7A811C1846FFF724F800209F
:101C8000A882D5F817000121A97500F05FFEE86869
:101C9000697DFFF73FF80020A88201B0F0BD000089
:101CA0002DE9F0438BB00E46DDF848900546012043
:101CB00039211F469046FFF74FF804464660E6611B
:101CC0004DF6E066C4F83170C2F201064CF20847E6
:101CD0000820B542C2F2010760612560C4F82C807B
:101CE000C4F8359084F8300002D03878013038706C
:101CF000797807EB81000462481C787009BB4DF6C7
:101D0000E065C2F20105284602F084F92846022166
:101D100001F0E6FC2846102101F0E2FC4DF60875C2
:101D2000C2F20105284602F075F92846022101F0A9
:101D3000D7FC2846102101F0D3FC2568D4F82C806C
:101D40007878012121EA000005900E200A904FEAE0
:101D5000481002904CF20C000022C2F201000791E0
:101D60000892B54208BFB81C02780991531C037051
:101D700001A92846069201F01FFD20460BB0BDE8E0
:101D8000F083000080B588B0029100210823CDE9DE
:101D90000311059106938DF81C10019102A901AB66
:101DA00001F0B6FC08B080BD0020704700207047ED
:101DB00010B540F68424C2F200044DF2E061C2F294
:101DC0000101204600220CF077FF4CF6E061C2F2E0
:101DD000010120460CF062FF002010BD10B540F656
:101DE0008424C2F20004014620460CF057FF20462E
:101DF0000CF02EFF002010BD0020704791ED010A6D
:101E000091ED021A90ED012A90ED023A21EE021AAC
:101E100020EE030A31EE400A82ED000A90ED000A3E
:101E200090ED021A91ED002A91ED023A22EE011A8C
:101E300023EE000A31EE400A82ED010A91ED000A1C
:101E400091ED011A90ED002A90ED013A21EE021A6F
:101E500020EE030A31EE400A82ED020A70470000CC
:101E600080F82C1080F82D1070470000012180F8B8
:101E70004D10704780F82F107047000090F82F1019
:101E800000F13502022988BF00F13D0210EE100A70
:101E900010607047002180F84D10704780B582B007
:101EA00013881BBA4FEA134C5388ADF800C01BBA15
:101EB0004FEA134C9388D2881BBA12BA120C1B0C2F
:101EC000ADF806206A46ADF802C0ADF80430FFF761
:101ED00059FF02B080BD0000F0B585B0054659201D
:101EE00010F03CFD59210446FEF714FFD5F84610CA
:101EF0002A78D5F84200C4F85510D5F80E10C4F869
:101F00005100901E0228A1F1010084F850200FD248
:101F1000C2B2032A1CD8D5F80A304DF6E066C2F2E8
:101F200001060421B34208BF012102F201222AE086
:101F3000012A30D1C2B2032A18D8D5F80A104DF6BA
:101F4000E063C2F20103C91A18BF032119E000BF00
:101F5000481FD5F80A104DF6E063C2F20103C91A12
:101F600018BF032102F201220DE000BFD5F80A30AC
:101F70004DF6E066481FC2F201060521B34208BFD4
:101F8000022102F2052284F84F0084F84E10D5F8A1
:101F90000E10C5F8122042F29563D5F80A00D5F864
:101FA0001220C0F60003C5F81630C5F81A40009498
:101FB000FFF776FEC4F82200681C04F12A060FF031
:101FC00095FB014630462322FEF77DFE41F69560E3
:101FD00040F60002D5F82210D5F82A30D5F83A702C
:101FE000C0F60000C4F202024FF00F0CC5F81E004C
:101FF000C5F82620C5F83EC0D5F83260D5F836E0E1
:10200000C5F82E408DE85040CDE9037C0FF028F84C
:102010004CF27451C2F20101C4F8260028890A78F2
:102020002084501C087001EB82000121446020468E
:1020300084F84D1005B0F0BD40F62060C2F20000FB
:1020400002F0C8B840F66050C2F2000002F0C2B818
:102050004DF63070C2F2010002F0BCB840F6C0503C
:10206000C2F2000002F0B6B84DF6F070C2F2010004
:1020700002F0B0B84DF69070C2F2010002F0AAB8BA
:10208000B0B540F68064C2F2000446F20C4520462A
:10209000C4F2020502F09EF841F22050C2F20000A4
:1020A000202180F84110012084F83500216805F1D5
:1020B0004C0081420CD94FF4001028604FF480107E
:1020C00028604FF400202860002084F83400B0BD60
:1020D00046F20800C4F2020000F1B00291420FD9AA
:1020E0004FF40011C0F800144FF48011C0F8001430
:1020F0004FF40021C0F80014002084F83400B0BD73
:1021000000F1500291424FF4001394BF036043600A
:1021100091424FF4801394BF0360436091424FF4A7
:10212000002194BF01604160002084F83400B0BDFC
:10213000D0F82D008170C17070470000B0B5D0F8A4
:1021400035500446D5F8250000F000FCA08C9FED2A
:102150003B1A01BA080C2880E28C2B46D2BA00EE5A
:10216000102AB8EEC00A20EE011A11EE102A43F828
:10217000022F228D9FED322AD2BA01EE102AB8EE3C
:10218000C11A21EE022A12EE102A5A6094F82A206F
:102190006A81EA8994F82B30C2EB114109B281427D
:1021A000AB8109D195F82420012A12D1B1F57A6FBB
:1021B00008DD4FF6FF7109E0012285F82420B1F512
:1021C0007A6FF6DC11F57A6F03DA01212A8C11445B
:1021D0002984298C6A8C00EB41310BB29A1A02EEE9
:1021E000102A9FED183AB8EEC22A22EE032A12EE08
:1021F000102AEA612A699FED142A03EE102A23EEC1
:10220000022A9FED123A6A6920EE030A32EE000AB2
:102210009FED0F2A9FED0F3A10EE103A00EE102AB4
:1022200020EE020A21EE031A30EE010A10EE102A07
:1022300029832B616A616983E881B0BD0AD7233C99
:102240006F12833A0000343D9899193E96430B3C37
:10225000D0CCCC3DFBED6B3A012180F831107047BA
:10226000F0B585B005463C2010F078FB3C210446D3
:10227000FEF750FDD5F80E10D5F84200D5F84620EF
:102280006063481EC3B2042BA2630BD8D5F80A10B2
:102290004DF6E062C2F20102891A18BF01214A001C
:1022A00001460AE0D5F80A304DF6E06C0539C2F275
:1022B000010C0322634508BF012240F2013353FAA7
:1022C00080F0C5F8120084F8331084F8322042F20E
:1022D0003D13D5F80A00D5F80E10D5F81220C0F637
:1022E0000003C5F81630C5F81A400094FFF7D8FC73
:1022F000C4F82900681C0FF0F9F9C4F82D0042F267
:102300008530D5F832E0C0F600004FF0050CD5F866
:102310002210D5F82620D5F82A30D5F83660C5F831
:102320001E00C5F83EC0D5F83A70C5F82E40CDE97C
:10233000004E0DF1080E8EE8C0100EF091FE2989B6
:10234000C4F8250061844CF2A851C2F201014A7818
:10235000012084F83100501C487001EB82012046B6
:102360004C6105B0F0BD0000D0F82D00417900F1BE
:102370000B02022988BF00F1130210EE100A106050
:1023800070470000002180F83110704741F20400CE
:1023900040F2D062CEF20000C2F20002016892ED7B
:1023A000011AB8EE411A21EE000A16E00268521A2C
:1023B00001EE102AB8EE411AB4EE410AF1EE10FA1D
:1023C000D8BF70470268521A01EE102AB8EE411ABF
:1023D000B4EE410AF1EE10FA15DD0268521A01EE70
:1023E000102AB8EE411AB4EE410AF1EE10FA0ADDF5
:1023F0000268521A01EE102AB8EE411AB4EE410AF0
:10240000F1EE10FAD2DC704710B582B041F2040C44
:10241000CEF2000CDCF80010009140F2D061C2F264
:102420000001DDF800E003684A68009C0460087859
:1024300080B901200870DCF80000019001984C6917
:10244000A04202D2086901300861DCF8000048614E
:1024500000200870AEEB030000EE100A01EE102A17
:10246000B8EE400AB8EE411A80EE010A02B010BD83
:102470002DE9F04383B041F20401CEF20001086877
:10248000019040F2D060C2F20000027872B90122DD
:1024900002700A680292029A43699A4202D2026961
:1024A000013202610968416100210170D0E90169CE
:1024B000D0E90380019F00244FF0FF31E0FB01745D
:1024C0003846214632460023FEF7CCFB0546A0FBEA
:1024D000060201FB06213E1A8C41304621464A463F
:1024E0000023FEF7BFFB074680B200FB09F0301A5D
:1024F00064F1000142460023FEF7B4FB4FF47A7109
:1025000080B2694311FA87F101EE100A9FED072AA4
:1025100000EE101AB8EE411AB8EE400A21EE021A87
:1025200031EE000A03B0BDE8F08300BF6F12833ABA
:102530002DE9F04383B041F20401CEF200010868B6
:10254000019040F2D060C2F20000027872B901221C
:1025500002700A680292029A43699A4202D20269A0
:10256000013202610968416100210170D0E901690D
:10257000D0E90380019F00244FF0FF31E0FB01749C
:102580003846214632460023FEF76CFB0546A0FB89
:10259000060201FB06213E1A8C41304621464A467E
:1025A0000023FEF75FFB87B207FB09F0301A64F1E6
:1025B000000142460023FEF755FB01EE107A9FED25
:1025C0000D2A00EE105AB8EE411A80B2B8EE400A59
:1025D00021EE021A31EE000A01EE100A9FED062AE2
:1025E000B8EE411A21EE021A30EE010A03B0BDE83E
:1025F000F08300BF6F12833ABD37863510B581B0C6
:1026000044F24021C0F20F0100FB01F244F6D35026
:10261000C1F262004EF6FC51A2FB0003CEF20001B3
:10262000086841F2040CCEF2000C40F080704FF0CC
:10263000000E0860CCF800E04DF683605CF8041CE6
:10264000C4F21B30A2FB000441F0010040F2D06153
:102650004CF8040CC2F200019809A30CC1E9012056
:10266000C1E9033E087808B101B010BD01220A702B
:10267000DCF80000009000984B69984238BF0A616E
:10268000DCF8000048610020087001B010BD0000B7
:1026900070470000B0B5D0F835500446D5F8260094
:1026A00000F054F9A08C95F8503000BA000C288046
:1026B000E18C032B09BA4FEA1142A5F80520218DC0
:1026C00009BA4FEA1141A5F8071014BF94F82A403F
:1026D00000246B886C72C31A1BB2834208D12C7918
:1026E000012C11D1B3F57A6F07DD4FF6FF7308E0C7
:1026F00001242C71B3F57A6FF7DC13F57A6F03DAE6
:1027000001236C8923446B81B5F90A302C8C00EBD2
:1027100043331C1B00EE104A9FED1B1AB8EEC00A93
:1027200020EE010A10EE104AEC61EC689FED170AEA
:1027300001EE104A12B221EE000A01EE102A9FEDBE
:10274000142AB8EEC11A21EE021A30EE010A10EE78
:10275000102AEA602A699FED0F0A01EE102A09B2D9
:1027600021EE000A01EE101A9FED0B2AB8EEC11AF5
:1027700021EE021A30EE010A10EE101A6B61296187
:10278000AB616880B0BD00BF0000343DD0CCCC3D13
:102790006666663FD0CC4C3D3333733F90ED000A04
:1027A00090ED011A91ED003A91ED014A90ED022A67
:1027B00091ED025A23EE000A24EE011A31EE000ACE
:1027C00025EE021A30EE010A70470000082001F0E1
:1027D000FBBF0000102001F0F7BF0000202001F037
:1027E000F3BF000072B600BFFEE7000080B543F6FD
:1027F0001043C4F20203D3F800C04FF4407E2CF41F
:1028000040721A601A68032938BF4FEA012E42EA63
:102810000E011960196821F0F8011960196841EA80
:10282000C00040F002001860186840F48030186062
:1028300080BD000043F60040C4F202000168890533
:102840000FD5016821F400710160016841F4006155
:102850000160016821F400610160016841F40071C8
:1028600001600168490558BF7047016821F4806123
:102870000160016841F480510160016821F48051D8
:102880000160016841F480610160704701F09ABE07
:1028900010B52DED028B04462C30B0EE408AFFF7C8
:1028A000B3FD94ED031A84ED0A0A38EE411A81EE65
:1028B000003A94ED071A94ED012A94ED024A84ED52
:1028C000048A84ED038A33EE411A81EE001A94EDF6
:1028D000000A22EE032A20EE080A32EE000A84EDF6
:1028E000053A84ED061A24EE011A30EE014A94ED01
:1028F000091AB0EE442AB1EE415AB4EE454A84EDCD
:10290000084AF1EE10FAB8BFB0EE452AB4EE412AFB
:10291000F1EE10FAB0EE420AB4EE454AC8BFB0EE8E
:10292000410AF1EE10FA84ED073A09DBB4EE412AD0
:10293000F1EE10FAC8BF84ED080ABDEC028B10BDA1
:1029400084ED080ABDEC028B10BD000010B50446F2
:1029500000206062206A0121217538B1E16929B146
:1029600088470121002808BF02212175E06800285E
:1029700008BF10BD618A0122BDE8104002F00CB80A
:102980002DE9F0438BB02DA021210AF09FF84CF2E5
:102990002464C2F2010460622BA00F210BF040FA04
:1029A000A0622DA00D210AF091F8E0622DA0052172
:1029B0000BF036FA206345F66400C0F60100416969
:1029C00082694FF000094427D0F81CC0D0F820E0FD
:1029D000456A866A4DF6087042F6D933089744F680
:1029E0004277CDE9009102A9C2F20100C0F60003CE
:1029F0004FF42028C5F2412781E804504FF4887134
:102A000040F20112CDF82480CDF828900595079763
:102A10000696FFF777F860630120A070082084F81D
:102A200000900FF09BFFA0630EF0A0FEE06307F0A4
:102A30000FFC20640BB0BDE8F08300BF67696D62D6
:102A4000616C5F636D64000067696D62616C5F75E6
:102A5000706C6F616400000073686F6F745F636D0A
:102A60006400000073686F6F745F75706C6F6164F1
:102A700000000000B0B5A6B040F6D400C2F20000DD
:102A80000025C0F81350C0E9025505614BA00F2185
:102A90000AF01CF840F62C04C2F20004A0604BA01F
:102AA00021210BF0BDF9E06021200FF057FF21211B
:102AB0002061FEF72FF907F0CBFB60610EF056FEA8
:102AC000A06105206823C0F20010CDF8823046F6E0
:102AD000501313900120C6F27433C0F20300CDF8F6
:102AE0007E30636914909620ADF8540003F12C00F9
:102AF000CDF88E0003F11C00CDF892000320C0F643
:102B0000D860CDF80600CD20CDF8120046F259105D
:102B1000C0F27700CDF8320003F134004DF6087CA6
:102B200040F20132CDF8420003F12400C2F2010C60
:102B30000121CDF85E204FF40052CDF8460013A8D5
:102B4000CDF856C0CDF85A10CDF86250CDF8665089
:102B5000CDF86A50CDF86E50CDF87250ADF87620B1
:102B6000CDF87A50ADF88650CDF88A508DF8001027
:102B7000CDF801508DF80550CDF80AC0CDF80E10F3
:102B8000CDF81650CDF81A50CDF81E50CDF8225081
:102B9000CDF82650ADF82A20CDF82E50CDF836507D
:102BA000ADF83A50CDF83E50FFF75AFBE061684669
:102BB000FFF792F9206226B0B0BD00BF67696D6271
:102BC000616C5F75706C6F616400000067696D62B5
:102BD000616C5F636D6400004CF22463C2F2010318
:102BE000D0F824C0826A9B6BD0F835105A60C3F8C5
:102BF00000C000208882D1F8170001228A75FFF7F3
:102C0000A5BE00002DE9F0412DED028B40F62C070A
:102C1000C2F20007D7E903010BF0FAF80146386A5F
:102C2000012951D1D0F8261040F6D404097DC2F212
:102C30000004012952D10121617501884289A4F85B
:102C40000910F969A4F80B20CB693A69D1F825601D
:102C5000C4F80D301278337D042AA37500F27C800D
:102C6000DFE812F045000600AC000600560100BF88
:102C7000FFF7FCF8F869FFF7EFFA386941780329A4
:102C800008D0386A0021FFF7EBF8F8690021FFF758
:102C90004FFA38690178032940F07C81396A027D56
:102CA000088841F6D861002A08BF40F6D86109F0CB
:102CB00039FF00EE100AB8EEC00A87ED100A0EF0D8
:102CC00053FA38696BE100BFFA69002180F84D10B2
:102CD00082F83110BDEC028BBDE8F081F9693B69E7
:102CE000D1F8256000221A70337D6275A375002328
:102CF0003D4625F8703F4DF608762A46C2F2010699
:102D000080F84D3081F8313022F8083D304640F2ED
:102D1000FF11C4F81130FFF7C1F8304640F2FE3120
:102D20002A46FFF7BBF84CF21005C2F2010528460F
:102D300009F07EFE05F5A87009F07AFE05F1540051
:102D400009F076FE05F1A80009F072FE05F5FC70A9
:102D500009F06EFEE9E200BF00233D4625F8703F12
:102D60004DF608762A46C2F2010680F84D3081F809
:102D7000313022F8083D304640F2FF11FFF78EF85F
:102D8000304640F2FE312A46FFF788F84CF2100533
:102D9000C2F20105284609F04BFE05F5A87009F0BE
:102DA00047FE05F1540009F043FE05F1A80009F0C3
:102DB0003FFE05F5FC7009F03BFEB6E2FFF756F862
:102DC000F869FFF749FA38694178022908D0386A6A
:102DD0000121FFF745F8F8690121FFF7A9F93869E2
:102DE0008168386A00EE101AFFF748F838694168C0
:102DF000F86900EE101AFFF7B7FA40F260757869CB
:102E0000C2F20005A97C426B002900EE102A00F0F6
:102E100053812968406A40F23C18C2F2000800EE73
:102E2000901A01EE100A08F1F00009F0EDFC786943
:102E300098ED4C1A406AB0EE083A00EE100AA86805
:102E40004CF2100602EE100A22EE032AC2F201062C
:102E500072EE010A06F1FC0009F0E4FB96ED510A5E
:102E60003A46BDEEC00A10EE100A22F8480F4DF6A1
:102E70000870C2F2010040F2FF11FFF70FF8686816
:102E80009FED4F0A00EE900AF4EE400AF1EE10FAC0
:102E900006DBB3EE010AF4EE400AF1EE10FA04DDAF
:102EA00010EE100AF0EE400A6860F8699FED458A5E
:102EB000C169006900EE101A01EE100A21EE081A2D
:102EC00008F50C7009F0A0FCF86998ED9C1A0069EF
:102ED00000EE100AE86820EE080A02EE100A72EE10
:102EE000010A06F5137009F09DFB96EDA50A3A4616
:102EF000BDEEC00A10EE100A22F8500F4DF6087011
:102F0000C2F2010040F2FE31FEF7C8FF88E100BFC7
:102F100079884A1C7A8041B97969496B00EE101AA8
:102F2000BDEEC00A10EE101AB9803978012919D106
:102F30007969B7F90420496B01EE102A00EE101AE6
:102F4000B8EEC11A30EE410AB0EEC00AB7EE001A70
:102F5000B4EE410AF1EE10FA04DCAFF30080386AF7
:102F60000021398097ED090A9FEDF61AC06820EE1E
:102F7000010ABDEEC00AB86210EE100A20804DF6BC
:102F80000870C2F2010040F2FF11224608F082FDF3
:102F9000CBE100BF016939640021C4F81110C16898
:102FA0007964C178052901D003290DD10178386AE7
:102FB000032915D1018800EE101AB8EE400A14E07A
:102FC000000018C25177D63D0178386A032940F0D5
:102FD0003D81018800EE101AB8EE400A3BE100BFC7
:102FE000416900EE101AB8EEC00AC06840F23C1603
:102FF000D7ED100AC2F2000601EE100A06F1A00099
:1030000009F002FC386A3969C0689FEDCF2A00EEEA
:10301000100AD1F8190096ED381A03EE100A4CF296
:10302000100523EE022AC2F2010572EE010A05F133
:10303000A80009F0F7FA95ED3C0A4DF60878BDEEC8
:10304000C00A10EE100A3A46C2F2010822F8580FE0
:10305000404640F2FF11FEF721FFF8699FEDBB8A61
:10306000C1690069D7ED110A01EE100A00EE101ACD
:1030700021EE081A06F5F07009F0C6FBF869D6EDE6
:10308000880A006900EE100A20EE080A05F5FC70B7
:1030900009F0C8FA95ED900A3A46BDEEC00A10EE66
:1030A000100A22F8600F404640F2FE3105F5A8767E
:1030B000FEF7F4FE284627E13969406A8A68D1F8AC
:1030C000191040F23C1601EE100A02EE101AC2F27C
:1030D000000600EE902A31EE421A06F1500009F087
:1030E00093FB78693969406A9FED992A00EE100ACE
:1030F00051F8190F96ED241A03EE100A486823EED2
:10310000022A32EE011A02EE100AB8EE083A4CF228
:10311000100522EE032AC2F2010571EE020A05F142
:10312000540009F07FFA95ED270A3A46BDEEC00A31
:1031300010EE100A22F8480F4DF60870C2F2010096
:1031400040F2FF11FEF7AAFED4F80D009FED811AA0
:1031500000EE100AB4EE410AF1EE10FA4FF0000052
:1031600044DCBBEE0C1AB4EE410AF1EE10FA3DDB82
:1031700078699FED790AC1699FED781A08EE101AF7
:10318000B4EE408AB0EE480A3A69F1EE10FAA8BFF0
:10319000B0EE410A9FED721AC06AB4EE418AF1EEB8
:1031A00010FAD8BFB0EE408A516800EE100A00EE67
:1031B000901A06F5C870B0EE481A09F025FB386978
:1031C00096ED740AD0F8150001EE100A31EE000AEF
:1031D000F1EE400A05F5D270B0EE480A09F022FA85
:1031E00095ED7B0ABDEEC00A10EE100A3D4625F8AB
:1031F000500F4DF60870C2F2010040F2FE312A462F
:10320000FEF74CFED6F8D00155F8401C45F8140CDA
:10321000D1F81D0045F81C0CD1F8150045F8180C24
:103220004CF21005C2F2010505F5A87009F000FC8A
:1032300005F5FC7009F0FCFB284609F0F9FB05F1E7
:10324000A80009F0F5FB0DF08FFF6EE0416900EE7C
:10325000101AB8EEC00AC06840F23C16D7ED100A4A
:10326000C2F2000601EE100A304609F0CDFA386AC3
:103270004CF21005C068D6ED100AC2F2010500EE4E
:10328000100A284609F0CEF995ED120A4DF6087895
:10329000BDEEC00A10EE100A3A46C2F2010822F84A
:1032A000580F404640F2FF11FEF7F8FDF8699FED18
:1032B000278AC1690069D7ED110A01EE100A00EEF4
:1032C000101A21EE081A06F5A07009F09DFAF869A7
:1032D000D6ED600A006905F5FC7600EE100A20EED6
:1032E000080A304609F09EF995ED900A3A46BDEE7F
:1032F000C00A10EE100A22F8600F404640F2FE317C
:10330000FEF7CCFD05F1A80009F092FB304609F06C
:103310008FFB4CF21005C2F2010505F1540009F0D3
:1033200087FB05F5D27009F083FB38690178B8682E
:1033300004F8081F2146BDEC028BBDE8F04109F0FE
:10334000B1BB00BF00606A469A99993F5177D63D5C
:10335000CDCCCC3F00001042CDCC4CBE00000000D4
:10336000CDCC4C3EF0B581B04CF22467C2F20107DF
:10337000786BD0F81700007D012840F6A400C2F257
:1033800000002DD1B96B9FEDCE1AB1F900209FED51
:10339000CF3A00EE102AB8EEC00A20EE010A9FEDE7
:1033A000C91A9FEDC92AB4EE410AF1EE10FAB0EE47
:1033B000401AB4EE430AA8BFB0EE421AF1EE10FA7A
:1033C000D8BFB0EE410A10EE102AC262C87887F862
:1033D0007A0088888978A7F87600A7F8781001E045
:1033E0000021C16240F6A404B86AC2F2000421467A
:1033F0000AF00EFD386B07F154010AF009FD97F849
:10340000540001281CBF022087F86E00607B012851
:103410001CBF0021E1733978C9B100220229BA70BA
:103420000ED0012913D13A89013213B2142B3A81FB
:103430000DDB02223A7040F20112A7F8642006E088
:103440007A89013293B20A2B7A8100F03381FA6BC8
:10345000D2F86D301B7D012B06D1BB7819430DD1FD
:103460000121B9701AE000BF0020B8700020E0739D
:1034700087F86E00012087F864005EE0012B0DD014
:10348000002BF3D0107F032844D0022846D0012817
:1034900053D10FF07BFB00204DE000BF01284CD141
:1034A000F888411C88B21D28F98011D8B4F80100B1
:1034B00041F2D961401A002110F5805F4FF0000001
:1034C00038BF012084F82300E173C4F81B1034E0F6
:1034D000C0087C2802D80320E0732EE00020396C5D
:1034E000F8800220B870E073486BB4F90320C4F888
:1034F0001700B4F80100C96A00EB423000EE100A70
:10350000B8EEC00A10EE100AC4F81310C4F81F0079
:1035100013E000BF0EF05CF900200CE00020396CD5
:1035200087F86E00E073F870486BC96AC4F817003A
:103530000120C4F81310A7F86400F8783D4600286D
:1035400004BF0121A7F8641015F86E1F607455F8C8
:10355000420CA174294604F10F0609F0A3FA55F8AC
:103560004A0C314609F09EFAE07BA5F11002207466
:103570004DF60870C2F201004FF48871FEF702FCAC
:10358000B4F8010055F82E1CA0F6D86000EE100A21
:10359000C86A9FED4F1A02EE100A496B22EE012A0B
:1035A000BDEEC22A12EE100A02EE101A35F8171CF0
:1035B00022EE011A25F8081CA17B15F8152CBDEE8A
:1035C000C11A25F8060C11EE100A01F0010102F0F3
:1035D000FC0225F8040C607B114415F8192C60F3EB
:1035E0004101501EC0B205F8151C04289ABF39A12C
:1035F000085C0020F978B8EEC00A022987F85B0061
:1036000008D001290AD097F85A00002920F01E009E
:1036100009E000BF97F85A00022102E097F85A002B
:10362000012161F3440040F26071C2F20001CA7DE1
:10363000097C87F85D2097F8542001F0010100F023
:10364000DE009FED261A40EA411002F00101084415
:1036500020EE010A87F85A00BDEEC00AB88910EEC4
:10366000101AA7F86C10411C0828B98110D0042842
:1036700012D078B94DF6087007F15902C2F2010074
:103680004FF4907101B0BDE8F040FEF77BBB00BF86
:103690000020B88101B0F0BD4DF6087007F1660258
:1036A000C2F201004FF4987101B0BDE8F040FEF79E
:1036B00069BB00BF012080F313880DF03FFD00BF00
:1036C0000AD7A33BCDCC4CBD00000000CDCC4C3D77
:1036D0000000C84203000100020000006159443F9D
:1036E00090F82020013A012A08D8006800F114025D
:1036F0000020136819431160704700BF00F12402D5
:1037000001204FF4802113681943116070470000B5
:1037100010B590F820E0D0F800C0AEF1010EBEF177
:10372000010FDCF808E011D81EF0E05F18D0CEF3EE
:10373000016E012000FA0EF018608B68D3B1486862
:10374000CC6844EAC000034318E000BF00F1240144
:1037500001204FF480220B681A430A6010BD00BF9D
:1037600000F1240101204FF400120B681A430A6093
:1037700010BD00BF0868CB6843EA40530CEB0E1045
:10378000C0F880310B69C0F88431097D012905D169
:1037900000F5C2710B6843F480730B605168C0F888
:1037A0008C11126800F5C071C0F888210020012238
:1037B0000B681A430A6010BDB0B590F82020013A9A
:1037C000012A2FD846F20060C4F20000026842F0DD
:1037D00001020260026822F47C520260D1F814E017
:1037E000CC694A6A0368012C43EA022202600EF0A7
:1037F0001F024FF0010303FA02F2C3696FEA020CE1
:1038000023EA0203C36113D02CBBC36803EA0C0391
:10381000C360CB688C8844EA034300EBCE04236486
:103820000B4611E0416A41F4802141620120B0BDA4
:10383000C3681343C3600B688C8844EA034300EBFE
:10384000CE04236401F10C038C681B8843EA044313
:1038500000EBCE04636443688D6943EA0204D1F847
:1038600010E0096A002D08BF03EA0C0444604369B4
:10387000BEF1000F43EA020408BF03EA0C04012969
:10388000446102D1C1691143C161016821F00101A4
:1038900001600020B0BD00007047000090F82020BB
:1038A000013A012A84BF00207047006810220029D5
:1038B00008BF0C22805800F00300704710B590F844
:1038C0002040013C012C7BD8D0F800C0002900F03A
:1038D0008180DCF81040A40700F081800CEB011C13
:1038E000DCF8B0410CF5D87E14F004049460DCF8E8
:1038F000B04119BFE4085460640D1460DEF8004064
:103900000CF5DA7E04F00204D460DCF8B44124073C
:103910005ABFDEF8004004F00F0408241461DEF8FA
:1039200000400029C4F307249461DEF800404FEA08
:1039300014445461DCF8B8211A70026802EB0112D9
:10394000D2F8B8214FEA12225A70026802EB011233
:10395000D2F8B8214FEA12429A70026802EB0112C3
:10396000D2F8B8214FEA1262DA70026802EB011253
:10397000D2F8BC211A71026802EB0112D2F8BC2104
:103980004FEA12225A71026802EB0112D2F8BC21EE
:103990004FEA12429A71026802EB0112D2F8BC217E
:1039A0004FEA1262DA71006814BF00F1100100F1F1
:1039B0000C01002020220B681A430A6010BD00BFD2
:1039C00000F1240101204FF480220B681A430A60A1
:1039D00010BD00BFDCF80C40A4077FF47FAF00F1FE
:1039E000240101204FF400120B681A430A6010BD35
:1039F0002DE9F04F81B0044600684669D0F8049084
:103A00008768D0F80CB0D0F810A0D0F81880F10773
:103A100004D1002530071DD424E000BFF90710D0E1
:103A20000121BA07816009D4780700F1AF80380717
:103A300000F1B680204600F01BFB02E0204600F0BB
:103A400019FB0025F80500F18780F80300F1B1802B
:103A5000300707D51BF0100004D0206845F400752E
:103A60001021C160700708D51BF0080005D0206840
:103A70000821C160204600F0FFF9B00706D5206894
:103A8000C068800702D0204600F0F8F9700607D51C
:103A90001AF0100004D0206845F4806510210161FF
:103AA000B00608D51AF0080005D020680821016189
:103AB000204600F047FAF00606D520680069800726
:103AC00002D0204600F040FAB00308D519F01000EB
:103AD00005D0206810214160204600F099FAF003DB
:103AE00008D519F0080005D020680821416020465B
:103AF00000F0CAFA300440F19B805FEA497040F15F
:103B0000948006F4807008EA102028435FEA8871E8
:103B1000014648BF41F00201B20558BF01465FEAC5
:103B200048700D4648BF45F00405700558BF0D4666
:103B3000300540F17A8018F0700000F0768010387F
:103B4000000905286CD8DFE800F003595D6165695C
:103B500045F0080564E000BF20684FF48071BA05A5
:103B600081600BD4780515D438051DD4204600F0AB
:103B700083FAF8037FF56CAF1BE000BF204600F02E
:103B80007DFAF8037FF564AF13E000BF4FF40065E2
:103B900058E700BF05F50055F8037FF559AF08E079
:103BA0004FF480554EE700BF05F58045F8037FF5DB
:103BB0004FAF20684FF48031BA0381600AD4780394
:103BC00010D4380314D4204600F05AFA30073FF5D9
:103BD00041AF47E7204600F055FA30073FF53AAFCE
:103BE00040E700BF05F5004530073FF533AF39E743
:103BF00005F5803530073FF52DAF33E745F010056B
:103C00000EE000BF45F020050AE000BF45F040058A
:103C100006E000BF45F0800502E000BF45F4807576
:103C20002068816921F07001816120680421416070
:103C300055B1606A40EA05012046616201B0BDE805
:103C4000F04FFFF729BE00BF01B0BDE8F08F0000C4
:103C5000B0B5C8B1044690F8200010B9204600F075
:103C600071F82068016841F00101016000F09AFEDE
:103C7000054600BF20684168C90707D100F092FEE1
:103C8000401B0B28F6D312E00120B0BD016821F0E3
:103C90000201016000F086FE054600BF2068416811
:103CA00089070DD500F07EFE401B0B28F6D3606A15
:103CB000052140F400306062012084F82010B0BD7E
:103CC000217E0268012922F0800208BF8032026052
:103CD000617E0268012922F0400208BF4032026082
:103CE000A17E0268012922F0200208BF2032026072
:103CF000E17E0268012922F0100218BF1032026032
:103D0000217F0268012922F0080208BF0832026000
:103D1000617F0268012922F0040208BF04320260B8
:103D2000D4E901C2D4E9033561691A432A43114336
:103D3000ACF101021143C16100200121606284F8ED
:103D40002010B0BDB0B586B0006846F60002C4F2DF
:103D5000000200219042CDE90411CDE90211019148
:103D600036D046F20041C4F20001884240F0828021
:103D70004CF2A061C2F201010A6843F64000C4F2AD
:103D80000200531C0B6052B900210091016841F000
:103D900000710160016801F000710091009900213B
:103DA000009150F8101C152441F0080140F8101C37
:103DB00050F8100C142500F008000090009840F214
:103DC0000040C4F2020000F50060032136E000BFAD
:103DD00043F64000C4F202000091016841F08061A6
:103DE0000160016801F08061009100994CF2A061CE
:103DF000C2F201010A68531C0B6052B90021009104
:103E0000016841F000710160016801F000710091EA
:103E100000990021009150F8101C412441F002014A
:103E200040F8101C50F8100C402500F002000090E3
:103E3000009840F200406021C4F20200019102218A
:103E4000029100210391032104910921059101A907
:103E500000F0C6FC28460521002201F0BBFB2846E5
:103E600001F0A4FB20460521002201F0B3FB20460F
:103E700001F09CFB06B0B0BD704700002DE9F04793
:103E800082B000210446FFF709FD002857D04CF20C
:103E9000084AC2F2010A0AF10409E84606E000BF36
:103EA00020460021FFF7FAFC002848D020460021D8
:103EB0004A464346FFF702FD9AF801000028EFD07A
:103EC000DAF80410C0F1000CA0F1010E002502E0A8
:103ED0000435A842E4D00AEB8506376A3A68A24264
:103EE00002D1FA6A91421CD0AE45D9D0776A3A68BD
:103EF000A24202D1FA6A914213D00CEB0502971C40
:103F0000CED0B76A3B68A34202D1FB6A994208D07F
:103F10000332C5D0F76A3A68A242D9D1FA6A91420F
:103F2000D6D1DAF8142007F12400694687F830204A
:103F3000FCF7C9FED7F8311009B13846884702B0FE
:103F4000BDE8F087704700002DE9F04782B00121FD
:103F50000446FFF7A3FC002857D04CF2084AC2F2EF
:103F6000010A0AF10409E84606E000BF20460121E3
:103F7000FFF794FC002848D0204601214A464346DA
:103F8000FFF79CFC9AF801000028EFD0DAF8041043
:103F9000C0F1000CA0F1010E002502E00435A8429A
:103FA000E4D00AEB8506376A3A68A24202D1FA6A7F
:103FB00091421CD0AE45D9D0776A3A68A24202D16C
:103FC000FA6A914213D00CEB0502971CCED0B76A67
:103FD0003B68A34202D1FB6A994208D00332C5D0A4
:103FE000F76A3A68A242D9D1FA6A9142D6D1DAF890
:103FF000142007F12400694687F83020FCF763FE9F
:10400000D7F8311009B13846884702B0BDE8F087CB
:1040100070470000B0B5044690F8200001281DD17B
:10402000022084F820002068016821F0010101606D
:1040300000F0B8FC054600BF20684068C00713D0F8
:1040400000F0B0FC401B0B28F6D3606A40F400304F
:104050006062052084F820000120B0BD606A40F451
:10406000002060620120B0BD00206062B0BD000091
:104070007047000070470000704700007047000064
:1040800070470000704700007047000070B5866DF3
:10409000044600F087FC94F83510022928D1054623
:1040A0002068216C026822F016020260426922F048
:1040B0008002426109B9A16C19B1016821F00801BF
:1040C0000160016821F00101016000BF2068006803
:1040D000C00715D000F066FC401B0628F6D3202050
:1040E0006065032084F83500002184F8341070BD29
:1040F000802060650120002184F8341070BD00BF6D
:10410000E06D3F2101FA00F0B060012084F8350035
:104110000020002184F8341070BD000090F83510A4
:10412000022909D1052180F835100068016821F0C5
:104130000101016000207047802141650120704726
:10414000B0B5002840D090F83510022904BF0220F5
:10415000B0BD02684AF6AB2102F0F803D2F800C005
:10416000A3F11005CAF6AA21A5FB011E2CF001013E
:10417000116000212123116051609160D1601161B3
:10418000536145F69C234FEA1E1CC0F6010313F849
:104190000C3040F2FF34A2435F2D4FF03F0588BF43
:1041A0000432C0E9162305FA03F3C0E90F11C0E990
:1041B0001111C0E913119360416580F8351080F842
:1041C00034100846B0BD00BF0120B0BD90F83500E6
:1041D00070470000F0B581B004460020009040F226
:1041E0009C50C2F200000268D4E9166048F2B51390
:1041F00037680821C1F64E3381403942A2FB0325BE
:104200000CD0226813685B0708D5136823F00403F9
:104210001360B160616D41F0010161650121814070
:10422000394208D022685269120604D5B160616D26
:1042300041F00201616504218140394208D02268C1
:104240001268920704D5B160616D41F004016165A7
:1042500010218140394217D020680268120713D517
:10426000B16002680168520308D4C90508D4016826
:1042700021F008010160216C21B905E008033FD459
:10428000216C09B120468847E16D202000FA01F237
:104290003A4241D020680368DB063DD5B26094F80D
:1042A00035300268052B1BD122F0160202604269EC
:1042B00022F080024261226C0AB9A26C1AB1026833
:1042C00022F0080202603F208840B060012084F89C
:1042D0003500216D0020002984F8340052D157E0C8
:1042E0000168520310D4C90512D4016821F01001ED
:1042F0000160012084F83500002084F8340007E0D4
:10430000A16C0029BED1BFE7080301D4616C00E0B5
:10431000E16B09B120468847606DC8B3606DC00786
:104320002ED0052084F835002068A90A026822F002
:1043300001020260009A01328A4200921AD8026891
:10434000D20717D0009A01328A42009212D802682E
:10435000D2070FD0009A01328A4200920AD802682E
:10436000D20707D0009A01328A42009202D802682E
:10437000D207DFD1012084F83500002084F8340012
:10438000E16C29B1204601B0BDE8F040084700BF0C
:1043900001B0F0BD2DE9F041044600F003FBECB1A3
:1043A0000546022084F835000020216884F8340096
:1043B000086820F00100086021680868C00711D073
:1043C00000F0F0FA401B0528F6D90325202303202E
:1043D000636584F83550BDE8F08100BF0120BDE879
:1043E000F08100BF086848F23F02CFF21002D4E922
:1043F000013500EA020C04F10C0898E8C10143EA17
:104400000C032B431843D4E9072E304338431043A1
:10441000626A40EA0E00042A40EA08031CD1206BBD
:10442000D4E90A2E40EA0E00184308604869BEF13C
:10443000000F20F0030040EA020040F0040C11D00D
:10444000B8F5005F36D0B8F1000F45D1022A46D04A
:10445000012A3BD032B942E00B60486920F00700E6
:1044600040EA020C01F0F8004AF6AB221038CAF616
:10447000AA22A0FB02231A0945F69C23C0F60103D9
:104480009A5C40F2FF335F284FF03F00C1F814C040
:1044900021EA030100FA02F088BF0431C4E91612D0
:1044A0008860002301250020636584F83550BDE84D
:1044B000F08100BF032AD5D8012540230120DFE881
:1044C00002F0030E030500BF82E700BFAEF1C0702B
:1044D000B0FA80F0400904E0032A04D3C2D1CEF33D
:1044E00000600028BED0012540230120636584F8C8
:1044F0003550BDE8F081000070B590F834C0BCF1D3
:10450000010F46D04FF0010C80F834C0D0F858E0CD
:1045100090F835C0BCF1010F38D14FF0020C80F893
:1045200035C04FF0000CC0F854C0D0F800C084680B
:10453000056CC06DDCF80060402C26F48026CCF8B9
:104540000060CCF804300B4604BF13460A463F21F6
:1045500001FA00F0CCF80830CCF80C20CEF80800B6
:10456000DCF8000040F01600CCF800002DB1DCF8BB
:10457000000040F00800CCF80000DCF8000040F03B
:104580000100CCF80000002070BD00BF002180F8C1
:104590003410022070BD0000B0B5044600F002FAED
:1045A000054640F20800C2F200000078611C18BF06
:1045B000044400BF00F0F6F9401BA042FAD3B0BD9E
:1045C00070470000B0B543F60C44C4F20204206802
:1045D00041F2685510F0F20FC2F200052ED0287893
:1045E000012807D1E8684FF0FF31E9602168C9066A
:1045F00008D40DE02878022814BF6869286921686A
:10460000C90605D5E96941F01001E9611021216071
:10461000216889062AD42168490630D42168090610
:1046200036D42168890705D5E96941F02001E9619F
:104630000221216000F062F8002028702068C00785
:104640004BD001202060287801282BD168680138E0
:1046500068606868B0B3E868FFF7B2FFE8680130E7
:10466000E860E868297AFEF7C1F836E0E96941F0C8
:104670000801E9612021216021684906CED5E96958
:1046800041F00401E9614021216021680906C8D593
:10469000E96941F00201E96180212160216889070F
:1046A000C2D4C7E7284610F8141B022903D1FEF72D
:1046B000C1F805F110000068FFF782FF00202870A4
:1046C0000BE000BF4FF0FF30E86000202870FEF7DD
:1046D000B1F84FF0FF30FFF773FF2878002818BFBC
:1046E000B0BD606820F0FF006060606820F08070FE
:1046F0006060606820F000706060B0BD70470000CE
:10470000B0B54EF2C811C2F201010978002941D0BA
:1047100040F6441EC2F2000E0EF16A034D4203221F
:1047200006E000BF0432A918032903F1A00331D029
:1047300033F8504C844204D153F84ACCBCF1000FFA
:104740002AD1AC18022C25D033F8281C814204D180
:1047500053F822CCBCF1000F26D1012C1AD01988B5
:10476000814204D1D3F806C0BCF1000F24D1002C43
:1047700008BFB0BD198D8142D4D1D3F82EC0BCF191
:10478000000FCFD002EB82000EEBC000BDE8B040BE
:10479000604700BFB0BD00BF033A02EB82000EEBE2
:1047A000C000BDE8B0406047023A02EB82000EEB69
:1047B000C000BDE8B0406047013A02EB82000EEB5A
:1047C000C000BDE8B040604743F61441C4F20101A7
:1047D0000A68024214BF08607047FFF791BF0000EB
:1047E0002DE9F04F82B000F13E4241F6004502F162
:1047F000FF77C4F20205082243F6004E4FEAB726BF
:10480000A84208BF0722C4F2010E072E38BF4FEAA4
:10481000B7220125002600274FF00008009208E08B
:1048200008F101080437B8F1100F06F1020600F094
:10483000A7800C6805FA08F914EA090FF0D0D1F83E
:1048400004B003220BF0030CACF10104B240012CC4
:104850006FEA020A10D88268CC6802EA0A02B44001
:10486000224382604268CBF3001422EA090204FA70
:1048700008F42243426005E0BCF1030F02D14FF07F
:10488000030C20E0C2688C6802EA0A02B4402243AA
:10489000BCF1020FC26016D16FF0030202EA5802A7
:1048A0000244D2F820C007F01C050F230C69AB406E
:1048B0002CEA030304FA05F52B431362D1F804B084
:1048C00001250BF0030C02680CFA06F302EA0A0257
:1048D0001A431BF4403F0260A2D0002243F6440377
:1048E0000192C4F202031A684FF6084C42F4804267
:1048F0001A601A68CFF6FF7C02F480420192019A96
:1049000028F00302724452F80C3007F00C050F2413
:10491000AC40A343009C04FA05F52B4342F80C304D
:10492000DEF808204B6842EA090543F60C4CDC022D
:1049300058BF22EA0905CEF80850C4F2010CDCF891
:1049400000209C0242EA090558BF22EA0905CCF87A
:104950000050DEF804209C0342EA090558BF22EA11
:104960000905CEF80450DEF80020DB0342EA090511
:1049700058BF22EA0905CEF80050012550E700BFD4
:1049800002B0BDE8F08F0000426902EA01039143E2
:1049900041EA034181617047002A08BF090481612F
:1049A000704700004EF2BC20C2F201000068704760
:1049B0007047000070470000F0B581B00446006801
:1049C00000254769426894F83E1002F48076FA05A3
:1049D00005D5002E1EBF6FF4807242610125BA0515
:1049E00005D5002E1EBF02356FF4007242617A05B4
:1049F00016D5AEB1628D94F83D30D4F830C0202980
:104A000008BF002A24D06FF48062402905F1040514
:104A1000426101D0102903D1016841F400710160A5
:104A2000380507D536B1206808356FF4006141615B
:104A300001E000BF55B1206C40EA05012046216429
:104A400001B0BDE8F04004F085BB00BF01B0F0BD8F
:104A500003F0F701212909D0282B08BFBCF1210F51
:104A600004D06FF4806141610435D9E794F83D10BA
:104A7000E26AB2F1080318BF0123203A18BF0122ED
:104A8000134208BF282921D0212939D10021CFF68E
:104A9000FF71E16221212163202184F83D10002172
:104AA00084F83E10426822F4E06242606FF4806253
:104AB0004261026822F4806202604269120648BFC5
:104AC0000161204600F0BCFCAAE700BF0021CFF640
:104AD000FF71E162416821F4E06141606FF480613F
:104AE0004161016821F48061016000202021206380
:104AF00084F83D1084F83E00204600F0C9FB8FE7A3
:104B00006FF4806141618BE7F0B581B007680446BE
:104B10007868E26A94F83E3094F83DE0402B01D08A
:104B2000102B27D1BE697D69E90751D1B2F12A4F17
:104B300000F0A082B2F52A0F00F09C8200F400720F
:104B40004FF0010C29078CEA522C45D5002A43D09E
:104B5000606B616CC9B2396118B1C06B002840F05C
:104B60002481A06B002800F08582C06B002840F0F3
:104B70001C817FE2216C00F4007300290CBFBE6928
:104B800000267D69A90753D5002B51D0206C002841
:104B900018BFBE6994F83D0000F02800282840F0B6
:104BA00093807868002320F480607860012020EAF8
:104BB000960130064FF0180058BF0C20225A2046AC
:104BC00084F83C3001B0BDE8F040FFF7F3BE00BF11
:104BD000810557D44FF0010CA90759D5BCF1000F3E
:104BE00056D194F83E30E06A226B94F83D102229A9
:104BF00040F0E280216D002908BF402B00F0DC80EE
:104C0000216D002940F032812169B1F5404F40F01B
:104C10002D810020009078690090B869009000987C
:104C2000386840F480703860206D01306BE200BF5E
:104C3000E90655D5002B53D094F83D50786820F400
:104C4000E06078600020009078690090386840F05B
:104C5000010038600098386820F480603860786817
:104C6000000540F1408105F0F7002646222840F07B
:104C7000198156F8380F0168496826F80E1C36F875
:104C80000E1C17E1E06AB0F52A0F5FD1012062E047
:104C90007968720701F4006100F19880002940F002
:104CA000E981690605F0040140F1AC8110F48060EF
:104CB00000F0A881002940F0A581204601B0BDE8A0
:104CC000F04004F089BB00BF00200090796900919A
:104CD000B9690091009984F83C0001B0F0BD00BFB3
:104CE0000EF0F70100F48062212905F0040040F085
:104CF0008380290640F14881002A00F04581002880
:104D000040F0428194F83D00618D002900F0B281AD
:104D1000616A11F8012B3A616162618D0139618527
:104D2000618D002908BF292840F0A48178682821D6
:104D300020F48060786021202063204684F83D10B4
:104D400001B0BDE8F04000F07BBB00BFE06AB0F10D
:104D50002A4F01D10820E06294F83E0040280BD190
:104D6000206D616C002801F0FE0018BF40F00100CA
:104D7000386101B0F0BD00BF2069B0F5804F65D14A
:104D800094F83D00616C212801F0FE0118BF01314B
:104D90003961606B08B1C06B38B9A06B002800F0B6
:104DA0006981C06B002800F06581786840F400607C
:104DB000786001B0F0BD00BF0020009078690090DD
:104DC000B8690090009801B0F0BD00BF002940F024
:104DD0005181290605F0040140F1208110F4806022
:104DE00000F01C81002940F01981204601B0BDE887
:104DF000F04004F0DDBB00BF690640F1D780002A17
:104E000000F0D480002840F0D18094F83D00618DFE
:104E1000002900F02F813969626A1170616A0131DD
:104E20006162618D01396185618D002908BF2A2881
:104E300040F020812068416821F480614160222097
:104E400028212063204684F83D10D6E0206D0028FC
:104E500000F0BE80206D012840F00C81606C0621BE
:104E600001EAD010F130386101B0F0BD618D61B15F
:104E7000618D012940F0E280202818BF082840F009
:104E8000FB80386820F480603860002000907869EA
:104E90000090B86900900098386840F4007038605D
:104EA00030E100BF56F8340F0168496826F80A1C43
:104EB00036F80A1C19B1216C41F0040121647968AB
:104EC00021F400617960FFF781F901280BD0306887
:104ED00049F23101C0F600010165FFF71FF910B179
:104EE0003068016D8847608D60B12068416949076D
:104EF00030D4416949063AD4608D18B1206C40F035
:104F000004002064206C28B1204601B0BDE8F040C8
:104F100004F020B92A2D07D100202063282084F82E
:104F20003D00204600F08AFA94F83D00282857D129
:104F30000020CFF6FF70E06200212020216384F87A
:104F40003D00204684F83E1001B0BDE8F04000F07E
:104F50009FB900BF0069616A0870616A2068013109
:104F60006162618D0139618541694906C4D5006975
:104F7000616A0870606A01306062608D0138608526
:104F8000608D0028BAD1BDE7002818BF002B71D072
:104F9000608D00286ED0606A10F8011B3961606274
:104FA000608D0138608501B0F0BD00BF002818BFDA
:104FB000002B5FD0608D00285CD03869616A087072
:104FC000606A01306062608D0138608552E000BF28
:104FD000606C062101EAD010F030386101B0F0BDFC
:104FE000206B222818BF222D44D1002120202163CC
:104FF00084F83D00204684F83E1001B0BDE8F04042
:1050000000F01CBAB1FA81F0400950EA0C0031D12D
:10501000204601B0BDE8F04004F062B9B1FA81F079
:10502000400950EA0C0025D1BEF1210F1AD12046CB
:1050300001B0BDE8F04004F079BA00BF618D0229EB
:105040000CD110283CD8012114228140C0F2010269
:10505000114235D04FF4806238E000BF396841F426
:10506000806135E0402B05D1204601B0BDE8F0401D
:1050700004F0F8BA01B0F0BD10F5803F0CD13868EB
:1050800020F480603860786800057FF5FEAE3868EF
:1050900020F4806038602EE0122A02D101287FF4CB
:1050A000F0AE1028F3D8012101FA00F01421C0F26B
:1050B00001010842EBD0386840F4806038601AE0A3
:1050C00039684FF4006221F4806139603968114316
:1050D0003960796809050ED5421E1F2A16D80121AC
:1050E000914048F28102C8F2000211420ED0786865
:1050F00040F4805078600020009078690090B86992
:10510000009000980020206501B0F0BD10F5803FB0
:10511000EDD0F0E77047000070B5B8B3044690F8E2
:105120003D0028B9002084F83C00204600F002F938
:10513000242084F83D002068016821F0010101600D
:10514000016841F400410160016821F400410160FF
:1051500001F03CFC48F28041C0F21E0140F6001311
:10516000D4F804E088424FF00001C0F23D0348F259
:10517000A16C4FF0000238BF01219842C0F2010C2F
:1051800038BF0122E64538BF0A460AB1012070BD8A
:105190004DF68361C4F21B31A0FB01122168950C0E
:1051A0004B684FF4967623F03F0343EA92437543EE
:1051B00044F6D3564B60C1F262060B6AA5FB065655
:1051C000B50923F03F03E64538BF950C6A1C1A4326
:1051D0000A62CA6948F2A0664CF6FF73C0F2010683
:1051E000B64522EA03020BD801384FEA4E03B0FB62
:1051F000F3F001306FF31F30042898BF04201EE045
:10520000A368013863B119230EFB03F3B0FBF3F07D
:1052100001306FF31F3078B100F5804008E000BF27
:105220000EEB4E03B0FBF3F001306FF31F3028B1EB
:1052300000F5004003E000BF012000E00120104322
:10524000C8610868D4E9072320F0C0001043184360
:105250000860886848F2FF3204F10C0690434CCE97
:1052600018431043A5698860C86820F0FF003043E8
:105270002843C860086840F0010008600020202131
:10528000206484F83D10206384F83E0070BD000067
:105290007047000080B54CF26841C2F201010A7803
:1052A000E2B10B1D04E000BF013A03F1040315D085
:1052B000D3F800C0DCF800108142F5D1D0F844E00A
:1052C0009CF804108E45EFD1DCF81020002A08BFAE
:1052D00080BD6046BDE88040104700BF80BD000033
:1052E0007047000080B54CF26841C2F201010A78B3
:1052F000E2B10B1D04E000BF013A03F1040315D035
:10530000D3F800C0DCF800108142F5D1D0F844E0B9
:105310009CF804108E45EFD1DCF81020002A08BF5D
:1053200080BD6046BDE88040104700BF80BD0000E2
:10533000704700002DE9F04786B00446016845F645
:105340000000C4F20000814202D006B0BDE8F08740
:10535000002643F630050196C4F20205296846F29C
:10536000400841F0200129602968122201F0200143
:10537000019101990321019104910421059100F506
:10538000DE3001A9C4F20208CDE90226FFF728FAAF
:10539000009628694FF0606A40F48000286128690F
:1053A00040F6605500F4800000900098C2F20005BD
:1053B0004FF480694FF400372846C5E9008AC5E9F3
:1053C0000266C5E90496C5E90666C5E90876FEF7F2
:1053D000E1FF002818BFFDF705FAA563AC634DF6A1
:1053E000307508F17800C2F201054021C5E9000AD4
:1053F00005F1080080E842022846C5E90566C5E9CE
:1054000007676E62FEF7C6FF002818BFFDF7EAF9CE
:105410002120052100226563AC6300F0DBF8212028
:1054200000F0C4F822200521002200F0D3F8222049
:1054300000F0BCF806B0BDE8F0870000704700003F
:105440007047000040F208004EF2BC21C2F200009A
:10545000C2F2010100780A68104408607047000039
:1054600080B543F60040C4F20200016841F40071C7
:105470000160016841F480610160016841F480715C
:105480000160032000F0D2F8052000F005F800F0DC
:1054900061F8002080BD000070B586B0002543F69D
:1054A00040010195C4F202010A68044642F4807288
:1054B0000A60096801A801F48071019101996946A7
:1054C00001F05EFA049E002E18BF012601F07EFA5C
:1054D0004DF68361B040C4F21B31A0FB01014FF0D7
:1054E000FF3000EB91414EF2A80042F20002C2F2FE
:1054F0000100C4F2000240F2E733C0E90021C0E934
:1055000002530561856102F00DF9054610B1284688
:1055100006B070BD4EF2A800C2F2010002F0FEF922
:1055200005460028F3D12D2000F040F80F2C0DD8AF
:105530002D2021460022002500F04CF840F20C00FE
:10554000C2F200000460284606B070BD012528465E
:1055500006B070BD80B582B0002043F640010190D6
:10556000C4F202014A6842F480424A604A6802F486
:1055700080420192019A00900868002240F0805019
:10558000086008680F2100F08050009000986FF0CC
:10559000010000F01FF804200621002200F01AF894
:1055A000042002B0BDE88040AFF30080002848BF6F
:1055B0007047C1B200F01F00012202FA00F04EF263
:1055C0000012CEF2000242EAD10121F0030108608C
:1055D0007047000010B54EF60C5CCEF2000CDCF803
:1055E0000030C3F3022E8EF00704042C28BF0424DD
:1055F000BEF103034FF0FF3E0EFA04F438BF002360
:10560000A14399400EFA03F39A43114300F00F02AD
:1056100000F160430901043A03F564436244002841
:1056200048BF02F10C03197010BD00004EF60C517A
:10563000CEF200010A684FF6FF031A4060F30A2217
:1056400042F0806040F0FD700860704770470000D5
:1056500002680020516270472DE9F043D0F80090B5
:10566000D9F82400A1B1D9F82830B1F1010800EB34
:1056700013435DD0A8F10100C0B2032808F0030C69
:105680000ED24FF0010E0027BCF1000F33D14FE0D6
:1056900040EA0240C9F828000020BDE8F08300BFBE
:1056A00008F0FC0E09F1F404002009F5827500BF32
:1056B00054F8107F064603EB174046F00103DBB2B7
:1056C00046F0020755F82330FFB255F8277000EB7B
:1056D000134000EB174346F00300C0B255F820100A
:1056E000301DC7B2774503EB1143E1D106F1050E3A
:1056F000BCF1000F1CD009EB8700D0F80401BCF10D
:10570000010F03EB104313D05FFA8EF009EB80001A
:10571000D0F80401BCF1020F03EB104308D00EF1E6
:105720000100C0B209EB8000D0F8040103EB104384
:1057300043EA024009EB8801C1F804010020BDE8FA
:10574000F0830000D0F8E00409F04EBE01EBC10286
:10575000D0F8E03400EB8200026A184609F0ACBDD4
:1057600001EBC102D0F8E03400EB8200D0F86022F7
:10577000184609F0FDBD0000D0F8E00409F036BE7F
:1057800010B5044648B2B0F1FF3F01F00F0000EB46
:10579000C00104EB810205DD02F51571002382F8DA
:1057A000553203E0012302F11401537594F8942457
:1057B0000870012A04BF022010BD2068012284F86D
:1057C00094240AF0EFFB002084F8940410BD00003C
:1057D000B0B50279044601F00F00904284BF012069
:1057E000B0BD49B2B1F1FF3F0ADD00EBC00104EBEF
:1057F000810202F51571002382F8553208E000BFDE
:1058000000EBC00104EB8102012302F11401537586
:1058100094F894240025012A8D70087004BF02209A
:10582000B0BD2068012284F894240AF0A7FE28461F
:1058300084F89454B0BD000001F00F0101EBC101E8
:1058400000EB8100D0F868027047000070B5064692
:1058500048B2B0F1FF3F01F00F0000EBC00107DDDF
:1058600006EB810404F51571002584F8555206E015
:1058700006EB810C01240CF114018CF815404D78D5
:105880006FF3DF22002D08708A600B7118BF488308
:10589000022B04BF0020487196F89404012804BF2D
:1058A000022070BD3068012286F894240AF01EFAA6
:1058B000002086F8940470BD10B501F00F0404EBCD
:1058C000C40100EB810E4FF0000CCEF868C28EF8D8
:1058D00055C290F806C0CEF86022CEF86432BCF112
:1058E000010F8EF8544208BFCEF8702200680EF502
:1058F000157162460AF08CFE002010BDB0B504465A
:10590000007901F00F05854284BF0120B0BD48B287
:10591000B0F1FF3F0ADD01EBC10004EB800000F5B0
:105920001571002280F8552208E000BF05EBC50084
:1059300004EB8000012200F11401427594F89404F4
:10594000012201288A700D7004BF0220B0BD2068BA
:1059500084F894240AF03CFE25B1002084F89404D5
:10596000B0BD00BF2068A17904F29C420AF0D8FDC6
:10597000002084F89404B0BD80B501F00F0C0CEB4E
:10598000CC0100EB810E714601F814CF4FF0000CF2
:10599000C1F814C04FF0010C81F801C090F806C0A6
:1059A000CA60BCF1010F0B6108BFCEF8302000685F
:1059B00062460AF02DFE002080BD00002DE9F04F68
:1059C00089B00568064628460BF034F810B109B0D6
:1059D000BDE8F08F30680BF05BF80028F7D0D5F801
:1059E0000808C0F30D213068C6F8D4140BF050F845
:1059F00001463068890703D5416901F00201416120
:105A000005F500670BF044F801463068C9060896B2
:105A100004953CD5816921F0100181612C6AC4F3A1
:105A20004340062804F00F051AD0022829D147F672
:105A3000F07014EA000824D005EBC50006EB8009DD
:105A4000D9F860124FEA1814049822460BF024F893
:105A5000D9F8600200EB1810C9F8600208E000BF36
:105A6000049806F29C4108220BF016F8C4F30A14BD
:105A700005EBC50006EB8000D0F868122144C0F8A1
:105A800068123068816941F010018161049D0397BB
:105A90000AF0FEFF000340F1EB80089800680AF06E
:105AA000D5FF002800F0E480064608984FF43064E3
:105AB00000F29C4100F51D784FF0000B079118E0B3
:105AC0002819022181605FEA8A6042BF28192021DB
:105AD00081605FEA8A4042BF28194FF4005181601B
