:020000040800F2
:1000000038A801209D01000889C300085194000808
:1000100015C20008591E0008CD3301080000000079
:1000200000000000000000000000000011D80008DF
:10003000692F000800000000C1CF0008A1DD000802
:10004000B7010008B7010008B7010008B7010008B0
:1000500065310008B7010008B7010008B7010008C2
:10006000B7010008A5300008AD300008B70100084E
:100070002D2C0008392C0008B7010008B701000832
:10008000B7010008B7010008B7010008B701000870
:100090005D1E0008691E0008B7010008B5300008A1
:1000A000B7010008B7010008B7010008B701000850
:1000B000B7010008B7010008B7010008B701000840
:1000C000B70100086194000855940008D5D60008CF
:1000D000B7010008B7010008B7010008750C010856
:1000E000B7010008B7010008B7010008B701000810
:1000F000B701000889DE0008B7010008452C000898
:10010000B7010008B70100087DDE0008B70100084C
:10011000B7010008B7010008B7010008B7010008DF
:10012000512C00085D2C0008B7010008692C00085C
:10013000B7010008B7010008B7010008B7010008BF
:10014000751E0008811E0008B7010008E9C90008F3
:10015000B7010008752C0008B7010008810C0108E0
:10016000B7010008B7010008B7010008B70100088F
:10017000B7010008B7010008B7010008000000003F
:10018000B7010008B7010008DFF80CD001F096F9BC
:10019000004800475D45010838A80120064880470F
:1001A00006480047FEE7FEE7FEE7FEE7FEE7FEE75C
:1001B000FEE7FEE7FEE7FEE769DE000889010008CA
:1001C0009FED1A1AF5EE000A40EE010ABDEEE00AB4
:1001D000F5EEC00A10EE100AF1EE10FA38BF401E1C
:1001E00000EE100A1349F7EE001AB8EEC00A30EE1E
:1001F000C00ADFED0F0A20EE200AFCEEC00A10EE66
:10020000900AC0F3080000EE900A01EB8000F8EEBF
:10021000600A90ED011A70EE600A90ED000A71EE2E
:10022000E01A21EE800A00EE810A704783F9223E2F
:1002300000000044E4840108B5EEC00AF1EE10FAB3
:1002400007D2DFED1E0AB4EEE00AF1EE10FAA8BF05
:100250007047DFED1B0AB5EEC00A60EE200ABDEE66
:10026000E01A11EE100AF1EE10FA38BF401E00EE4F
:10027000100A1549F7EE001AB8EEC00A30EEC00AAF
:10028000DFED100A60EE200ABCEEE00A10EE100A64
:10029000C0F3080000EE100A01EB8000B8EE400A3F
:1002A00090ED011A70EEC00A90ED000A71EEE01AAE
:1002B00021EE800A00EE810A70470000CD024CB4A6
:1002C00083F9223E00000044E484010870B40588EC
:1002D0000E884468D1F804C05368B54208D14088FC
:1002E0004988884201BF11888D425188884203D0D5
:1002F00070BC6FF00200704705FB00F1880827D042
:1003000094ED001ADCED000A94ED010ADCED011A0F
:1003100031EE201AD4ED020A70EE211A9CED020A89
:1003200083ED001AC3ED011A94ED031ADCED031AF4
:1003300030EE800A401E71EE210A83ED020A04F1BC
:100340001004C3ED030A03F110030CF1100CD7D114
:1003500011F0030030D0B0F1004F30D200282BDD77
:10036000211F1B1FACF1040210F0010F0AD091ED08
:10037000010AD2ED010A091D121D30EE200A83ED9B
:10038000010A1B1D400817D091ED010AD2ED010AA8
:10039000401E30EE200A83ED010A91ED020AD2EDF3
:1003A000020A01F1080102F1080230EE200A83ED91
:1003B000020A03F10803E7D170BC00207047B4ECD7
:1003C000010A401EFCEC010A30EE200AA3EC010AEF
:1003D000F5D1F1E701804280436070472DE9F34F8A
:1003E00084B0049840680090486801900498B0F880
:1003F00000E04588DFEDFE0A00200290B0EE600AC2
:10040000AE4506D108884988884204BF71468645B2
:1004100004D06FF0020006B0BDE8F08F01985FEAEB
:10042000010C18BFB7EE001A3DD000BFBEEB0C01A7
:1004300017D0B1F1004F80F01F82002911DD021F9B
:1004400011F0010F1CBFC2ED010A121D4B1006D0A6
:10045000C2ED010AC2ED020A08325B1EF8D100EBC0
:100460008100BCF10102A0EC011A19D0B2F1004FD9
:1004700080F00882002A13DD031F12F0010F1CBF59
:10048000C3ED010A1B1D511008D000BFC3ED010AC6
:10049000C3ED020A491E03F10803F7D100EB820005
:1004A000BCF1010CC2D14FF000080395002D14BF20
:1004B000B0EE602A002000F0BF8100BF009908FB69
:1004C00005F001EB800B0199DBED002A01EB8000C8
:1004D0000346F0EE421AC64552D9AEEB0802ABEB2A
:1004E000850112F0010F17D001EB850191ED000A93
:1004F000B5EEC00AF1EE10FA07DDB4EEE10AF1EE56
:1005000010FA09DDF0EE401A06E0B1EE400AF4EE12
:10051000C01AF1EE10FAF5D3521031D001EB850C70
:100520009CED000AB5EEC00AF1EE10FA05DDB4EE5E
:10053000E10AF1EE10FA09DD06E0B1EE400AF4EE50
:10054000C01AF1EE10FA01D2F0EE401A01EBC5012B
:1005500091ED000AB5EEC00AF1EE10FA05DDB4EE39
:10056000E10AF1EE10FA09DD06E0B1EE400AF4EE20
:10057000C01AF1EE10FA01D2F0EE401A521ECDD19F
:10058000F5EEC01AF1EE10FA00F07381F5EEC02A14
:100590000126F1EE10FA0099D4BFB1EE620AB0EE76
:1005A000620AB4EE610AF1EE10FA1CBFAEEB08026B
:1005B000B2F1010C47D005FB08F201EB820292ED8B
:1005C000001A00BFB0EE410A05FB06F4B5EEC00A02
:1005D00000EB8404F1EE10FACCBFF0EE400AF1EE2D
:1005E000400AF4EE610AF1EE10FA28D1B5EB080CDE
:1005F00011D0BCF1004F7DD2BCF1000F0BDD00BF6C
:1006000092ED000AD1ED000ABCF1010CE2EC010A06
:10061000A1EC010AF4D129000ED0B1F1004F6AD249
:10062000002909DD94ED000AD0ED000A491EE4EC32
:10063000010AA0EC010AF5D1012002900BE0761C22
:10064000BCF1010CBED10298012804D0F5EEC02AFD
:10065000F1EE10FA7ED09BED000AB5EB08009A4649
:100660005946064622D0B0F1004F74D200281DDD55
:10067000091F10F0010F06D0F0EE400A80EEA01A1C
:1006800081ED011A091D401010D000BFD1ED010A03
:10069000401E80EE801A81ED011A91ED021AC1EE22
:1006A000000AC1ED020A01F10801EFD1280026D0AD
:1006B000B0F1004F7ED2002821DDAAF1040110F034
:1006C000010F06D0D1ED010A80EE801A81ED011AEA
:1006D000091D401013D000BFD1ED010A401E80EE6D
:1006E000801A81ED011AD1ED020A80EE801A81EDA7
:1006F000021A01E0CBE0D6E001F10801ECD1DDE91E
:1007000000124FF000095FEA0E0773D0C14504BF25
:1007100001EB860102EB850274D091ED000ADC4604
:100720005046331E35D01C46B6F1004F7ED2002C09
:100730002FDD0B1FABF1040C16F0010F0FD0F0EE04
:10074000400ADCED011AB0EE601A00EEE11A83ED0A
:10075000011A01E08DE0B1E01B1D0CF1040C7410D6
:1007600015D000BFD3ED010A9CED011A40EE410AFD
:10077000C3ED010AD3ED020A9CED021A0CF1080C3C
:1007800040EE410AC3ED020A0833641EEAD101EBD0
:1007900086012B0036D0B3F1004F72D2002B31DD31
:1007A000A2F1040CAAF1040013F0010F0CD0DCED4F
:1007B000010A00E08BE090ED011A001D40EE410AB5
:1007C000CCED010A0CF1040C5C1019D0DCED010A2F
:1007D00090ED011A40EE410ACCED010ADCED020A6F
:1007E00090ED021A083040EE410ACCED020A03E017
:1007F000000000000DE005E0641E0CF1080CE5D1DE
:1008000002EB830201EB88017F1E09F101097FF4ED
:100810007DAF009808F10108001D00900398401E6C
:1008200003907FF44BAE0299012900E058E004BF29
:1008300006B0BDE8F08F00BFB5EEC00AF1EE10FAC9
:100840007FF4E9AD04990EFB05F3002B4A684FF0E5
:1008500000010BD902EB810C9CED000AB5EEC00A39
:10086000F1EE10FA02D1491C8B42F3D88B427FF48F
:10087000D2AD6FF00400CEE5E0EC010A491EFBD1D9
:10088000EFE538E0E0EC010A521EFBD108E692EDFC
:10089000000AD1ED000ABCF1010CE2EC010AA1EC66
:1008A000010AF4D1B7E694ED000AD0ED000A491E22
:1008B000E4EC010AA0EC010AF5D1BDE6D1ED000A95
:1008C000401E80EE801AA1EC011AF7D1EEE6D3EDBE
:1008D000000A401E80EE801AA3EC011AF7D10EE741
:1008E000BCEC011AD1ED000A5B1E40EE410AE1ECBE
:1008F000010AF5D14DE7B0EC011AD2ED000A5B1EFA
:1009000040EE410AE2EC010AF5D17BE72DE9F04F18
:1009100082B0466853680193058847884B88002059
:1009200000900888874201BFB2F800C06545528830
:1009300093421EBF6FF0020002B0BDE8F08F9FED42
:10094000412A4FEA970EC7F3400B00BFDDE90002D2
:1009500002EB800A4A6898464FF00009B0EE420A5E
:10096000B4465FEA0E0025D092ED001ADCED001AC5
:1009700002EB8302DCED010A01EE810A92ED001A1E
:1009800002EB8302401ED2ED001A02EB830200EE5E
:10099000810A9CED021ADCED030A00040CF1100C34
:1009A000000C01EE210A92ED001A02EB830200EE28
:1009B000810AD9D117F0030026D0ACF10404A2EBD0
:1009C000830210F0010F08D002EB8302D4ED010A7C
:1009D00092ED001A241D00EE810A5FEA0B0013D08D
:1009E00002EB830CD4ED010A9CED001A02EBC3026A
:1009F000401E00EE810AD4ED020A92ED001A04F1C5
:100A0000080400EE810AEBD109F10100AAEC010A09
:100A10001FFA80F9486800EB8902A8F101001FFA6B
:100A200080F8B8F1000F99D1009806EB87061844BA
:100A300080B20090681E05042D0C87D102B0002002
:100A4000BDE8F08F0000000010B4B0F800C00C88C2
:100A500043684A68A44503D140884988884203D046
:100A600010BC6FF0020070470CFB00F188081DD02D
:100A700093ED002AD3ED010AD3ED021A93ED031A88
:100A800022EE002A60EE800A61EE801A21EE001A42
:100A900082ED002AC2ED010AC2ED021A82ED031AAC
:100AA000401E02F1100203F11003E1D111F0030026
:100AB00026D0B0F1004F26D2002821DD191F121FC9
:100AC00010F0010F07D0D1ED010A091D60EE800A78
:100AD000C2ED010A121D400812D000BFD1ED010A7B
:100AE000401E60EE800AC2ED010AD1ED020A01F15A
:100AF000080160EE800AC2ED020A02F10802EDD19F
:100B000010BC00207047F3EC010A401E60EE800A22
:100B1000E2EC010AF7D1F3E770B405880E88446867
:100B2000D1F804C05368B54208D14088498888424A
:100B300001BF11888D425188884203D070BC6FF08C
:100B40000200704705FB00F1880827D094ED001AD9
:100B5000DCED000A94ED010ADCED011A31EE601AB9
:100B6000D4ED020A70EE611A9CED020A83ED001AC0
:100B7000C3ED011A94ED031ADCED031A30EEC00A3E
:100B8000401E71EE610A83ED020A04F11004C3ED08
:100B9000030A03F110030CF1100CD7D111F003007C
:100BA00030D0B0F1004F30D200282BDD211F1B1FA9
:100BB000ACF1040210F0010F0AD091ED010AD2ED60
:100BC000010A091D121D30EE600A83ED010A1B1D8A
:100BD000400817D091ED010AD2ED010A401E30EE17
:100BE000600A83ED010A91ED020AD2ED020A01F1D9
:100BF000080102F1080230EE600A83ED020A03F1F7
:100C00000803E7D170BC00207047B4EC010A401E15
:100C1000FCEC010A30EE600AA3EC010AF5D1F1E721
:100C20002DE9F04F02884768B0F802804888D1F873
:100C3000049082B04FF0000A1646824207BF09882E
:100C400088456FF0020002B018BFBDE8F08F4FEA90
:100C5000980B02EB42000190C8F34000CDF8000071
:100C600009EB8A01BBF1000F33D0019801EB820C34
:100C700001EB80043B46E64601EBC2054FEA0B0060
:100C800093ED000A401E81ED000A93ED010A01EB8D
:100C900002118CED000A93ED020A0CEB021C85EDAB
:100CA000000A93ED030A05EB021584ED000A04EB3C
:100CB000021403F11003E3D10EEB820000EB82007B
:100CC00000EB8201ABF10100504307EB0B1701EB86
:100CD000001118F0030C21D03B1FA1EB82011CF086
:100CE000010F06D093ED010A01EB82011B1D81ED7E
:100CF000000A009880B100BF93ED010A01EB820465
:100D000001EBC20184ED000A93ED020A401E81ED61
:100D1000000A03F10803EFD107EB8C070AF1010089
:100D20001FFA80FA701E0604360C99D102B000201A
:100D3000BDE8F08F2DE9F05F0546002092469B4606
:100D400088460646814640241BE0284641464746E1
:100D5000224600F0E4FA53465A46C01A914110D395
:100D600011461846224600F0CBFA2D1A67EB01080F
:100D70004F4622460120002100F0C2FA17EB00097D
:100D80004E41201EA4F10104DFDC484631462A46CC
:100D90004346BDE8F09F10B5431A934209D2831829
:100DA000881803E010F8011D03F8011D521EF9D246
:100DB00010BD40EA01039B0703D009E008C9121FD8
:100DC00008C0042AFAD203E011F8013B00F8013B05
:100DD000521EF9D210BDD2B201E000F8012B491E1B
:100DE000FBD270470022F6E710B513460A460446C8
:100DF0001946FFF7F0FF204610BD10B5002200E0B5
:100E0000521C835C8C5CA34201D1002BF8D1D8B278
:100E1000E1B2401A10BD034611F8012B00F8012B76
:100E2000002AF9D11846704710B54843044617F018
:100E3000CBF9002805D00021002C02D0641E0155FA
:100E4000FAE710BD2DE9FE4F804681EA0300C00F8E
:100E50000C46009021F0004123F00045B8EB020061
:100E6000A94105D24046214690461C460B46024603
:100E700023F00040104347D0270DC7F30A00C3F307
:100E80000A510290401A019040286BDAC3F3130014
:100E900040F4801B0098924620B10023D2EB030A55
:100EA00063EB0B0B01985946C0F14002504600F02D
:100EB00027FA06460D4650465946019A00F03FFA79
:100EC00010EB08006141002487EA115284EAE773BD
:100ED0001A4340D0009A62B3019A012A4FEA07529E
:100EE00015DC001B61EB02014FF0004202EA0752E1
:100EF000CDE90042001C41F5801132462B4600F03E
:100F000076FA03B0BDE8F08F40462146F9E7001BB2
:100F100061EB0201001C41F5801300185B412018B1
:100F2000A2F5001747EB030140EAD570B6196D41F1
:100F300011E06D084FEA360645EAC0754FEA0752E0
:100F4000001B61EB0201001C41F5801149084FEACA
:100F500030000019514132462B4603B0BDE8F04F36
:100F600000F036BA0098012240000023D0EB0202C4
:100F700063EBE073009821464FEAE074B8EB0000A1
:100F800061EB0401E9E783F000435BE781F0004196
:100F900058E72DE9FE4F81EA030404F0004421F0F4
:100FA000004100944FF0000B23F0004350EA01048D
:100FB0005ED052EA03045BD0C3F30A54C1F30A556E
:100FC0002C44A4F2F3340194A0FB0254C1F31301A6
:100FD00041F48011C3F3130343F4801301FB024473
:100FE00000FB034E840A970A44EA815447EA835778
:100FF000A4FB076802958D0A05FB07854FEA932C31
:1010000004FB0C542705029D4FEA065847EA1637A1
:10101000B5EB08056EEB070C870E920E47EA8117B9
:1010200042EA8312A7FB0201B6EB0B0164EB00045A
:101030002B0D43EA0C335E1844EB1C50DA46514644
:10104000E7FB0201C5F313044FEA0B3343EA1453E1
:101050004FEA0432019C43EA0603A4F10C04029413
:10106000009CCDE900B400F0C2F903B0BDE8F08FF8
:1010700000200146F9E72DE9F04D81EA030404F070
:10108000004B21F0004514464FF0000A23F00041C8
:1010900050EA050220D054EA01021DD0C5F30A57D8
:1010A0000246C5F31303C1F31300C1F30A5640F41B
:1010B000801543F48013A7EB0608101BD64608F2F0
:1010C000FD3873EB050002D308F1010801E0921826
:1010D0005B41B8F1000F03DA00200146BDE8F08D56
:1010E00000204FF48011064684460EE0171B73EB78
:1010F000050705D3121B63EB050306434CEA010CFD
:1011000049084FEA300092185B4150EA0107EDD1DF
:1011100052EA030012D082EA040083EA0501084380
:1011200005D0101BAB4106D20122002306E00022AD
:101130004FF0004302E06FF0010253101AEB06007B
:101140004CEB085110EB0A0041EB0B01BDE8F04DF0
:1011500000F03EB930B5041E71F1000404DB4FF01D
:101160000044404264EB0101141E73F1000405DBEE
:101170001C464FF00043524263EB0403801A99412E
:1011800001D3012030BD002030BD30B5041E71F107
:10119000000404DB4FF00044404264EB0101141EE4
:1011A00073F1000405DB1C464FF00043524263EB31
:1011B0000403101A8B4101D2012030BD002030BD44
:1011C00030B5041E71F1000404DB4FF000444042CE
:1011D00064EB0101141E73F1000405DB1C464FF0A3
:1011E0000043524263EB0403801A994101D201206B
:1011F00030BD002030BD0EB5C10F80EAE07008445C
:10120000CA07002140F233438DE80E000A460B4620
:1012100000F0EDF803B000BD0EB540F2334102918D
:101220000021CDE900110A460B4600F0E0F803B0BA
:1012300000BD70B5C1F30A5201F000450024C1F3AE
:10124000130140F2FF3341F480119A4201DA002089
:1012500070BD40F233439A42A2F2334203DC524261
:1012600000F05DF800E090402C43F1D0404270BDAA
:10127000C1F30A5210B5C1F3130140F2FF3341F438
:1012800080119A4201DA002010BD40F233439A42A5
:10129000A2F2334203DC524200F041F810BD90400C
:1012A00010BD00F0004230F000400AD0C10D01F541
:1012B0006071C0F3160042EA0151C20840071143B1
:1012C000704700200146704701F0004330B421F020
:1012D000004150EA010206D00A0DA2F56072C1F386
:1012E0001301002A02DC30BC00207047440F44EA9E
:1012F000C104C100E01830BC00EBC25000F031B8AE
:10130000202A04DB203A00FA02F1002070479140C5
:10131000C2F1200320FA03F3194390407047202ABA
:1013200004DB203A21FA02F00021704721FA02F38F
:10133000D040C2F120029140084319467047202A4C
:1013400006DBCB17203A41FA02F043EAE07306E0ED
:1013500041FA02F3D040C2F12002914008431946FD
:1013600070470029A8BF7047401C490008BF20F003
:101370000100704710B4B0FA80FC00FA0CF050EA9B
:10138000010404BF10BC704749B1CCF1200421FA1C
:1013900004F411FA0CF118BF012121430843A3EB17
:1013A0000C01CB1D4FEA00614FEA102042BF002024
:1013B00010BC704700EBC35010440029A4BF10BC00
:1013C0007047401C490008BF20F0010010BC704766
:1013D00010B5141E73F1000408DA401C41F100013D
:1013E00092185B411A4301D120F0010010BD2DE994
:1013F000F04D92469B4611B1B1FA81F202E0B0FA8B
:1014000080F220329046FFF77BFF04460F4640EA09
:101410000A0041EA0B0153465A46084313D01146CD
:1014200053EA010019D0C8F140025046FFF777FF98
:1014300005460E46504659464246FFF761FF0843AF
:1014400005D0012004E020463946BDE8F08D00209B
:10145000054346EAE0762C4337430A986305E40ADD
:10146000A0EB08000022FD0A44EA47540A3002D5E6
:1014700000200146E9E7010510196941DDE9084549
:1014800000196941BDE8F04DA2E7000030B5041E27
:1014900071F1000404DB4FF00044404264EB0101B1
:1014A000141E73F1000405DB1C464FF0004352424A
:1014B00063EB04038B4208BF824230BD064C074DEC
:1014C00006E0E06840F0010394E807009847103414
:1014D000AC42F6D3FEF75CFE449501088495010802
:1014E00070B58C1810F8015B15F0070301D110F8E6
:1014F000013B2A1106D110F8012B03E010F8016B13
:1015000001F8016B5B1EF9D12B0705D40023521E95
:101510000DD401F8013BFAE710F8013BCB1A921CFD
:1015200003E013F8015B01F8015B521EF9D5A142FB
:10153000D8D3002070BD0000B0EEC00A7047000094
:10154000D0F83510426A41F6CC4390F82800C2F238
:101550000003187100208882D1F817001A60012258
:101560008A7501F001BE00002DE9F0470DF12C0E47
:101570000F78DDF83CC09EE85042DDE909A8089DDF
:101580003FB187704F7827B147708978002918BF1D
:10159000017002F0070205F00F056FF3DF266FF30D
:1015A0009F2463F38912D0F80B1042EA852244EAA3
:1015B00086234FF6C77442EA8A32C0F27F046FF383
:1015C0009F2122406FF3DF2E42EAC85241EA8E216A
:1015D00043EA495341EA4C512032C0F80730C0F881
:1015E0000B10C0F80320BDE8F08700002DE9F04F94
:1015F00081B02DED108B82B00C4640F2D061C2F26A
:1016000000014CF2B03A0860C2F2010A00208AF8E8
:10161000000011F073FF9AF8001008438AF80000E8
:1016200012F020F89AF8001040EA01008AF8000051
:1016300084B301F0E9FB8AED050A01F0E5FB9AEDC0
:10164000051AB2EE08AA30EE410AB4EE4A0AF1EEEB
:1016500010FA41DD43F6AC0041F2B061C3F622302E
:10166000C3F6CE1141F23F62CAE9120100209FED9C
:10167000B00AC4F21B12C4F22020CAE91412CAF83C
:101680003C009FEDAC1A9AF8000081EE000A8AED4A
:10169000110A1AE043F6AC0148F6C437C3F622310A
:1016A000C3F6817741F2B06241F23F63CAE911713A
:1016B0000021C3F6CE12C4F21B13C4F22021CAE9E2
:1016C0001322CAF85430CAF83C10C0B202B0BDECC4
:1016D000108B01B0BDE8F08F9FED978A9FED97CA00
:1016E000DFED979A9FED979AB6EE00BA0024B4EE1C
:1016F00000DAB3EE07FAB0EE48EA0AE001F084FB44
:101700009AED051A30EE410AB4EE4A0AF1EE10FAEB
:10171000A0DC9FEDF90A01F005FB4FF0000BCAE9D0
:101720001244CAE9144400BFCDF804B000F0F2F945
:10173000922000F0F9FA922000F0F6FA552000F01D
:10174000F3FA8046552000F0EFFA0546552000F0E8
:10175000EBFA8146552000F0E7FA0746552000F0E5
:10176000E3FA0446552000F0DFFA064600F0CAF915
:1017700048EA052000B200EE100A4CF21000C2F256
:10178000010090ED011A49EA072000B202EE100AAA
:1017900044EA062000B2B8EEC00AB8EEC22A03EE50
:1017A000100A21EE000A21EE022AB8EEC33A21EE19
:1017B000031A20EE003A22EE024A34EE033A21EEFA
:1017C000014A33EE043AF1EEC38A8AED090A9AED32
:1017D000150A8AED0A2A8AED0B1AD34638EE800ADA
:1017E0008AED150A00F0A6F9802000F09DFA552038
:1017F00000F09AFA0446552000F096FA552000F0C1
:1018000093FA8146552000F08FFA0646552000F0E5
:101810008BFA8046552000F087FA0546552000F0E7
:1018200083FA8246552000F07FFA074600F07AF9E5
:101830000F2C39D149EA062000B200EE100A4CF212
:101840001000C2F2010090ED021AB8EEC00A9BED42
:10185000122A21EE000A48EA05208BED0C0A32EE2E
:10186000000A00B28BED120A00EE100A9BED133A4B
:10187000B8EEC00A21EE000A4AEA07208BED0D0AF5
:1018800033EE000A00B28BED130A00EE100A9BED56
:10189000144AB8EEC00A21EE000A8BED0E0A34EEAF
:1018A000000A59468BED140A019CDA46002C4BD0F5
:1018B0009BED0C0AB4EE6C0AF1EE10FAC8BFF0EE24
:1018C00040CA9BED0D1AB4EE6A0AF1EE10FAB4EEBE
:1018D0006D1AB8BFF0EE40AAF1EE10FAC8BFF0EEF4
:1018E00041DA9BED0E0AB4EE6F1AF1EE10FAB4EE87
:1018F0006B0AB8BFF0EE41FAF1EE10FAB4EE6E0AE0
:10190000C8BFF0EE40BAF1EE10FAF4EE4E8AB8BF5E
:10191000F0EE40EAF1EE10FAF4EE488AC8BFB0EEFD
:1019200068EAF1EE10FAB8BFB0EE688A1CE000BFBA
:101930003F161B41C3F51C41000000003EC32E3979
:101940009A99193E6F12033ADBED0CCADBED0EBA21
:10195000DBED0DDAF0EE6BEAF0EE6DFAF0EE6CAA6C
:10196000B0EE68EAB0EE688A3EEE480AB4EE4B0A82
:101970008AED040A3CEEEA2A3DEEEF1AF1EE10FA87
:101980003BEEEE0A8AED062A8AED071A8AED080A6E
:1019900019DCB4EE692AF1EE10FA14DCB4EE691A1F
:1019A000F1EE10FA0FDCB4EE690AF1EE10FA0ADC7F
:1019B000B0EE490A01F0B6F941F26F70844204F1C9
:1019C000010BFFF4B1AE9AED120A9AED131A9AEDDB
:1019D000152A9AED143A22EE0C2A20EE0C0A21EE7A
:1019E0000C1A23EE0C3A8AED120A8AED131A8AEDCC
:1019F000143A8AED152A00F08DF8A22000F094F92F
:101A0000A22000F091F9552000F08EF904465520EF
:101A100000F08AF9054600F075F8E000002440EA7D
:101A20005511B4EB902F4FF60000CFF6FF7018BFA2
:101A3000014300EE101AB8EEC00A20EE0D0A30EE97
:101A40000F0A8AED0F0A9AED040ABAF80C00B4EEF8
:101A50004B0A0130F1EE10FAAAF80C003FF74EAE37
:101A60009AED150A9FED251A30EE011AB0EEC11A53
:101A7000B4EE4B1AF1EE10FA3FF740AE9AED061AAB
:101A8000B4EE691AF1EE10FA3FF738AE9AED071A84
:101A9000B4EE691AF1EE10FA3FF730AE9AED081A7B
:101AA000B4EE691AF1EE10FA3FF728AE9AED121A69
:101AB0009FED132AB0EEC11AB4EE421AF1EE10FAFD
:101AC0003FF71CAE9AED131A9FED0D2AB0EEC11A26
:101AD000B4EE421AF1EE10FA3FF710AE9AED141A76
:101AE0009FED072AB0EEC11AB4EE421AF1EE10FAD9
:101AF0003FF704AEC5E500BF0AD7A33BCDCC1CC160
:101B00000AD7233C0020C4F202001021012202F077
:101B1000FDBF00000020C4F202001021002202F0EC
:101B2000F5BF000040F20040C4F202000121012292
:101B300002F0ECBF40F20040C4F20200012100229A
:101B400002F0E4BF70B50446FFF7E4FF922000F016
:101B5000EBF8922000F0E8F8552000F0E5F84CF2A0
:101B6000B035C2F20105E870552000F0DDF82871AB
:101B7000552000F0D9F86871552000F0D5F8A8710B
:101B8000552000F0D1F8E871552000F0CDF828720A
:101B9000FFF7B8FFB5F903004CF21006C2F20106D8
:101BA00000EE100A96ED011AB8EEC00A94ED082A6C
:101BB00021EE000A20EE020A84ED000AB5F90500C4
:101BC00096ED011A00EE100AB8EEC00A21EE021AD4
:101BD00021EE000A84ED010AB5F9070000EE100AB3
:101BE000B8EEC00A21EE000A84ED020AFFF7A2FF58
:101BF000802000F099F8552000F096F8E870552004
:101C000000F092F82871552000F08EF86871552088
:101C100000F08AF8A871552000F086F8E871552088
:101C200000F082F82872552000F07EF86872552086
:101C300000F07AF8A872FFF775FFE8780F2843D113
:101C4000B5F90500317800EE100AB8EEC01A96ED2D
:101C5000020A20EE011A09B394ED092AB5F907002A
:101C6000B5F9091031EE421A02EE100A94ED0A3A63
:101C7000B8EEC22A84ED031A01EE101A94ED0B4A55
:101C800020EE022AB8EEC11A32EE432A20EE010AF3
:101C900084ED042A30EE440A14E000BFB5F90700D1
:101CA000B5F9091002EE100A84ED031A01EE101ABC
:101CB000B8EEC22AB8EEC11A20EE022A20EE010ABE
:101CC00084ED042A84ED050AFFF724FFA22000F02A
:101CD0002BF8A22000F028F8552000F025F8E87035
:101CE000552000F021F82871FFF70CFFE8782979DA
:101CF000C00040EA51114FF600020023CFF6FF72F8
:101D0000B3EB902F18BF114300EE101AB8EEC00AC3
:101D1000B4EE001A20EE010AB3EE071A30EE010A03
:101D200084ED070A70BD000080B582B040F2D0613A
:101D3000C2F200010B688DF807004FF47A7C0DF1B8
:101D400007010DF1060218460123CDF800C005F089
:101D50008DFB9DF8060002B080BD00004DF6C85115
:101D600000EB8000C2F2010101EBC002137F012BE6
:101D700018BF704751F83000518B02F0BFBE000011
:101D8000F0B581B00C4609680A68D20644D505460C
:101D9000C868C00640D500270097086800904868CA
:101DA00000900098204606F045FC40F22036C2F232
:101DB000000606EB85004068017B59B1D0F80D1094
:101DC000077321B14068884706EB850040680246EA
:101DD0000CE000BFD0F80D100122027321B10068A1
:101DE000884706EB85004068024604300168B2F877
:101DF0001120204607F02AF906EB8500406880682C
:101E0000C06B0068016821F008010160206801686A
:101E1000090701D00168406801B0F0BD70B540F21B
:101E20002035C2F200052978002908BF70BD04469C
:101E3000002602E001368E420CD205EB8600406897
:101E40008068A042F6D1F0B22146FFF799FF2978C9
:101E5000F0E700BF70BD0000FEE700004DF608701F
:101E6000C2F2010001F058BC4DF60870C2F2010048
:101E700001F052BC40F60870C2F2000001F04CBC08
:101E800040F60870C2F2000001F046BC2DE9F04FA8
:101E90008DB089468246DDE91F1C19989B46059244
:101EA000DDE91D32BDF87270DDE91A56BDF86240F9
:101EB000DDF85C80CDF82A00CDF822100120272122
:101EC000ADF82840CDF82E50ADF83260ADF818705E
:101ED000CDF81A30CDF81E20ADF826C0FEF7A4FFCD
:101EE00004464FEA18200325A07255FA98F0C8F36B
:101EF0000726E07213F08CF955FA88F7E06038464F
:101F000084F8048013F084F90546C4F806003046CE
:101F1000677113F07DF9206173202870D4F80600F2
:101F200041F6957380F80180D4F80600652150FAD7
:101F300088F0C0F600038170BBF1000F18BF5B464C
:101F4000059A50464946009400F06EF80AAB2060AE
:101F50000ECBDDE90676DDE9085C41F68170C0F65E
:101F60000000CDE90047CDE90265CDF810C011F0C1
:101F700041FA01462046C4F817100DB0BDE8F08FB5
:101F800010B50446C068617DFEF72CFF0020A082DA
:101F900010BD0000F0B581B0014611F8242F0746AE
:101FA000D1F81150732A287D08D140B997F825003F
:101FB000AA7A904235D10120287500E088B36B7D64
:101FC00097F83020EE7AD418E868B44202D919465E
:101FD00023E000BF1844FEF7DEFE97F83000697D6D
:101FE000EB7A0A18D1B299426A751AD1E86850FAA8
:101FF00082F212F8012C652A0FD12B69AA7A811C72
:102000001846FEF7C8FE0020A882D5F81700012167
:10201000A97501F0A9F8E868697DFEF7E3FE0020E4
:10202000A88201B0F0BD00002DE9F0438BB00E4650
:10203000DDF848900546012039211F469046FEF7FD
:10204000F3FE04464660E6614DF60876C4F831704A
:10205000C2F201064CF234270820B542C2F2010751
:1020600060612560C4F82C80C4F8359084F8300095
:1020700002D0387801303870797807EB810004623B
:10208000481C787009BB4DF60875C2F20105284658
:1020900001F054FE2846022101F0B6F9284610212D
:1020A00001F0B2F940F60875C2F20005284601F0C9
:1020B00045FE2846022101F0A7F92846102101F02B
:1020C000A3F92568D4F82C807878012121EA000052
:1020D00005900E200A904FEA4810029040F29800B6
:1020E0000022C2F2000007910892B54208BFB81C56
:1020F00002780991531C037001A92846069201F049
:10210000EFF920460BB0BDE8F083000080B588B041
:10211000029100210823CDE90311059106938DF862
:102120001C10019102A901AB01F086F908B080BD35
:10213000002070470020704710B540F62C44C2F2D2
:1021400000044DF25251C2F20101204600220EF06D
:102150006BFF4CF65251C2F2010120460EF056FFC1
:10216000002010BD10B540F62C44C2F20004014618
:1021700020460EF04BFF20460EF022FF002010BD3F
:10218000002070472DE9F0410D78DDF82CE0DDE905
:102190000964DDE9078C069F3DB185704D7825B156
:1021A00045708978002918BF017002F0070107F017
:1021B0000F0263F3891141EA82214FF6C77341EAA6
:1021C0008831C0F27F036FF3DF246FF39F2619403D
:1021D00046EA842241EACC5142EA4E523831BCF1FF
:1021E000000FC0F80720C0F8031026D00C99002378
:1021F000002212E0C61842F003038F78DBB2634579
:10220000F77328BFBDE8F081CF7803440432DF7351
:10221000D3B2634501F104010FD2C61842F00103A5
:102220000F78DBB26345F77307D2C61842F002039A
:102230004F78DBB26345F773DCD3BDE8F081000073
:102240002DE9F04F83B00746A52040F627298DF8E9
:1022500004003320C2F20009ADF8050099F800002F
:1022600015460E468DF8070001A80421FF22984666
:1022700012F02EF940F2C931C2F2000140F6A81462
:102280008DF8080040F2013091F800A0C2F200047D
:10229000ADF8090004F13A0045210AF5807BFEF70C
:1022A000A1FDDDF807000199C4F803004FF4887020
:1022B000A4F807000C982160C4F81D000D983A217D
:1022C000C4F821000E984FF6FF72C4F825000F984D
:1022D000A4F809A0C4F829001098A4F80BB0C4F819
:1022E0002D001198C4F80D70C4F831001298C4F88C
:1022F0001160C4F835001398C4F8155084F83900FB
:102300002046C4F8198012F07BF860874EF2101056
:10231000C2F2010021463C2207F038F899F800008B
:10232000411C002089F8001003B0BDE8F08F0000C8
:102330002DE9F04F8BB048F60A70C0F601004169F4
:102340008269C7694FF4A02C4425066A446AD0F814
:1023500028E04DF6087042F219634FF00009CDE90C
:10236000085C44F64275C2F20100C0F60003C5F2F3
:102370004125CDE90091CDE9022740F201114FF44A
:102380008872CDF82890CDE904640795CDF818E05F
:10239000FFF77CFD40F23038C2F20008C8F80800B0
:1023A00035A00A210BF0D8FBC8F80C0036A010218C
:1023B0000AF04CFEC8F8100036A01D210BF0CCFB33
:1023C000C8F8140035A00C210AF040FEC8F8180027
:1023D00048F6D060C0F601004169446A826944F25F
:1023E000534AC4F24F7ACDE9009102A905944DF603
:1023F0000874C569076A866A41F241530AF101000F
:10240000A4C107A9C2F20104C0F600034FF4202BB7
:1024100081E8010A204600214FF49072CDF82890FF
:102420000696FFF733FDC8F81C0048F64470C0F666
:10243000010041698269C769066A456A806A43F298
:10244000D133C0F60103CDE90091CDE90227069012
:10245000204600214FF49872CDE9089BCDF82890D2
:10246000CDE90465CDF81CA0FFF710FDC8F82000E9
:102470000BB0BDE8F08F00BF636861737369735F71
:102480006665656400000000636861737369735F6B
:10249000636D64007265666572656500726C737366
:1024A000656E640070B52DED048BCCB04CF26C44BD
:1024B0009FED4B8A9FED4B9AC2F2010404F150004C
:1024C000B0EE480AF0EE490A002100260BF02EFB80
:1024D0004CF26055C2F201052846B0EE480AF0EE13
:1024E000490A00210BF022FB9FED3F0ADFED3F0A76
:1024F00005F11C0000210BF019FB48F6CC7139AD39
:10250000C0F6010128464A22FEF745FC284600F0A5
:10251000DDFA48F6807126AD2060C0F6010128463C
:102520004A22FEF738FC284600F0D0FA49F218019A
:1025300013AD6060C0F6010128464A22FEF72BFC6D
:10254000284600F0C3FA49F264016D46A060C0F667
:10255000010128464A22FEF71EFC284600F0B6FA82
:1025600040F24045E060C2F2000521A00A21C5E921
:102570001A66A5F870600AF069FD686020A0102155
:102580000BF0EAFAA8602068C4E90466A661E66177
:1025900000F06EFAE06800F06BFA606800F068FA2C
:1025A000A06800F065FA9FED190ADFED190A9FEDAA
:1025B000191A20460121012209F0C6FC49F69A1099
:1025C0004BF62F21C3F61950CBF66851C5E903012C
:1025D00008F05CF868614CB0BDEC048B70BD00BFC6
:1025E000A69BC43B8FC2F53C626A1A3CFB04C13D0A
:1025F000636861737369735F6665656400000000FA
:10260000636861737369735F636D64002B18153CB5
:102610000000AF433333333F416A826AD0F835302C
:1026200040F23030C2F20000C0E90A120020988265
:10263000D3F817000121997500F096BDF0B581B06F
:1026400040F24044C2F200044CF26C46A068C2F270
:10265000010606F110010BF077FA012802D1707F14
:10266000012803D10020307446E000BF4CF29030C6
:10267000C2F20100D0F819109FED451A00EE101AB1
:10268000B5EE400AF1EE10FA02BF4FF07E51C0F8ED
:102690001910B7EE000A03203074D6F8110020EEAE
:1026A000011A02EE100A21EE021AD6F8151084ED76
:1026B0000C1A9FED381A41F6CC40C2F20000D6F851
:1026C000192002EE101A20EE013A407823EE022A79
:1026D00084ED0D2A00F01E0002EE102AB7EE003A3B
:1026E000042808BFB0EE403A22EE010A20EE030AA9
:1026F000012084ED0E0AF077306800F0DFF9716890
:102700000546084600F0DAF9B0FA80F04709B068EB
:10271000002D08BF013700F0D1F90028F06808BF8C
:10272000013700F0CBF9002808BF0137F8B20228C2
:102730000CD30020207030740BF07EF8307C60B138
:1027400011F036FF11F098F80AE000BF0120207068
:102750000BF072F8307C0028F2D10020C4E9180098
:1027600040F6087004F16002C2F200004FF40071FC
:1027700000F086F92078327C04F8680F54F8640C75
:102780002146627001B0BDE8F0400AF04BBC00BFCA
:102790003EC32EBA3EC32E3AB0B540F23034C2F238
:1027A0000004A068D0F81700007D012832D194F809
:1027B0005C0018B994F82F0084F85C00B4F92A3052
:1027C000B4F9282000EE103AB8EEC00AB4F92C5043
:1027D00010EE103A00EE102AB8EEC00A10EE102AE1
:1027E00000EE105A0121C4F85330B8EEC00A94F834
:1027F0002E3021700021C4F84F2010EE102A84F8EA
:102800004E10C4F8572084F85B3084F85D1058B936
:1028100021E000BF0120002184F85B0094F85C00F7
:102820002170A162A185B0B10021022821700BD0D6
:10283000012810D16088013001B214296080A4BF42
:10284000022084F85C0006E0A088013081B20A29E9
:10285000A08000F08B80E06804F138010BF074F97F
:1028600094F83800012807D1032084F84E00042092
:1028700084F85D0004E000BF0020207084F84E0062
:102880000AF0AEFE4CF290356069C2F201052946AD
:102890000BF05AF9287801281ED1B5F80900B5F8CF
:1028A0000F10A4F84B00D5F80B00A4F84510697878
:1028B000B5F80720C4F84700012084F83210E286FA
:1028C000B5F80510B5F8032084F84200A878891AF5
:1028D00084F83300A18603E00021A87884F8421030
:1028E00084F84D00A06904F142010AF09BFBA8782E
:1028F0000238C0B2082805D81FA101EB800090ED76
:10290000000A01E0B7EE000A207810EE101AC5F8B0
:10291000191058B1022000F077FC9FED201A20EE2C
:10292000010ABDEEC00A10EE100A0BE000200121E2
:10293000C4F85A00C4F85600C4F85200C4F84E0057
:1029400084F85B1024F8300F54F8200C04F11E01B9
:102950000AF068FB4DF60870C2F2010040F2011166
:102960002246BDE8B040FFF7D1BB00BF012080F395
:10297000138810F0ADFD00BFC3F5883F85EB913F94
:1029800048E19A3F0AD7A33F713DAA3FD7A3B03F82
:102990003D0AB73FA470BD3FB81EC53F0000484385
:1029A0002DE9F0410F78DDE909ECDDE90754DDF8A8
:1029B00018803FB187704F7827B147708978002918
:1029C00018BF0170D0F8031043F6FF7602F007023B
:1029D000D0F80B70B14308F00F0663F389126FF360
:1029E000DF246FF39F2542EA862245EA84231144BF
:1029F000BA0A43EA4E5362F39F2C1031C0F80BC061
:102A0000C0F80730C0F80310BDE8F08191ED010A6D
:102A100091ED021A90ED012A90ED023A21EE021A90
:102A200020EE030A31EE400A82ED000A90ED000A22
:102A300090ED021A91ED002A91ED023A22EE011A70
:102A400023EE000A31EE400A82ED010A91ED000A00
:102A500091ED011A90ED002A90ED013A21EE021A53
:102A600020EE030A31EE400A82ED020A70470000B0
:102A7000022180F84D107047002180F84D107047FA
:102A800080B582B013881BBA4FEA134C5388ADF857
:102A900000C01BBA4FEA134C9388D2881BBA12BAF3
:102AA000120C1B0CADF806206A46ADF802C0ADF85A
:102AB0000430FFF72BFB02B080BD0000D0F82600E9
:102AC000007D0138B0FA80F040097047F0B585B05C
:102AD0000546592012F09CFB59210446FEF782F965
:102AE000D5F846102A78D5F84200C4F85510D5F824
:102AF0000E10C4F85100901E0228A1F1010084F8C4
:102B000050200FD2C2B2032A1CD8D5F80A304DF695
:102B10000876C2F201060421B34208BF012102F285
:102B200001222AE0012A30D1C2B2032A18D8D5F8EE
:102B30000A104DF60873C2F20103C91A18BF032127
:102B400019E000BF481FD5F80A104DF60873C2F20D
:102B50000103C91A18BF032102F201220DE000BFD0
:102B6000D5F80A304DF60876481FC2F20106052155
:102B7000B34208BF022102F2052284F84F0084F814
:102B80004E10D5F80E10C5F8122042F66D73D5F828
:102B90000A00D5F81220C0F60003C5F81630C5F8B3
:102BA0001A400094FFF740FAC4F82200681C04F1B0
:102BB0002A0611F0BBF8014630462322FEF7EBF857
:102BC00042F6792040F60002D5F82210D5F82A30D6
:102BD000D5F83A70C0F60000C4F202024FF00F0CB4
:102BE000C5F81E00C5F82620C5F83EC0D5F83260ED
:102BF000D5F836E0C5F82E408DE85040CDE9037C8D
:102C000010F0F8FB40F20841C2F20001C4F82600BF
:102C100028890A782084501C087001EB8200012169
:102C20004460204684F84D1005B0F0BD40F6F070C9
:102C3000C2F2000001F088BB40F63070C2F2000022
:102C400001F082BB4DF63070C2F2010001F07CBB96
:102C500040F69070C2F2000001F076BB4DF6F070C5
:102C6000C2F2010001F070BB4DF69070C2F201009B
:102C700001F06ABBB0B541F25004C2F2000446F262
:102C80000C452046C4F2020501F05EFB4EF2101026
:102C9000C2F20100202180F84110012084F83500A3
:102CA000216805F14C0081420CD94FF400102860D6
:102CB0004FF4801028604FF400202860002084F832
:102CC0003400B0BD46F20800C4F2020000F1B002C8
:102CD00091420FD94FF40011C0F800144FF4801145
:102CE000C0F800144FF40021C0F80014002084F84C
:102CF0003400B0BD00F1500291424FF4001394BF74
:102D00000360436091424FF4801394BF03604360BB
:102D100091424FF4002194BF01604160002084F88B
:102D20003400B0BD41F204004CF29422CEF2000017
:102D3000C2F20102016892ED011AB8EE411A21EEC9
:102D4000000A16E00268521A01EE102AB8EE411A83
:102D5000B4EE410AF1EE10FAD8BF70470268521A79
:102D600001EE102AB8EE411AB4EE410AF1EE10FA63
:102D700015DD0268521A01EE102AB8EE411AB4EEBF
:102D8000410AF1EE10FA0ADD0268521A01EE102A29
:102D9000B8EE411AB4EE410AF1EE10FAD2DC7047F7
:102DA00010B582B041F2040CCEF2000CDCF8001039
:102DB00000914CF29421C2F20101DDF800E00368B9
:102DC0004A68009C0460087880B901200870DCF82B
:102DD0000000019001984C69A04202D208690130BC
:102DE0000861DCF80000486100200870AEEB0300C9
:102DF00000EE100A01EE102AB8EE400AB8EE411AB1
:102E000080EE010A02B010BD2DE9F04383B041F21B
:102E10000401CEF20001086801904CF29420C2F245
:102E20000100027872B9012202700A680292029AC5
:102E300043699A4202D20269013202610968416122
:102E400000210170D0E90169D0E90380019F0024CD
:102E50004FF0FF31E0FB0174384621463246002333
:102E6000FDF768FF0546A0FB060201FB06213E1A9E
:102E70008C41304621464A460023FDF75BFF87B26E
:102E800007FB09F0301A64F1000142460023FDF708
:102E900051FF01EE107A9FED0D2A00EE105AB8EEA8
:102EA000411A80B2B8EE400A21EE021A31EE000A51
:102EB00001EE100A9FED062AB8EE411A21EE021A21
:102EC00030EE010A03B0BDE8F08300BF6F12833A11
:102ED000BD37863510B581B044F24021C0F20F01F4
:102EE00000FB01F244F6D350C1F262004EF6FC51F1
:102EF000A2FB0003CEF20001086841F2040CCEF2FE
:102F0000000C40F080704FF0000E0860CCF800E03C
:102F10004DF683605CF8041CC4F21B30A2FB000475
:102F200041F001004CF294214CF8040CC2F2010172
:102F30009809A30CC1E90120C1E9033E087808B152
:102F400001B010BD01220A70DCF80000009000986A
:102F50004B69984238BF0A61DCF8000048610020E4
:102F6000087001B010BD000070470000B0B5D0F887
:102F700035500446D5F8260000F0F6F8A08C95F8F8
:102F8000503000BA000C2880E18C032B09BA4FEABC
:102F90001142A5F80520218D09BA4FEA1141A5F883
:102FA000071014BF94F82A4000246B886C72C31A6F
:102FB0001BB2834208D12C79012C11D1B3F57A6F61
:102FC00007DD4FF6FF7308E001242C71B3F57A6F2B
:102FD000F7DC13F57A6F03DA01236C8923446B81E4
:102FE000B5F90A302C8C00EB43331C1B00EE104A61
:102FF0009FED1B1AB8EEC00A20EE010A10EE104A2F
:10300000EC61EC689FED170A01EE104A12B221EE56
:10301000000A01EE102A9FED142AB8EEC11A21EE23
:10302000021A30EE010A10EE102AEA602A699FEDBA
:103030000F0A01EE102A09B221EE000A01EE101A61
:103040009FED0B2AB8EEC11A21EE021A30EE010AEA
:1030500010EE101A6B612961AB616880B0BD00BFD2
:103060000000343DD0CCCC3D6666663FD0CC4C3DB4
:103070003333733F90ED000A90ED011A91ED003A61
:1030800091ED014A90ED022A91ED025A23EE000AD9
:1030900024EE011A31EE000A25EE021A30EE010A82
:1030A00070470000082001F049BC0000102001F02A
:1030B00045BC0000202001F041BC000072B600BFFA
:1030C000FEE7000080B543F61043C4F20203D3F8D4
:1030D00000C04FF4407E2CF440721A601A68032935
:1030E00038BF4FEA012E42EA0E011960196821F03B
:1030F000F8011960196841EAC00040F00200186048
:10310000186840F48030186080BD000043F600402D
:10311000C4F20200016889050FD5016821F400712D
:103120000160016841F400610160016821F40061FF
:103130000160016841F4007101600168490558BFF0
:103140007047016821F480610160016841F4805199
:103150000160016821F480510160016841F48061DF
:103160000160704701F0E8BA10B5044600206062C3
:10317000206A0121217538B1E16929B1884701210F
:10318000002808BF02212175E068002808BF10BD93
:10319000618A0122BDE8104001F0B8BC2DE9F0437E
:1031A0000E78DDE90C8CDDE90A75DDE9089E079CE7
:1031B0003EB186704E7826B146708978002918BFD6
:1031C000017002F0070104F00F0263F3891141EA74
:1031D00082214FF6C77341EA8931C0F27F036FF352
:1031E0009F276FF3DF25194047EA852241EACE5138
:1031F00042EA48522831C0F80720C0F80310C0F84E
:103200000BC0BDE8F08300004CF6C401C2F201011E
:1032100001EB800090ED1B0A7047000083B02DE9A0
:10322000F04F84B006460DA80EC040F627210DA829
:10323000C2F200010190A520C6EB061B09788DF8AB
:1032400008000BF10600ADF809008DF80B1002A87C
:103250000421FF2211F03CF9741E8DF80C0040F29D
:103260000130062CADF80D0005D8E0B2532121FA4B
:1032700000F0C00706D14FF0FF3004B0BDE8F04FBA
:1032800003B0704740F2C93140F6A81949F2E8008E
:10329000C2F20001C2F20009C0F601000D7809F186
:1032A0000D0730F814A03846722105F58078FDF737
:1032B00099FDDDF80B000299A9F80950019DA9F8C4
:1032C0000B80032C06F00308C9F80300C9F80010AE
:1032D000A9F807A00AD20124002040F62727C2F24D
:1032E0000007B8F1000F46D16EE000BF4FF6FC704A
:1032F000C7F6FF7006EA000400200021C0EB0010B2
:103300008A46384429460F22FDF745FD4AF0010060
:10331000C0B2C0EB0010384405F110010F22FDF7D8
:103320003AFD4AF00200C0B2C0EB0010384405F18B
:1033300020010F22FDF72FFD4AF00300C0B2C0EBC1
:103340000010384405F130010F2205F14006FDF769
:1033500022FD0AF10401C8B2043C3546CED1C0EBCF
:1033600000100AF10504354640F62727C2F200078F
:10337000B8F1000F28D048440D3029460F2205F13E
:103380001006FDF708FDB8F1010F1DD0E0B2C0EB4B
:10339000001048440D3031460F22C24605F1200886
:1033A000FDF7F9FCBAF1020F02D146460CE000BF6E
:1033B000601CC0B2C0EB001048440D3041460F22E3
:1033C00005F13006FDF7E7FC0BF10D0148464FF61D
:1033D000FF72019611F014F809EB0B01A1F80D0032
:1033E0000BF10F0082B24EF21010C2F201004946FA
:1033F00005F0CCFF387801303870002004B0BDE80B
:10340000F04F03B07047000090F82020013A012AE5
:1034100008D8006800F114020020136819431160F5
:10342000704700BF00F1240201204FF4802113688F
:10343000194311607047000010B590F820E0D0F8F3
:1034400000C0AEF1010EBEF1010FDCF808E011D8AA
:103450001EF0E05F18D0CEF3016E012000FA0EF0EE
:1034600018608B68D3B14868CC6844EAC000034355
:1034700018E000BF00F1240101204FF480220B6806
:103480001A430A6010BD00BF00F1240101204FF46F
:1034900000120B681A430A6010BD00BF0868CB68B1
:1034A00043EA40530CEB0E10C0F880310B69C0F8B2
:1034B0008431097D012905D100F5C2710B6843F4FF
:1034C00080730B605168C0F88C11126800F5C071F0
:1034D000C0F88821002001220B681A430A6010BD41
:1034E000B0B590F82020013A012A2FD846F20060AA
:1034F000C4F20000026842F001020260026822F495
:103500007C520260D1F814E0CC694A6A0368012C4D
:1035100043EA022202600EF01F024FF0010303FA99
:1035200002F2C3696FEA020C23EA0203C36113D0FB
:103530002CBBC36803EA0C03C360CB688C8844EAE5
:10354000034300EBCE0423640B4611E0416A41F4CF
:10355000802141620120B0BDC3681343C3600B6882
:103560008C8844EA034300EBCE04236401F10C038E
:103570008C681B8843EA044300EBCE046364436811
:103580008D6943EA0204D1F810E0096A002D08BFF2
:1035900003EA0C0444604369BEF1000F43EA0204ED
:1035A00008BF03EA0C040129446102D1C169114337
:1035B000C161016821F0010101600020B0BD00007F
:1035C0007047000090F82020013A012A84BF0020B3
:1035D000704700681022002908BF0C22805800F0B4
:1035E0000300704710B590F82040013C012C7BD8B7
:1035F000D0F800C0002900F08180DCF81040A4075A
:1036000000F081800CEB011CDCF8B0410CF5D87E99
:1036100014F004049460DCF8B04119BFE40854606D
:10362000640D1460DEF800400CF5DA7E04F002044C
:10363000D460DCF8B44124075ABFDEF8004004F03F
:103640000F0408241461DEF800400029C4F30724A5
:103650009461DEF800404FEA14445461DCF8B8216C
:103660001A70026802EB0112D2F8B8214FEA122256
:103670005A70026802EB0112D2F8B8214FEA1242E6
:103680009A70026802EB0112D2F8B8214FEA126276
:10369000DA70026802EB0112D2F8BC211A710268DA
:1036A00002EB0112D2F8BC214FEA12225A710268D1
:1036B00002EB0112D2F8BC214FEA12429A71026861
:1036C00002EB0112D2F8BC214FEA1262DA710068F3
:1036D00014BF00F1100100F10C01002020220B6842
:1036E0001A430A6010BD00BF00F1240101204FF40D
:1036F00080220B681A430A6010BD00BFDCF80C4042
:10370000A4077FF47FAF00F1240101204FF40012E1
:103710000B681A430A6010BD2DE9F04F81B00446D2
:1037200000684669D0F804908768D0F80CB0D0F8EB
:1037300010A0D0F81880F10704D1002530071DD45F
:1037400024E000BFF90710D00121BA07816009D435
:10375000780700F1AF80380700F1B680204600F00E
:103760001BFB02E0204600F019FB0025F80500F1E4
:103770008780F80300F1B180300707D51BF01000F7
:1037800004D0206845F400751021C160700708D589
:103790001BF0080005D020680821C160204600F019
:1037A000FFF9B00706D52068C068800702D0204620
:1037B00000F0F8F9700607D51AF0100004D0206860
:1037C00045F4806510210161B00608D51AF00800A3
:1037D00005D0206808210161204600F047FAF00674
:1037E00006D520680069800702D0204600F040FA24
:1037F000B00308D519F0100005D0206810214160F1
:10380000204600F099FAF00308D519F0080005D019
:10381000206808214160204600F0CAFA300440F1D7
:103820009B805FEA497040F1948006F4807008EA5A
:10383000102028435FEA8871014648BF41F0020129
:10384000B20558BF01465FEA48700D4648BF45F0D3
:103850000405700558BF0D46300540F17A8018F018
:10386000700000F076801038000905286CD8DFE879
:1038700000F003595D61656945F0080564E000BF2B
:1038800020684FF48071BA0581600BD4780515D497
:1038900038051DD4204600F083FAF8037FF56CAF9D
:1038A0001BE000BF204600F07DFAF8037FF564AF0F
:1038B00013E000BF4FF4006558E700BF05F5005561
:1038C000F8037FF559AF08E04FF480554EE700BF8D
:1038D00005F58045F8037FF54FAF20684FF4803140
:1038E000BA0381600AD4780310D4380314D4204674
:1038F00000F05AFA30073FF541AF47E7204600F0A5
:1039000055FA30073FF53AAF40E700BF05F50045EF
:1039100030073FF533AF39E705F5803530073FF520
:103920002DAF33E745F010050EE000BF45F0200550
:103930000AE000BF45F0400506E000BF45F0800505
:1039400002E000BF45F480752068816921F07001B4
:10395000816120680421416055B1606A40EA050137
:103960002046616201B0BDE8F04FFFF729BE00BFFD
:1039700001B0BDE8F08F0000B0B5C8B1044690F8C2
:10398000200010B9204600F071F82068016841F06D
:103990000101016001F0C0F8054600BF20684168E0
:1039A000C90707D101F0B8F8401B0B28F6D312E085
:1039B0000120B0BD016821F00201016001F0ACF806
:1039C000054600BF2068416889070DD501F0A4F8BD
:1039D000401B0B28F6D3606A052140F4003060627A
:1039E000012084F82010B0BD217E0268012922F058
:1039F000800208BF80320260617E0268012922F0E5
:103A0000400208BF40320260A17E0268012922F014
:103A1000200208BF20320260E17E0268012922F004
:103A2000100218BF10320260217F0268012922F0C3
:103A3000080208BF08320260617F0268012922F093
:103A4000040208BF04320260D4E901C2D4E903359C
:103A500061691A432A431143ACF101021143C16168
:103A600000200121606284F82010B0BDB0B586B09E
:103A7000006846F60002C4F2000200219042CDE93F
:103A80000411CDE90211019136D046F20041C4F291
:103A90000001884240F082804CF67801C2F20101B8
:103AA0000A6843F64000C4F20200531C0B6052B98E
:103AB00000210091016841F000710160016801F08E
:103AC0000071009100990021009150F8101C1524FC
:103AD00041F0080140F8101C50F8100C142500F0BB
:103AE00008000090009840F20040C4F2020000F587
:103AF0000060032136E000BF43F64000C4F202003C
:103B00000091016841F080610160016801F080610D
:103B1000009100994CF67801C2F201010A68531C29
:103B20000B6052B900210091016841F00071016001
:103B3000016801F00071009100990021009150F896
:103B4000101C412441F0020140F8101C50F8100CE8
:103B5000402500F002000090009840F200406021F3
:103B6000C4F202000191022102910021039103217C
:103B700004910921059101A900F0ECFE28460521D8
:103B8000002201F0F9FD284601F0E2FD2046052162
:103B9000002201F0F1FD204601F0DAFD06B0B0BDD3
:103BA000704700002DE9F04782B000210446FFF77E
:103BB00009FD002857D04CF2342AC2F2010A0AF15A
:103BC0000409E84606E000BF20460021FFF7FAFCA2
:103BD000002848D0204600214A464346FFF702FD10
:103BE0009AF801000028EFD0DAF80410C0F1000CB8
:103BF000A0F1010E002502E00435A842E4D00AEB52
:103C00008506376A3A68A24202D1FA6A91421CD00C
:103C1000AE45D9D0776A3A68A24202D1FA6A914297
:103C200013D00CEB0502971CCED0B76A3B68A342B9
:103C300002D1FB6A994208D00332C5D0F76A3A68CC
:103C4000A242D9D1FA6A9142D6D1DAF8142007F10A
:103C50002400694687F83020FDF79DF8D7F8311029
:103C600009B13846884702B0BDE8F08770470000C8
:103C70002DE9F04782B001210446FFF7A3FC00289C
:103C800057D04CF2342AC2F2010A0AF10409E8467C
:103C900006E000BF20460121FFF794FC002848D031
:103CA000204601214A464346FFF79CFC9AF8010052
:103CB0000028EFD0DAF80410C0F1000CA0F1010EDA
:103CC000002502E00435A842E4D00AEB8506376AF5
:103CD0003A68A24202D1FA6A91421CD0AE45D9D0CC
:103CE000776A3A68A24202D1FA6A914213D00CEB89
:103CF0000502971CCED0B76A3B68A34202D1FB6A8B
:103D0000994208D00332C5D0F76A3A68A242D9D1A5
:103D1000FA6A9142D6D1DAF8142007F124006946F4
:103D200087F83020FDF737F8D7F8311009B1384659
:103D3000884702B0BDE8F08770470000B0B5044680
:103D400090F8200001281DD1022084F8200020686E
:103D5000016821F00101016000F0DEFE054600BFB0
:103D600020684068C00713D000F0D6FE401B0B2827
:103D7000F6D3606A40F400306062052084F82000C9
:103D80000120B0BD606A40F4002060620120B0BD37
:103D900000206062B0BD0000704700007047000066
:103DA0007047000070470000704700007047000037
:103DB0007047000070B58568802D05D14FF4807183
:103DC0004165012070BD00BFC46B002C50D0446C15
:103DD000002C4DD0C46C002C4AD090F83440012CFB
:103DE0004DD0012480F8344090F83540012C43D167
:103DF000022480F8354000244465D0F800C0049CBB
:103E0000DCF8006046F20C4E46F48026C4F2020E46
:103E1000CCF80060CCF810300B46CCF80440402DB4
:103E200004BF13460A460EF14C018C45CCF808300D
:103E3000CCF80C2026D946F28841C4F202018C4508
:103E400064D046F27041C4F202018C4572D1202147
:103E5000CEF800101021CEF800100821CEF8001086
:103E60000421CEF800100121CEF80010F0E100BFCF
:103E700040214165012070BD002180F834100220EE
:103E800070BD00BF46F20801C4F2020101F1B002A8
:103E9000944519D946F21043C4F2020346F228426F
:103EA0009C45C4F2020200F08980944500F08280B3
:103EB00046F24046C4F20206B4450CBF4FF400146B
:103EC0004FF000647BE000BF01F1500246F2100E9B
:103ED00046F270039445C4F2020EC4F2020353D9B1
:103EE0009C4500F0C98046F28804C4F20204A4454F
:103EF00000F0C68046F2A004C4F20204A4450CBF40
:103F00004FF400144FF000644C60C2E04FF40061C5
:103F1000CEF800104FF48061CEF800104FF400711D
:103F2000CEF800104FF48071CEF800104021CEF88A
:103F300000108DE10EF194014FF000628C4508BF36
:103F40004FF40012CEF800204FF0806208BF4FF40B
:103F50008012CEF800204FF000728C4508BF4FF45D
:103F60000022CEF800204FF0807208BF4FF480226C
:103F7000CEF800204FF480028C4508BF4FF4803209
:103F8000CEF8002064E100BFF44500F07D8046F2E9
:103F90002804C4F20204A44500F0788046F24004EC
:103FA000C4F20204A4450CBF4FF400144FF00064A7
:103FB0006EE000BF4FF4006401E000BF20249C4588
:103FC000C1F8004410D094450AD046F24046C4F2ED
:103FD0000206B4450CBF4FF480144FF0806404E037
:103FE0004FF4806401E000BF10249C45C1F80044F8
:103FF00010D094450AD046F24046C4F20206B445B9
:104000000CBF4FF400244FF0007404E04FF4007430
:1040100001E000BF08249C45C1F8004410D094453D
:104020000AD046F24046C4F20206B4450CBF4FF433
:1040300080244FF0807404E04FF4807401E000BFEE
:1040400004249C45C1F8004412D094450CD046F29B
:104050004042C4F2020294450CBF4FF480324FF448
:104060008002C1F80024F3E04022C1F80024EFE010
:104070000122C1F80024EBE020244C6009E000BFDD
:104080004FF400644C6004E0202401E04FF400642D
:104090000C60944514D99C4526D046F28804C4F29D
:1040A0000204A44524D046F2A004C4F20204A445AC
:1040B0000CBF4FF480144FF080644C6021E000BFCF
:1040C000F44519D046F22804C4F20204A44515D0E0
:1040D00046F24004C4F20204A4450CBF4FF480141D
:1040E0004FF080640CE000BF10244C6009E000BF7A
:1040F0004FF480644C6004E0102401E04FF48064CD
:104100000C60944514D99C4526D046F28804C4F22C
:104110000204A44524D046F2A004C4F20204A4453B
:104120000CBF4FF400244FF000744C6021E000BF3E
:10413000F44519D046F22804C4F20204A44515D06F
:1041400046F24004C4F20204A4450CBF4FF400241C
:104150004FF000740CE000BF08244C6009E000BF81
:104160004FF400744C6004E0082401E04FF4007444
:104170000C60944514D99C4526D046F28804C4F2BC
:104180000204A44524D046F2A004C4F20204A445CB
:104190000CBF4FF480244FF080744C6021E000BFCE
:1041A000F44519D046F22804C4F20204A44515D0FF
:1041B00046F24004C4F20204A4450CBF4FF480242C
:1041C0004FF080740CE000BF04244C6009E000BF95
:1041D0004FF480744C6004E0042401E04FF48074D8
:1041E0000C60944514D99C4526D046F28802C4F24E
:1041F0000202944524D046F2A002C4F20202944581
:104200000CBF4FF480324FF480024A6020E000BFC0
:10421000F44519D046F22802C4F20202944515D0A2
:1042200046F24002C4F2020294450CBF4FF48032C1
:104230004FF480020BE000BF01224A6008E000BF9B
:1042400040224A6004E000BF012200E040220A60F0
:10425000DCF8001041F01601CCF80010DCF8141066
:1042600041F08001CCF81410016C09B9806C28B1C0
:10427000DCF8000040F00800CCF80000DCF800009A
:1042800040F00100CCF80000002070BD70B5866DD4
:10429000044600F041FC94F83510022928D1054667
:1042A0002068216C026822F016020260426922F046
:1042B0008002426109B9A16C19B1016821F00801BD
:1042C0000160016821F00101016000BF2068006801
:1042D000C00715D000F020FC401B0628F6D3202094
:1042E0006065032084F83500002184F8341070BD27
:1042F000802060650120002184F8341070BD00BF6B
:10430000E06D3F2101FA00F0B060012084F8350033
:104310000020002184F8341070BD000090F83510A2
:10432000022909D1052180F835100068016821F0C3
:104330000101016000207047802141650120704724
:1043400090F8350070470000F0B581B004460020B9
:10435000009040F20820C2F200000268D4E9166022
:1043600048F2B51337680821C1F64E33814039420F
:10437000A2FB03250CD0226813685B0708D51368DD
:1043800023F004031360B160616D41F001016165C8
:1043900001218140394208D022685269120604D5B1
:1043A000B160616D41F002016165042181403942D3
:1043B00008D022681268920704D5B160616D41F09F
:1043C0000401616510218140394217D020680268DC
:1043D000120713D5B16002680168520308D4C905F9
:1043E00008D4016821F008010160216C21B905E0C1
:1043F00008033FD4216C09B120468847E16D202095
:1044000000FA01F23A4241D020680368DB063DD54C
:10441000B26094F835300268052B1BD122F01602E9
:104420000260426922F080024261226C0AB9A26CE9
:104430001AB1026822F0080202603F208840B06092
:10444000012084F83500216D0020002984F8340013
:1044500052D157E00168520310D4C90512D4016843
:1044600021F010010160012084F83500002084F85B
:10447000340007E0A16C0029BED1BFE7080301D4D6
:10448000616C00E0E16B09B120468847606DC8B3FC
:10449000606DC0072ED0052084F835002068A90A79
:1044A000026822F001020260009A01328A42009200
:1044B0001AD80268D20717D0009A01328A420092B5
:1044C00012D80268D2070FD0009A01328A420092B5
:1044D0000AD80268D20707D0009A01328A420092B5
:1044E00002D80268D207DFD1012084F8350000200D
:1044F00084F83400E16C29B1204601B0BDE8F040F9
:10450000084700BF01B0F0BD2DE9F041044600F0BE
:1045100003FBECB10546022084F835000020216839
:1045200084F83400086820F00100086021680868F9
:10453000C00711D000F0F0FA401B0528F6D903257A
:1045400020230320636584F83550BDE8F08100BF67
:104550000120BDE8F08100BF086848F23F02CFF2B9
:104560001002D4E9013500EA020C04F10C0898E8C5
:10457000C10143EA0C032B431843D4E9072E30430F
:1045800038431043626A40EA0E00042A40EA0803F6
:104590001CD1206BD4E90A2E40EA0E0018430860B3
:1045A0004869BEF1000F20F0030040EA020040F02D
:1045B000040C11D0B8F5005F36D0B8F1000F45D12A
:1045C000022A46D0012A3BD032B942E00B6048694A
:1045D00020F0070040EA020C01F0F8004AF6AB2296
:1045E0001038CAF6AA22A0FB02231A0949F2C423F2
:1045F000C0F601039A5C40F2FF335F284FF03F00A2
:10460000C1F814C021EA030100FA02F088BF0431A6
:10461000C4E916128860002301250020636584F830
:104620003550BDE8F08100BF032AD5D801254023CD
:104630000120DFE802F0030E030500BF82E700BFA0
:10464000AEF1C070B0FA80F0400904E0032A04D350
:10465000C2D1CEF300600028BED001254023012046
:10466000636584F83550BDE8F081000070B590F8BE
:1046700034C0BCF1010F46D04FF0010C80F834C0BB
:10468000D0F858E090F835C0BCF1010F38D14FF0A8
:10469000020C80F835C04FF0000CC0F854C0D0F8C0
:1046A00000C08468056CC06DDCF80060402C26F406
:1046B0008026CCF80060CCF804300B4604BF1346CB
:1046C0000A463F2101FA00F0CCF80830CCF80C2063
:1046D000CEF80800DCF8000040F01600CCF800002E
:1046E0002DB1DCF8000040F00800CCF80000DCF848
:1046F000000040F00100CCF80000002070BD00BFB9
:10470000002180F83410022070BD0000B0B50446CE
:1047100000F002FA05464CF20800C2F201000078EF
:10472000611C18BF044400BF00F0F6F9401BA04212
:10473000FAD3B0BD70470000B0B543F60C44C4F2E4
:104740000204206841F2AC7510F0F20FC2F20005CD
:104750002ED02878012807D1E8684FF0FF31E960B2
:104760002168C90608D40DE02878022814BF6869BA
:1047700028692168C90605D5E96941F01001E96198
:1047800010212160216889062AD42168490630D485
:104790002168090636D42168890705D5E96941F001
:1047A0002001E9610221216000F062F800202870F8
:1047B0002068C0074BD001202060287801282BD129
:1047C0006868013868606868B0B3E868FFF7B2FFEE
:1047D000E8680130E860E868297AFEF773FC36E0A3
:1047E000E96941F00801E961202121602168490659
:1047F000CED5E96941F00401E961402121602168D9
:104800000906C8D5E96941F00201E961802121600A
:1048100021688907C2D4C7E7284610F8141B02296B
:1048200003D1FEF773FC05F110000068FFF782FF6B
:10483000002028700BE000BF4FF0FF30E860002040
:104840002870FEF763FC4FF0FF30FFF773FF287806
:10485000002818BFB0BD606820F0FF00606060688D
:1048600020F080706060606820F000706060B0BD13
:1048700070470000B0B541F2A871C2F2000109789A
:10488000002941D04DF6C85EC2F2010E0EF16A0356
:104890004D42032206E000BF0432A918032903F1A8
:1048A000A00331D033F8504C844204D153F84ACCA1
:1048B000BCF1000F2AD1AC18022C25D033F8281CEB
:1048C000814204D153F822CCBCF1000F26D1012C37
:1048D0001AD01988814204D1D3F806C0BCF1000F68
:1048E00024D1002C08BFB0BD198D8142D4D1D3F89A
:1048F0002EC0BCF1000FCFD002EB82000EEBC00047
:10490000BDE8B040604700BFB0BD00BF033A02EB56
:1049100082000EEBC000BDE8B0406047023A02EBF7
:1049200082000EEBC000BDE8B0406047013A02EBE8
:1049300082000EEBC000BDE8B040604743F6144172
:10494000C4F201010A68024214BF08607047FFF711
:1049500091BF00002DE9F04F82B000F13E4241F6D8
:10496000004502F1FF77C4F20205082243F6004E2B
:104970004FEAB726A84208BF0722C4F2010E072E4D
:1049800038BF4FEAB7220125002600274FF0000864
:10499000009208E008F101080437B8F1100F06F1A1
:1049A000020600F0A7800C6805FA08F914EA090F5E
:1049B000F0D0D1F804B003220BF0030CACF10104E9
:1049C000B240012C6FEA020A10D88268CC6802EA71
:1049D0000A02B440224382604268CBF3001422EA08
:1049E000090204FA08F42243426005E0BCF1030F17
:1049F00002D14FF0030C20E0C2688C6802EA0A0280
:104A0000B4402243BCF1020FC26016D16FF0030222
:104A100002EA58020244D2F820C007F01C050F2316
:104A20000C69AB402CEA030304FA05F52B4313622F
:104A3000D1F804B001250BF0030C02680CFA06F360
:104A400002EA0A021A431BF4403F0260A2D000228D
:104A500043F644030192C4F202031A684FF6084C6D
:104A600042F480421A601A68CFF6FF7C02F480425A
:104A70000192019A28F00302724452F80C3007F0B8
:104A80000C050F24AC40A343009C04FA05F52B430E
:104A900042F80C30DEF808204B6842EA090543F67C
:104AA0000C4CDC0258BF22EA0905CEF80850C4F2CB
:104AB000010CDCF800209C0242EA090558BF22EAFA
:104AC0000905CCF80050DEF804209C0342EA0905F1
:104AD00058BF22EA0905CEF80450DEF80020DB03B7
:104AE00042EA090558BF22EA0905CEF8005001251F
:104AF00050E700BF02B0BDE8F08F0000426902EA53
:104B00000103914341EA034181617047002A08BFD4
:104B100009048161704700004EF2B010C2F201003A
:104B2000006870477047000070470000F0B581B022
:104B30000446006800254769426894F83E1002F474
:104B40008076FA0505D5002E1EBF6FF48072426193
:104B50000125BA0505D5002E1EBF02356FF400727F
:104B600042617A0516D5AEB1628D94F83D30D4F825
:104B700030C0202908BF002A24D06FF48062402969
:104B800005F10405426101D0102903D1016841F407
:104B900000710160380507D536B1206808356FF41B
:104BA0000061416101E000BF55B1206C40EA0501A0
:104BB0002046216401B0BDE8F04004F0E9BC00BF2C
:104BC00001B0F0BD03F0F701212909D0282B08BF5F
:104BD000BCF1210F04D06FF4806141610435D9E745
:104BE00094F83D10E26AB2F1080318BF0123203A9D
:104BF00018BF0122134208BF282921D0212939D109
:104C00000021CFF6FF71E16221212163202184F888
:104C10003D10002184F83E10426822F4E0624260B8
:104C20006FF480624261026822F48062026042692D
:104C3000120648BF0161204600F0BCFCAAE700BF95
:104C40000021CFF6FF71E162416821F4E06141602B
:104C50006FF480614161016821F48061016000208E
:104C60002021206384F83D1084F83E00204600F0A7
:104C7000C9FB8FE76FF4806141618BE7F0B581B0CC
:104C8000076804467868E26A94F83E3094F83DE09C
:104C9000402B01D0102B27D1BE697D69E90751D186
:104CA000B2F12A4F00F0A082B2F52A0F00F09C82E8
:104CB00000F400724FF0010C29078CEA522C45D504
:104CC000002A43D0606B616CC9B2396118B1C06B06
:104CD000002840F02481A06B002800F08582C06B82
:104CE000002840F01C817FE2216C00F40073002951
:104CF0000CBFBE6900267D69A90753D5002B51D092
:104D0000206C002818BFBE6994F83D0000F0280010
:104D1000282840F093807868002320F48060786031
:104D2000012020EA960130064FF0180058BF0C20F1
:104D3000225A204684F83C3001B0BDE8F040FFF72D
:104D4000F3BE00BF810557D44FF0010CA90759D518
:104D5000BCF1000F56D194F83E30E06A226B94F813
:104D60003D10222940F0E280216D002908BF402B30
:104D700000F0DC80216D002940F032812169B1F51D
:104D8000404F40F02D810020009078690090B86974
:104D900000900098386840F480703860206D0130D1
:104DA0006BE200BFE90655D5002B53D094F83D5077
:104DB000786820F4E06078600020009078690090C6
:104DC000386840F0010038600098386820F480604E
:104DD00038607868000540F1408105F0F70026460C
:104DE000222840F0198156F8380F0168496826F8E2
:104DF0000E1C36F80E1C17E1E06AB0F52A0F5FD1E1
:104E0000012062E07968720701F4006100F1988086
:104E1000002940F0E981690605F0040140F1AC8108
:104E200010F4806000F0A881002940F0A5812046A0
:104E300001B0BDE8F04004F0EDBC00BF00200090E0
:104E400079690091B9690091009984F83C0001B03A
:104E5000F0BD00BF0EF0F70100F48062212905F0DB
:104E6000040040F08380290640F14881002A00F0C8
:104E70004581002840F0428194F83D00618D002971
:104E800000F0B281616A11F8012B3A616162618DB3
:104E900001396185618D002908BF292840F0A4816E
:104EA0007868282120F480607860212020632046E3
:104EB00084F83D1001B0BDE8F04000F07BBB00BFBE
:104EC000E06AB0F12A4F01D10820E06294F83E0078
:104ED00040280BD1206D616C002801F0FE0018BF46
:104EE00040F00100386101B0F0BD00BF2069B0F5AD
:104EF000804F65D194F83D00616C212801F0FE01DE
:104F000018BF01313961606B08B1C06B38B9A06B53
:104F1000002800F06981C06B002800F06581786886
:104F200040F40060786001B0F0BD00BF0020009048
:104F300078690090B8690090009801B0F0BD00BF9A
:104F4000002940F05181290605F0040140F120813B
:104F500010F4806000F01C81002940F01981204687
:104F600001B0BDE8F04004F041BD00BF690640F16A
:104F7000D780002A00F0D480002840F0D18094F837
:104F80003D00618D002900F02F813969626A11703E
:104F9000616A01316162618D01396185618D00292C
:104FA00008BF2A2840F020812068416821F48061F0
:104FB0004160222028212063204684F83D10D6E05D
:104FC000206D002800F0BE80206D012840F00C818B
:104FD000606C062101EAD010F130386101B0F0BDFB
:104FE000618D61B1618D012940F0E280202818BFF8
:104FF000082840F0FB80386820F48060386000208A
:10500000009078690090B86900900098386840F482
:105010000070386030E100BF56F8340F016849680D
:1050200026F80A1C36F80A1C19B1216C41F004015B
:105030002164796821F400617960FFF781F9012822
:105040000BD0306849F26D41C0F600010165FFF7F1
:1050500065F910B13068016D8847608D60B12068D6
:105060004169490730D4416949063AD4608D18B185
:10507000206C40F004002064206C28B1204601B070
:10508000BDE8F04004F084BA2A2D07D10020206347
:10509000282084F83D00204600F08AFA94F83D006C
:1050A000282857D10020CFF6FF70E0620021202091
:1050B000216384F83D00204684F83E1001B0BDE82D
:1050C000F04000F09FB900BF0069616A0870616A32
:1050D000206801316162618D01396185416949064C
:1050E000C4D50069616A0870606A01306062608DD1
:1050F00001386085608D0028BAD1BDE7002818BF4F
:10510000002B71D0608D00286ED0606A10F8011BF2
:1051100039616062608D0138608501B0F0BD00BF0B
:10512000002818BF002B5FD0608D00285CD0386944
:10513000616A0870606A01306062608D0138608564
:1051400052E000BF606C062101EAD010F0303861F7
:1051500001B0F0BD206B222818BF222D44D10021C0
:105160002020216384F83D00204684F83E1001B0E1
:10517000BDE8F04000F01CBAB1FA81F0400950EAF5
:105180000C0031D1204601B0BDE8F04004F0C6BAB1
:10519000B1FA81F0400950EA0C0025D1BEF1210F8F
:1051A0001AD1204601B0BDE8F04004F0DDBB00BFDD
:1051B000618D02290CD110283CD801211422814094
:1051C000C0F20102114235D04FF4806238E000BFD6
:1051D000396841F4806135E0402B05D1204601B0AB
:1051E000BDE8F04004F05CBC01B0F0BD10F5803FBC
:1051F0000CD1386820F480603860786800057FF54D
:10520000FEAE386820F4806038602EE0122A02D1A9
:1052100001287FF4F0AE1028F3D8012101FA00F044
:105220001421C0F201010842EBD0386840F48060DC
:1052300038601AE039684FF4006221F48061396007
:10524000396811433960796809050ED5421E1F2A55
:1052500016D80121914048F28102C8F200021142A1
:105260000ED0786840F48050786000200090786913
:105270000090B869009000980020206501B0F0BD52
:1052800010F5803FEDD0F0E77047000070B5B8B37F
:10529000044690F83D0028B9002084F83C002046E0
:1052A00000F002F9242084F83D002068016821F014
:1052B00001010160016841F400410160016821F4CD
:1052C0000041016001F054FC48F28041C0F21E012F
:1052D00040F60013D4F804E088424FF00001C0F219
:1052E0003D0348F2A16C4FF0000238BF0121984203
:1052F000C0F2010C38BF0122E64538BF0A460AB1A8
:10530000012070BD4DF68361C4F21B31A0FB011278
:105310002168950C4B684FF4967623F03F0343EADF
:105320009243754344F6D3564B60C1F262060B6A52
:10533000A5FB0656B50923F03F03E64538BF950C9B
:105340006A1C1A430A62CA6948F2A0664CF6FF73E7
:10535000C0F20106B64522EA03020BD801384FEA33
:105360004E03B0FBF3F001306FF31F30042898BFF9
:1053700004201EE0A368013863B119230EFB03F378
:10538000B0FBF3F001306FF31F3078B100F58040CF
:1053900008E000BF0EEB4E03B0FBF3F001306FF3FB
:1053A0001F3028B100F5004003E000BF012000E0FD
:1053B00001201043C8610868D4E9072320F0C00029
:1053C000104318430860886848F2FF3204F10C0665
:1053D00090434CCE18431043A5698860C86820F0FC
:1053E000FF0030432843C860086840F001000860AF
:1053F00000202021206484F83D10206384F83E00C2
:1054000070BD00007047000080B540F21431C2F258
:1054100000010A78E2B10B1D04E000BF013A03F17C
:10542000040315D0D3F800C0DCF800108142F5D198
:10543000D0F844E09CF804108E45EFD1DCF8102041
:10544000002A08BF80BD6046BDE88040104700BF0D
:1054500080BD00007047000080B540F21431C2F2F8
:1054600000010A78E2B10B1D04E000BF013A03F12C
:10547000040315D0D3F800C0DCF800108142F5D148
:10548000D0F844E09CF804108E45EFD1DCF81020F1
:10549000002A08BF80BD6046BDE88040104700BFBD
:1054A00080BD0000704700002DE9F04786B004463B
:1054B000016845F60000C4F20000814202D006B047
:1054C000BDE8F087002643F630050196C4F20205D8
:1054D000296846F2400841F020012960296812221B
:1054E00001F020010191019903210191049104210E
:1054F000059100F5DE3001A9C4F20208CDE90226CB
:10550000FFF728FA009628694FF0606A40F480009F
:105510002861286940F6307500F4800000900098FA
:10552000C2F200054FF480694FF400372846C5E900
:10553000008AC5E90266C5E90496C5E90666C5E9BB
:105540000876FEF7E1FF002818BFFDF7B7FDA56359
:10555000AC634DF6307508F17800C2F201054021C8
:10556000C5E9000A05F1080080E842022846C5E9BD
:105570000566C5E907676E62FEF7C6FF002818BF1B
:10558000FDF79CFD2120052100226563AC6300F03E
:10559000F3F8212000F0DCF822200521002200F0A1
:1055A000EBF8222000F0D4F806B0BDE8F087000048
:1055B00070470000704700004CF208004EF2B01136
:1055C000C2F20100C2F2010100780A6810440860CA
:1055D0007047000080B543F60040C4F20200016845
:1055E00041F400710160016841F48061016001686B
:1055F00041F480710160032000F0EAF8052000F01A
:1056000005F800F061F8002080BD000070B586B09C
:10561000002543F640010195C4F202010A680446E0
:1056200042F480720A60096801A801F48071019156
:105630000199694601F076FA049E002E18BF0126F2
:1056400001F096FA4DF68361B040C4F21B31A0FB25
:1056500001014FF0FF3000EB914141F2886042F2CE
:105660000002C2F20000C4F2000240F2E733C0E9D7
:105670000021C0E902530561856102F025F9054664
:1056800010B1284606B070BD41F28860C2F2000039
:1056900002F016FA05460028F3D12D2000F058F844
:1056A0000F2C0DD82D2021460022002500F064F893
:1056B0004CF20C00C2F201000460284606B070BD36
:1056C0000125284606B070BD80B582B0002043F6A3
:1056D00040010190C4F202014A6842F480424A60EB
:1056E0004A6802F480420192019A00900868002200
:1056F00040F08050086008680F2100F08050009052
:1057000000986FF0010000F037F804200621002215
:1057100000F032F8042002B0BDE8804000F018B874
:10572000002848BF7047C1B200F01F00012202FAF2
:1057300000F04EF28012CEF2000242EAD10121F0D6
:1057400003010860BFF34F8FBFF36F8F70470000F6
:10575000002848BF7047C1B200F01F00012202FAC2
:1057600000F04EF20012CEF2000242EAD10121F026
:10577000030108607047000010B54EF60C5CCEF2D5
:10578000000CDCF80030C3F3022E8EF00704042C6A
:1057900028BF0424BEF103034FF0FF3E0EFA04F4C9
:1057A00038BF0023A14399400EFA03F39A431143F3
:1057B00000F00F0200F160430901043A03F564436D
:1057C0006244002848BF02F10C03197010BD0000AC
:1057D0004EF60C51CEF200010A684FF6FF031A4054
:1057E00060F30A2242F0806040F0FD70086070476C
:1057F0007047000002680020516270472DE9F043B5
:10580000D0F80090D9F82400A1B1D9F82830B1F12E
:10581000010800EB13435DD0A8F10100C0B20328DA
:1058200008F0030C0ED24FF0010E0027BCF1000F60
:1058300033D14FE040EA0240C9F828000020BDE81B
:10584000F08300BF08F0FC0E09F1F404002009F514
:10585000827500BF54F8107F064603EB174046F0F0
:105860000103DBB246F0020755F82330FFB255F8CA
:10587000277000EB134000EB174346F00300C0B263
:1058800055F82010301DC7B2774503EB1143E1D125
:1058900006F1050EBCF1000F1CD009EB8700D0F813
:1058A0000401BCF1010F03EB104313D05FFA8EF03B
:1058B00009EB8000D0F80401BCF1020F03EB1043A8
:1058C00008D00EF10100C0B209EB8000D0F804014D
:1058D00003EB104343EA024009EB8801C1F80401DD
:1058E0000020BDE8F0830000D0F8E0040BF034BFE6
:1058F00001EBC102D0F8E03400EB8200026A1846E6
:105900000BF092BE01EBC102D0F8E03400EB820054
:10591000D0F8602218460BF0E3BE0000D0F8E00497
:105920000BF01CBF10B5044648B2B0F1FF3F01F0C8
:105930000F0000EBC00104EB810205DD02F51571DB
:10594000002382F8553203E0012302F1140153755C
:1059500094F894240870012A04BF022010BD206826
:10596000012284F894240CF0D5FC002084F89404DF
:1059700010BD0000B0B50279044601F00F0090425E
:1059800084BF0120B0BD49B2B1F1FF3F0ADD00EB99
:10599000C00104EB810202F51571002382F8553233
:1059A00008E000BF00EBC00104EB8102012302F11B
:1059B0001401537594F894240025012A8D70087001
:1059C00004BF0220B0BD2068012284F894240CF0AA
:1059D0008DFF284684F89454B0BD000001F00F01FB
:1059E00001EBC10100EB8100D0F8680270470000B4
:1059F00070B5064648B2B0F1FF3F01F00F0000EB72
:105A0000C00107DD06EB810404F51571002584F85B
:105A1000555206E006EB810C01240CF114018CF8C0
:105A200015404D786FF3DF22002D08708A600B71EE
:105A300018BF4883022B04BF0020487196F89404D5
:105A4000012804BF022070BD3068012286F894242A
:105A50000CF004FB002086F8940470BD10B501F032
:105A60000F0404EBC40100EB810E4FF0000CCEF8E4
:105A700068C28EF855C290F806C0CEF86022CEF803
:105A80006432BCF1010F8EF8544208BFCEF8702288
:105A900000680EF5157162460CF072FF002010BD13
:105AA000B0B50446007901F00F05854284BF01209E
:105AB000B0BD48B2B0F1FF3F0ADD01EBC10004EB1D
:105AC000800000F51571002280F8552208E000BF23
:105AD00005EBC50004EB8000012200F114014275C2
