:020000040800F2
:1000000028A701209D01000871BD00087D9200080D
:10001000C1BB0008ED1A00083D12010800000000F5
:10002000000000000000000000000000C1D6000831
:10003000ED2500080000000041CD0008E9DF0008C0
:10004000B7010008B7010008B7010008B7010008B0
:100050000D290008B7010008B7010008B701000822
:10006000B70100084D28000855280008B70100080E
:100070005520000861200008B7010008B7010008FA
:10008000B7010008B7010008B7010008B701000870
:10009000F11A0008FD1A0008B70100085D280008E1
:1000A000B7010008B7010008B7010008B701000850
:1000B000B7010008B7010008B7010008B701000840
:1000C000B70100088D9200088192000861D50008F0
:1000D000B7010008B7010008B70100082DEA0008C1
:1000E000B7010008B7010008B7010008B701000810
:1000F000B7010008D1E00008B70100086D20000832
:10010000B7010008B7010008C5E00008B701000802
:10011000B7010008B7010008B7010008B7010008DF
:100120007920000885200008B70100089120000808
:10013000B7010008B7010008B7010008B7010008BF
:10014000091B0008151B0008B7010008D1C30008EF
:10015000B70100089D200008B701000839EA00082F
:10016000B7010008B7010008B7010008B70100088F
:10017000B7010008B7010008B7010008000000003F
:10018000B7010008B7010008DFF80CD001F036F81D
:1001900000480047491A010828A70120064880475F
:1001A00006480047FEE7FEE7FEE7FEE7FEE7FEE75C
:1001B000FEE7FEE7FEE7FEE7B1E000088901000880
:1001C0009FED1A1AF5EE000A40EE010ABDEEE00AB4
:1001D000F5EEC00A10EE100AF1EE10FA38BF401E1C
:1001E00000EE100A1349F7EE001AB8EEC00A30EE1E
:1001F000C00ADFED0F0A20EE200AFCEEC00A10EE66
:10020000900AC0F3080000EE900A01EB8000F8EEBF
:10021000600A90ED011A70EE600A90ED000A71EE2E
:10022000E01A21EE800A00EE810A704783F9223E2F
:100230000000004454520108B5EEC00AF1EE10FA75
:1002400007D2DFED1E0AB4EEE00AF1EE10FAA8BF05
:100250007047DFED1B0AB5EEC00A60EE200ABDEE66
:10026000E01A11EE100AF1EE10FA38BF401E00EE4F
:10027000100A1549F7EE001AB8EEC00A30EEC00AAF
:10028000DFED100A60EE200ABCEEE00A10EE100A64
:10029000C0F3080000EE100A01EB8000B8EE400A3F
:1002A00090ED011A70EEC00A90ED000A71EEE01AAE
:1002B00021EE800A00EE810A70470000CD024CB4A6
:1002C00083F9223E000000445452010870B40588AE
:1002D0000E884468D1F804C05368B54208D14088FC
:1002E0004988884201BF11888D425188884203D0D5
:1002F00070BC6FF00200704705FB00F1880827D042
:1003000094ED001ADCED000A94ED010ADCED011A0F
:1003100031EE201AD4ED020A70EE211A9CED020A89
:1003200083ED001AC3ED011A94ED031ADCED031AF4
:1003300030EE800A401E71EE210A83ED020A04F1BC
:100340001004C3ED030A03F110030CF1100CD7D114
:1003500011F0030030D0B0F1004F30D200282BDD77
:10036000211F1B1FACF1040210F0010F0AD091ED08
:10037000010AD2ED010A091D121D30EE200A83ED9B
:10038000010A1B1D400817D091ED010AD2ED010AA8
:10039000401E30EE200A83ED010A91ED020AD2EDF3
:1003A000020A01F1080102F1080230EE200A83ED91
:1003B000020A03F10803E7D170BC00207047B4ECD7
:1003C000010A401EFCEC010A30EE200AA3EC010AEF
:1003D000F5D1F1E701804280436070472DE9F34F8A
:1003E00084B0049840680090486801900498B0F880
:1003F00000E04588DFEDFE0A00200290B0EE600AC2
:10040000AE4506D108884988884204BF71468645B2
:1004100004D06FF0020006B0BDE8F08F01985FEAEB
:10042000010C18BFB7EE001A3DD000BFBEEB0C01A7
:1004300017D0B1F1004F80F01F82002911DD021F9B
:1004400011F0010F1CBFC2ED010A121D4B1006D0A6
:10045000C2ED010AC2ED020A08325B1EF8D100EBC0
:100460008100BCF10102A0EC011A19D0B2F1004FD9
:1004700080F00882002A13DD031F12F0010F1CBF59
:10048000C3ED010A1B1D511008D000BFC3ED010AC6
:10049000C3ED020A491E03F10803F7D100EB820005
:1004A000BCF1010CC2D14FF000080395002D14BF20
:1004B000B0EE602A002000F0BF8100BF009908FB69
:1004C00005F001EB800B0199DBED002A01EB8000C8
:1004D0000346F0EE421AC64552D9AEEB0802ABEB2A
:1004E000850112F0010F17D001EB850191ED000A93
:1004F000B5EEC00AF1EE10FA07DDB4EEE10AF1EE56
:1005000010FA09DDF0EE401A06E0B1EE400AF4EE12
:10051000C01AF1EE10FAF5D3521031D001EB850C70
:100520009CED000AB5EEC00AF1EE10FA05DDB4EE5E
:10053000E10AF1EE10FA09DD06E0B1EE400AF4EE50
:10054000C01AF1EE10FA01D2F0EE401A01EBC5012B
:1005500091ED000AB5EEC00AF1EE10FA05DDB4EE39
:10056000E10AF1EE10FA09DD06E0B1EE400AF4EE20
:10057000C01AF1EE10FA01D2F0EE401A521ECDD19F
:10058000F5EEC01AF1EE10FA00F07381F5EEC02A14
:100590000126F1EE10FA0099D4BFB1EE620AB0EE76
:1005A000620AB4EE610AF1EE10FA1CBFAEEB08026B
:1005B000B2F1010C47D005FB08F201EB820292ED8B
:1005C000001A00BFB0EE410A05FB06F4B5EEC00A02
:1005D00000EB8404F1EE10FACCBFF0EE400AF1EE2D
:1005E000400AF4EE610AF1EE10FA28D1B5EB080CDE
:1005F00011D0BCF1004F7DD2BCF1000F0BDD00BF6C
:1006000092ED000AD1ED000ABCF1010CE2EC010A06
:10061000A1EC010AF4D129000ED0B1F1004F6AD249
:10062000002909DD94ED000AD0ED000A491EE4EC32
:10063000010AA0EC010AF5D1012002900BE0761C22
:10064000BCF1010CBED10298012804D0F5EEC02AFD
:10065000F1EE10FA7ED09BED000AB5EB08009A4649
:100660005946064622D0B0F1004F74D200281DDD55
:10067000091F10F0010F06D0F0EE400A80EEA01A1C
:1006800081ED011A091D401010D000BFD1ED010A03
:10069000401E80EE801A81ED011A91ED021AC1EE22
:1006A000000AC1ED020A01F10801EFD1280026D0AD
:1006B000B0F1004F7ED2002821DDAAF1040110F034
:1006C000010F06D0D1ED010A80EE801A81ED011AEA
:1006D000091D401013D000BFD1ED010A401E80EE6D
:1006E000801A81ED011AD1ED020A80EE801A81EDA7
:1006F000021A01E0CBE0D6E001F10801ECD1DDE91E
:1007000000124FF000095FEA0E0773D0C14504BF25
:1007100001EB860102EB850274D091ED000ADC4604
:100720005046331E35D01C46B6F1004F7ED2002C09
:100730002FDD0B1FABF1040C16F0010F0FD0F0EE04
:10074000400ADCED011AB0EE601A00EEE11A83ED0A
:10075000011A01E08DE0B1E01B1D0CF1040C7410D6
:1007600015D000BFD3ED010A9CED011A40EE410AFD
:10077000C3ED010AD3ED020A9CED021A0CF1080C3C
:1007800040EE410AC3ED020A0833641EEAD101EBD0
:1007900086012B0036D0B3F1004F72D2002B31DD31
:1007A000A2F1040CAAF1040013F0010F0CD0DCED4F
:1007B000010A00E08BE090ED011A001D40EE410AB5
:1007C000CCED010A0CF1040C5C1019D0DCED010A2F
:1007D00090ED011A40EE410ACCED010ADCED020A6F
:1007E00090ED021A083040EE410ACCED020A03E017
:1007F000000000000DE005E0641E0CF1080CE5D1DE
:1008000002EB830201EB88017F1E09F101097FF4ED
:100810007DAF009808F10108001D00900398401E6C
:1008200003907FF44BAE0299012900E058E004BF29
:1008300006B0BDE8F08F00BFB5EEC00AF1EE10FAC9
:100840007FF4E9AD04990EFB05F3002B4A684FF0E5
:1008500000010BD902EB810C9CED000AB5EEC00A39
:10086000F1EE10FA02D1491C8B42F3D88B427FF48F
:10087000D2AD6FF00400CEE5E0EC010A491EFBD1D9
:10088000EFE538E0E0EC010A521EFBD108E692EDFC
:10089000000AD1ED000ABCF1010CE2EC010AA1EC66
:1008A000010AF4D1B7E694ED000AD0ED000A491E22
:1008B000E4EC010AA0EC010AF5D1BDE6D1ED000A95
:1008C000401E80EE801AA1EC011AF7D1EEE6D3EDBE
:1008D000000A401E80EE801AA3EC011AF7D10EE741
:1008E000BCEC011AD1ED000A5B1E40EE410AE1ECBE
:1008F000010AF5D14DE7B0EC011AD2ED000A5B1EFA
:1009000040EE410AE2EC010AF5D17BE72DE9F04F18
:1009100082B0466853680193058847884B88002059
:1009200000900888874201BFB2F800C06545528830
:1009300093421EBF6FF0020002B0BDE8F08F9FED42
:10094000412A4FEA970EC7F3400B00BFDDE90002D2
:1009500002EB800A4A6898464FF00009B0EE420A5E
:10096000B4465FEA0E0025D092ED001ADCED001AC5
:1009700002EB8302DCED010A01EE810A92ED001A1E
:1009800002EB8302401ED2ED001A02EB830200EE5E
:10099000810A9CED021ADCED030A00040CF1100C34
:1009A000000C01EE210A92ED001A02EB830200EE28
:1009B000810AD9D117F0030026D0ACF10404A2EBD0
:1009C000830210F0010F08D002EB8302D4ED010A7C
:1009D00092ED001A241D00EE810A5FEA0B0013D08D
:1009E00002EB830CD4ED010A9CED001A02EBC3026A
:1009F000401E00EE810AD4ED020A92ED001A04F1C5
:100A0000080400EE810AEBD109F10100AAEC010A09
:100A10001FFA80F9486800EB8902A8F101001FFA6B
:100A200080F8B8F1000F99D1009806EB87061844BA
:100A300080B20090681E05042D0C87D102B0002002
:100A4000BDE8F08F0000000070B405880E8844688F
:100A5000D1F804C05368B54208D14088498888421B
:100A600001BF11888D425188884203D070BC6FF05D
:100A70000200704705FB00F1880827D094ED001AAA
:100A8000DCED000A94ED010ADCED011A31EE601A8A
:100A9000D4ED020A70EE611A9CED020A83ED001A91
:100AA000C3ED011A94ED031ADCED031A30EEC00A0F
:100AB000401E71EE610A83ED020A04F11004C3EDD9
:100AC000030A03F110030CF1100CD7D111F003004D
:100AD00030D0B0F1004F30D200282BDD211F1B1F7A
:100AE000ACF1040210F0010F0AD091ED010AD2ED31
:100AF000010A091D121D30EE600A83ED010A1B1D5B
:100B0000400817D091ED010AD2ED010A401E30EEE7
:100B1000600A83ED010A91ED020AD2ED020A01F1A9
:100B2000080102F1080230EE600A83ED020A03F1C7
:100B30000803E7D170BC00207047B4EC010A401EE6
:100B4000FCEC010A30EE600AA3EC010AF5D1F1E7F2
:100B50002DE9F04F02884768B0F802804888D1F844
:100B6000049082B04FF0000A1646824207BF0988FF
:100B700088456FF0020002B018BFBDE8F08F4FEA61
:100B8000980B02EB42000190C8F34000CDF8000042
:100B900009EB8A01BBF1000F33D0019801EB820C05
:100BA00001EB80043B46E64601EBC2054FEA0B0031
:100BB00093ED000A401E81ED000A93ED010A01EB5E
:100BC00002118CED000A93ED020A0CEB021C85ED7C
:100BD000000A93ED030A05EB021584ED000A04EB0D
:100BE000021403F11003E3D10EEB820000EB82004C
:100BF00000EB8201ABF10100504307EB0B1701EB57
:100C0000001118F0030C21D03B1FA1EB82011CF056
:100C1000010F06D093ED010A01EB82011B1D81ED4E
:100C2000000A009880B100BF93ED010A01EB820435
:100C300001EBC20184ED000A93ED020A401E81ED32
:100C4000000A03F10803EFD107EB8C070AF101005A
:100C50001FFA80FA701E0604360C99D102B00020EB
:100C6000BDE8F08F2DE9F05F0546002092469B46D7
:100C700088460646814640241BE0284641464746B2
:100C8000224600F004FA53465A46C01A914110D346
:100C900011461846224600F0EBF92D1A67EB0108C1
:100CA0004F4622460120002100F0E2F917EB00092F
:100CB0004E41201EA4F10104DFDC484631462A469D
:100CC0004346BDE8F09F10B5431A934209D28318FA
:100CD000881803E010F8011D03F8011D521EF9D217
:100CE00010BD40EA01039B0703D009E008C9121FA9
:100CF00008C0042AFAD203E011F8013B00F8013BD6
:100D0000521EF9D210BDD2B201E000F8012B491EEB
:100D1000FBD270470022F6E710B513460A46044698
:100D20001946FFF7F0FF204610BD10B5002200E085
:100D3000521C835C8C5CA34201D1002BF8D1D8B249
:100D4000E1B2401A10BD034611F8012B00F8012B47
:100D5000002AF9D11846704710B54843044614F0EC
:100D600033F9002805D00021002C02D0641E015563
:100D7000FAE710BD2DE9FE4F804681EA0300C00F5F
:100D80000C46009021F0004123F00045B8EB020032
:100D9000A94105D24046214690461C460B460246D4
:100DA00023F00040104347D0270DC7F30A00C3F3D8
:100DB0000A510290401A019040286BDAC3F31300E5
:100DC00040F4801B0098924620B10023D2EB030A26
:100DD00063EB0B0B01985946C0F14002504600F0FE
:100DE00047F906460D4650465946019A00F05FF90C
:100DF00010EB08006141002487EA115284EAE7738E
:100E00001A4340D0009A62B3019A012A4FEA07526E
:100E100015DC001B61EB02014FF0004202EA0752B1
:100E2000CDE90042001C41F5801132462B4600F00E
:100E300096F903B0BDE8F08F40462146F9E7001B64
:100E400061EB0201001C41F5801300185B41201882
:100E5000A2F5001747EB030140EAD570B6196D41C2
:100E600011E06D084FEA360645EAC0754FEA0752B1
:100E7000001B61EB0201001C41F5801149084FEA9B
:100E800030000019514132462B4603B0BDE8F04F07
:100E900000F056B90098012240000023D0EB020276
:100EA00063EBE073009821464FEAE074B8EB000072
:100EB00061EB0401E9E783F000435BE781F0004167
:100EC00058E72DE9FE4F81EA030404F0004421F0C5
:100ED000004100944FF0000B23F0004350EA01045E
:100EE0005ED052EA03045BD0C3F30A54C1F30A553F
:100EF0002C44A4F2F3340194A0FB0254C1F3130177
:100F000041F48011C3F3130343F4801301FB024443
:100F100000FB034E840A970A44EA815447EA835748
:100F2000A4FB076802958D0A05FB07854FEA932C01
:100F300004FB0C542705029D4FEA065847EA163772
:100F4000B5EB08056EEB070C870E920E47EA81178A
:100F500042EA8312A7FB0201B6EB0B0164EB00042B
:100F60002B0D43EA0C335E1844EB1C50DA46514615
:100F7000E7FB0201C5F313044FEA0B3343EA1453B2
:100F80004FEA0432019C43EA0603A4F10C040294E4
:100F9000009CCDE900B400F0E2F803B0BDE8F08FAA
:100FA00000200146F9E730B5041E71F1000404DBAE
:100FB0004FF00044404264EB0101141E73F1000441
:100FC00005DB1C464FF00043524263EB0403101A4A
:100FD0008B4101D2012030BD002030BD30B5041E50
:100FE00071F1000404DB4FF00044404264EB010166
:100FF000141E73F1000405DB1C464FF000435242FF
:1010000063EB0403801A994101D2012030BD002016
:1010100030BD00F0004230F000400AD0C10D01F5B3
:101020006071C0F3160042EA0151C2084007114343
:10103000704700200146704701F0004330B421F0B2
:10104000004150EA010206D00A0DA2F56072C1F318
:101050001301002A02DC30BC00207047440F44EA30
:10106000C104C100E01830BC00EBC25000F031B840
:10107000202A04DB203A00FA02F100207047914058
:10108000C2F1200320FA03F3194390407047202A4D
:1010900004DB203A21FA02F00021704721FA02F322
:1010A000D040C2F120029140084319467047202ADF
:1010B00006DBCB17203A41FA02F043EAE07306E080
:1010C00041FA02F3D040C2F1200291400843194690
:1010D00070470029A8BF7047401C490008BF20F096
:1010E0000100704710B4B0FA80FC00FA0CF050EA2E
:1010F000010404BF10BC704749B1CCF1200421FAAF
:1011000004F411FA0CF118BF012121430843A3EBA9
:101110000C01CB1D4FEA00614FEA102042BF0020B6
:1011200010BC704700EBC35010440029A4BF10BC92
:101130007047401C490008BF20F0010010BC7047F8
:1011400010B5141E73F1000408DA401C41F10001CF
:1011500092185B411A4301D120F0010010BD2DE926
:10116000F04D92469B4611B1B1FA81F202E0B0FA1D
:1011700080F220329046FFF77BFF04460F4640EA9C
:101180000A0041EA0B0153465A46084313D0114660
:1011900053EA010019D0C8F140025046FFF777FF2B
:1011A00005460E46504659464246FFF761FF084342
:1011B00005D0012004E020463946BDE8F08D00202E
:1011C000054346EAE0762C4337430A986305E40A70
:1011D000A0EB08000022FD0A44EA47540A3002D579
:1011E00000200146E9E7010510196941DDE90845DC
:1011F00000196941BDE8F04DA2E70000064C074D1B
:1012000006E0E06840F0010394E8070098471034D6
:10121000AC42F6D3FEF7BCFFF05C0108305D01087C
:1012200070B58C1810F8015B15F0070301D110F8A8
:10123000013B2A1106D110F8012B03E010F8016BD5
:1012400001F8016B5B1EF9D12B0705D40023521E58
:101250000DD401F8013BFAE710F8013BCB1A921CC0
:1012600003E013F8015B01F8015B521EF9D5A142BE
:10127000D8D3002070BD0000B0EEC00A7047000057
:101280002DE9F04F81B02DED108B82B00C464CF261
:10129000E071C2F201014CF2AC6A0860C2F2010ACC
:1012A00000208AF8000010F0CBF99AF800100843EB
:1012B0008AF8000010F078FA9AF8001040EA01006D
:1012C0008AF8000084B301F0E1F88AED050A01F024
:1012D000DDF89AED051AB2EE08AA30EE410AB4EE36
:1012E0004A0AF1EE10FA41DD43F6AC0041F2B0617A
:1012F000C3F62230C3F6CE1141F23F62CAE91201B1
:1013000000209FEDB00AC4F21B12C4F22020CAE9EB
:101310001412CAF83C009FEDAC1A9AF8000081EE56
:10132000000A8AED110A1AE043F6AC0148F6C43708
:10133000C3F62231C3F6817741F2B06241F23F63D6
:10134000CAE911710021C3F6CE12C4F21B13C4F214
:101350002021CAE91322CAF85430CAF83C10C0B29E
:1013600002B0BDEC108B01B0BDE8F08F9FED978A05
:101370009FED97CADFED979A9FED979AB6EE00BA68
:101380000024B4EE00DAB3EE07FAB0EE48EA0AE061
:1013900001F07CF89AED051A30EE410AB4EE4A0AE3
:1013A000F1EE10FAA0DC9FEDF90A00F0FDFF4FF01E
:1013B000000BCAE91244CAE9144400BFCDF804B0D6
:1013C00000F0F2F9922000F0F9FA922000F0F6FA1B
:1013D000552000F0F3FA8046552000F0EFFA05465C
:1013E000552000F0EBFA8146552000F0E7FA074659
:1013F000552000F0E3FA0446552000F0DFFA0646D7
:1014000000F0CAF948EA052000B200EE100A4CF2DA
:101410001000C2F2010090ED011A49EA072000B263
:1014200002EE100A44EA062000B2B8EEC00AB8EE96
:10143000C22A03EE100A21EE000A21EE022AB8EEBB
:10144000C33A21EE031A20EE003A22EE024A34EEAD
:10145000033A21EE014A33EE043AF1EEC38A8AEDF3
:10146000090A9AED150A8AED0A2A8AED0B1AD34663
:1014700038EE800A8AED150A00F0A6F9802000F007
:101480009DFA552000F09AFA0446552000F096FA8D
:10149000552000F093FA8146552000F08FFA064659
:1014A000552000F08BFA8046552000F087FA05465B
:1014B000552000F083FA8246552000F07FFA074657
:1014C00000F07AF90F2C39D149EA062000B200EE7B
:1014D000100A4CF21000C2F2010090ED021AB8EEB0
:1014E000C00A9BED122A21EE000A48EA05208BED86
:1014F0000C0A32EE000A00B28BED120A00EE100A5E
:101500009BED133AB8EEC00A21EE000A4AEA072022
:101510008BED0D0A33EE000A00B28BED130A00EEDC
:10152000100A9BED144AB8EEC00A21EE000A8BEDBA
:101530000E0A34EE000A59468BED140A019CDA4675
:10154000002C4BD09BED0C0AB4EE6C0AF1EE10FAB5
:10155000C8BFF0EE40CA9BED0D1AB4EE6A0AF1EE78
:1015600010FAB4EE6D1AB8BFF0EE40AAF1EE10FA20
:10157000C8BFF0EE41DA9BED0E0AB4EE6F1AF1EE41
:1015800010FAB4EE6B0AB8BFF0EE41FAF1EE10FAC1
:10159000B4EE6E0AC8BFF0EE40BAF1EE10FAF4EE07
:1015A0004E8AB8BFF0EE40EAF1EE10FAF4EE488A47
:1015B000C8BFB0EE68EAF1EE10FAB8BFB0EE688AC4
:1015C0001CE000BF3F161B41C3F51C41000000009A
:1015D0003EC32E399A99193E6F12033ADBED0CCABD
:1015E000DBED0EBADBED0DDAF0EE6BEAF0EE6DFA44
:1015F000F0EE6CAAB0EE68EAB0EE688A3EEE480AF9
:10160000B4EE4B0A8AED040A3CEEEA2A3DEEEF1AEC
:10161000F1EE10FA3BEEEE0A8AED062A8AED071A81
:101620008AED080A19DCB4EE692AF1EE10FA14DC2E
:10163000B4EE691AF1EE10FA0FDCB4EE690AF1EEBD
:1016400010FA0ADCB0EE490A00F0AEFE41F26F700B
:10165000844204F1010BFFF4B1AE9AED120A9AED47
:10166000131A9AED152A9AED143A22EE0C2A20EE5E
:101670000C0A21EE0C1A23EE0C3A8AED120A8AEDBE
:10168000131A8AED143A8AED152A00F08DF8A2207B
:1016900000F094F9A22000F091F9552000F08EF9A5
:1016A0000446552000F08AF9054600F075F8E00080
:1016B000002440EA5511B4EB902F4FF60000CFF60E
:1016C000FF7018BF014300EE101AB8EEC00A20EEFA
:1016D0000D0A30EE0F0A8AED0F0A9AED040ABAF8E5
:1016E0000C00B4EE4B0A0130F1EE10FAAAF80C002F
:1016F0003FF74EAE9AED150A9FED251A30EE011A0E
:10170000B0EEC11AB4EE4B1AF1EE10FA3FF740AE4C
:101710009AED061AB4EE691AF1EE10FA3FF738AEF8
:101720009AED071AB4EE691AF1EE10FA3FF730AEEF
:101730009AED081AB4EE691AF1EE10FA3FF728AEE6
:101740009AED121A9FED132AB0EEC11AB4EE421AA6
:10175000F1EE10FA3FF71CAE9AED131A9FED0D2A29
:10176000B0EEC11AB4EE421AF1EE10FA3FF710AE25
:101770009AED141A9FED072AB0EEC11AB4EE421A80
:10178000F1EE10FA3FF704AEC5E500BF0AD7A33B60
:10179000CDCC1CC10AD7233C0020C4F2020010218A
:1017A000012203F05DB900000020C4F20200102104
:1017B000002203F055B9000040F20040C4F20200DC
:1017C0000121012203F04CB940F20040C4F20200B2
:1017D0000121002203F044B970B50446FFF7E4FF8D
:1017E000922000F0EBF8922000F0E8F8552000F08D
:1017F000E5F84CF2AC65C2F20105E870552000F046
:10180000DDF82871552000F0D9F86871552000F0F6
:10181000D5F8A871552000F0D1F8E871552000F0F6
:10182000CDF82872FFF7B8FFB5F903004CF21006A7
:10183000C2F2010600EE100A96ED011AB8EEC00AD7
:1018400094ED082A21EE000A20EE020A84ED000A37
:10185000B5F9050096ED011A00EE100AB8EEC00ABF
:1018600021EE021A21EE000A84ED010AB5F9070003
:1018700000EE100AB8EEC00A21EE000A84ED020A5A
:10188000FFF7A2FF802000F099F8552000F096F8AD
:10189000E870552000F092F82871552000F08EF87D
:1018A0006871552000F08AF8A871552000F086F87C
:1018B000E871552000F082F82872552000F07EF87B
:1018C0006872552000F07AF8A872FFF775FFE87883
:1018D0000F2843D1B5F90500317800EE100AB8EEB3
:1018E000C01A96ED020A20EE011A09B394ED092AF6
:1018F000B5F90700B5F9091031EE421A02EE100AE7
:1019000094ED0A3AB8EEC22A84ED031A01EE101AD9
:1019100094ED0B4A20EE022AB8EEC11A32EE432AA9
:1019200020EE010A84ED042A30EE440A14E000BFE0
:10193000B5F90700B5F9091002EE100A84ED031A93
:1019400001EE101AB8EEC22AB8EEC11A20EE022A31
:1019500020EE010A84ED042A84ED050AFFF724FF36
:10196000A22000F02BF8A22000F028F8552000F06B
:1019700025F8E870552000F021F82871FFF70CFFDA
:10198000E8782979C00040EA51114FF6000200239F
:10199000CFF6FF72B3EB902F18BF114300EE101A71
:1019A000B8EEC00AB4EE001A20EE010AB3EE071A30
:1019B00030EE010A84ED070A70BD000080B582B0E8
:1019C0004CF2E071C2F201010B688DF807004FF490
:1019D0007A7C0DF107010DF1060218460123CDF8BE
:1019E00000C005F0D5FC9DF8060002B080BD0000E7
:1019F00040F6541100EB8000C2F2000101EBC0027E
:101A0000137F012B18BF704751F83000518B03F042
:101A10001FB80000F0B581B00C4609680A68D2060C
:101A200044D50546C868C00640D500270097086819
:101A30000090486800900098204606F025FD4CF282
:101A4000E456C2F2010606EB85004068017B59B1FD
:101A5000D0F80D10077321B14068884706EB850068
:101A6000406802460CE000BFD0F80D10012202735E
:101A700021B10068884706EB8500406802460430C3
:101A80000168B2F81120204607F00AFA06EB85003B
:101A900040688068C06B0068016821F0080101603F
:101AA00020680168090701D00168406801B0F0BDF5
:101AB00070B54CF2E455C2F201052978002908BF3F
:101AC00070BD0446002602E001368E420CD205EBC2
:101AD000860040688068A042F6D1F0B22146FFF748
:101AE00099FF2978F0E700BF70BD0000FEE7000015
:101AF00040F67050C2F2000001F0DEBF40F67050B8
:101B0000C2F2000001F0D8BF40F69850C2F20000C7
:101B100001F0D2BF40F69850C2F2000001F0CCBFF5
:101B20002DE9F04F8DB089468246DDE91F1C1998DA
:101B30009B460592DDE91D32BDF87270DDE91A564B
:101B4000BDF86240DDF85C80CDF82A00CDF82210A7
:101B500001202721ADF82840CDF82E50ADF8326095
:101B6000ADF81870CDF81A30CDF81E20ADF826C0AB
:101B7000FFF7F2F804464FEA18200325A07255FA41
:101B800098F0C8F30726E07210F0E8FF55FA88F7DE
:101B9000E060384684F8048010F0E0FF0546C4F8A1
:101BA00006003046677110F0D9FF2061732028705D
:101BB000D4F8060041F6294380F80180D4F80600E5
:101BC000652150FA88F0C0F600038170BBF1000F68
:101BD00018BF5B46059A50464946009400F06EF8DF
:101BE0000AAB20600ECBDDE90676DDE9085C41F644
:101BF0001540C0F60000CDE90047CDE90265CDF8FB
:101C000010C00FF01DFB01462046C4F817100DB0A0
:101C1000BDE8F08F10B50446C068617DFFF77AF823
:101C20000020A08210BD0000F0B581B0014611F87F
:101C3000242F0746D1F81150732A287D08D140B9C6
:101C400097F82500AA7A904235D10120287500E046
:101C500088B36B7D97F83020EE7AD418E868B442E8
:101C600002D9194623E000BF1844FFF72CF897F873
:101C70003000697DEB7A0A18D1B299426A751AD19F
:101C8000E86850FA82F212F8012C652A0FD12B690C
:101C9000AA7A811C1846FFF716F80020A882D5F80A
:101CA00017000121A97500F091FEE868697DFFF732
:101CB00031F80020A88201B0F0BD00002DE9F0430A
:101CC0008BB00E46DDF848900546012039211F46AD
:101CD0009046FFF741F804464660E66140F67056CC
:101CE000C4F83170C2F200064CF26C570820B542BD
:101CF000C2F2010760612560C4F82C80C4F83590F9
:101D000084F8300002D0387801303870797807EBE9
:101D100081000462481C787009BB40F67055C2F21D
:101D20000005284602F0DAF92846022101F03CFDC0
:101D30002846102101F038FD40F69855C2F2000502
:101D4000284602F0CBF92846022101F02DFD284655
:101D5000102101F029FD2568D4F82C807878012124
:101D600021EA000005900E200A904FEA48100290E8
:101D700040F26C000022C2F2000007910892B542C6
:101D800008BFB81C02780991531C037001A92846AA
:101D9000069201F075FD20460BB0BDE8F08300000F
:101DA00080B588B0029100210823CDE90311059187
:101DB00006938DF81C10019102A901AB01F00CFDF6
:101DC00008B080BD002070470020704710B540F675
:101DD0009424C2F200044DF2B861C2F2010120461F
:101DE00000220DF059F84CF6B861C2F2010120460C
:101DF0000DF044F8002010BD10B540F69424C2F256
:101E00000004014620460DF039F820460DF010F888
:101E1000002010BD0020704791ED010A91ED021ADB
:101E200090ED012A90ED023A21EE021A20EE030A0B
:101E300031EE400A82ED000A90ED000A90ED021AA0
:101E400091ED002A91ED023A22EE011A23EE000AEA
:101E500031EE400A82ED010A91ED000A91ED011A7E
:101E600090ED002A90ED013A21EE021A20EE030ACD
:101E700031EE400A82ED020A7047000080F82C1013
:101E800080F82D1070470000012180F84D10704738
:101E900080F82F107047000090F82F1000F13502E5
:101EA000022988BF00F13D0210EE100A1060704751
:101EB000002180F84D10704780B582B013881BBA9E
:101EC0004FEA134C5388ADF800C01BBA4FEA134CCD
:101ED0009388D2881BBA12BA120C1B0CADF80620DC
:101EE0006A46ADF802C0ADF80430FFF759FF02B002
:101EF00080BD0000F0B585B00546592010F02EFEDB
:101F000059210446FEF706FFD5F846102A78D5F881
:101F10004200C4F85510D5F80E10C4F85100901EB8
:101F20000228A1F1010084F850200FD2C2B2032A86
:101F30001CD8D5F80A3040F67056C2F200060421CB
:101F4000B34208BF012102F201222AE0012A30D166
:101F5000C2B2032A18D8D5F80A1040F67053C2F25C
:101F60000003C91A18BF032119E000BF481FD5F8A4
:101F70000A1040F67053C2F20003C91A18BF0321B9
:101F800002F201220DE000BFD5F80A3040F670568B
:101F9000481FC2F200060521B34208BF022102F227
:101FA000052284F84F0084F84E10D5F80E10C5F8BD
:101FB000122042F2F153D5F80A00D5F81220C0F6EB
:101FC0000003C5F81630C5F81A400094FFF776FEF6
:101FD000C4F82200681C04F12A060FF0EFFC014649
:101FE00030462322FEF76FFE41F6B16040F6000254
:101FF000D5F82210D5F82A30D5F83A70C0F600008E
:10200000C4F202024FF00F0CC5F81E00C5F82620DE
:10201000C5F83EC0D5F83260D5F836E0C5F82E4098
:102020008DE85040CDE9037C0FF00AF94CF258617D
:10203000C2F20101C4F8260028890A782084501CC5
:10204000087001EB820001214460204684F84D10A5
:1020500005B0F0BD40F68060C2F2000002F01EB98B
:1020600040F6C050C2F2000002F018B94DF6BC6054
:10207000C2F2010002F012B940F62060C2F2000084
:1020800002F00CB94DF67C70C2F2010002F006B904
:102090004DF61C70C2F2010002F000B9B0B540F676
:1020A000E064C2F2000446F20C452046C4F2020588
:1020B00002F0F4F84EF22C10C2F20100202180F858
:1020C0004110012084F83500216805F14C0081425F
:1020D0000CD94FF4001028604FF4801028604FF4A2
:1020E00000202860002084F83400B0BD46F20800CB
:1020F000C4F2020000F1B00291420FD94FF4001176
:10210000C0F800144FF48011C0F800144FF40021FF
:10211000C0F80014002084F83400B0BD00F1500273
:1021200091424FF4001394BF0360436091424FF417
:10213000801394BF0360436091424FF4002194BF29
:1021400001604160002084F83400B0BDD0F82D005B
:102150008170C17070470000B0B5D0F835500446AA
:10216000D5F8250000F032FCA08C9FED3B1A01BA97
:10217000080C2880E28C2B46D2BA00EE102AB8EE6A
:10218000C00A20EE011A11EE102A43F8022F228D08
:102190009FED322AD2BA01EE102AB8EEC11A21EE12
:1021A000022A12EE102A5A6094F82A206A81EA89DB
:1021B00094F82B30C2EB114109B28142AB8109D1B5
:1021C00095F82420012A12D1B1F57A6F08DD4FF677
:1021D000FF7109E0012285F82420B1F57A6FF6DC61
:1021E00011F57A6F03DA01212A8C11442984298C94
:1021F0006A8C00EB41310BB29A1A02EE102A9FED65
:10220000183AB8EEC22A22EE032A12EE102AEA6128
:102210002A699FED142A03EE102A23EE022A9FED6D
:10222000123A6A6920EE030A32EE000A9FED0F2A85
:102230009FED0F3A10EE103A00EE102A20EE020A3F
:1022400021EE031A30EE010A10EE102A29832B61C9
:102250006A616983E881B0BD0AD7233C6F12833A73
:102260000000343D9899193E96430B3CD0CCCC3DB0
:10227000FBED6B3A012180F831107047F0B585B065
:1022800005463C2010F06AFC3C210446FEF742FD66
:10229000D5F80E10D5F84200D5F846206063481EE8
:1022A000C3B2042BA2630BD8D5F80A1040F67052C3
:1022B000C2F20002891A18BF01214A0001460AE051
:1022C000D5F80A3040F6705C0539C2F2000C0322E2
:1022D000634508BF012240F2013353FA80F0C5F88C
:1022E000120084F8331084F8322042F25913D5F8E2
:1022F0000A00D5F80E10D5F81220C0F60003C5F874
:102300001630C5F81A400094FFF7D8FCC4F829002D
:10231000681C0FF053FBC4F82D0042F2A130D5F831
:1023200032E0C0F600004FF0050CD5F82210D5F8C9
:102330002620D5F82A30D5F83660C5F81E00C5F835
:102340003EC0D5F83A70C5F82E40CDE9004E0DF1EB
:10235000080E8EE8C0100EF073FF2989C4F825001E
:10236000618440F21871C2F200014A78012084F8B9
:102370003100501C487001EB820120464C6105B0D1
:10238000F0BD0000D0F82D00417900F10B020229C8
:1023900088BF00F1130210EE100A106070470000B1
:1023A000002180F83110704741F204004CF2CC5209
:1023B000CEF20000C2F20102016892ED011AB8EEFD
:1023C000411A21EE000A16E00268521A01EE102AA4
:1023D000B8EE411AB4EE410AF1EE10FAD8BF7047D8
:1023E0000268521A01EE102AB8EE411AB4EE410A00
:1023F000F1EE10FA15DD0268521A01EE102AB8EE5D
:10240000411AB4EE410AF1EE10FA0ADD0268521ADE
:1024100001EE102AB8EE411AB4EE410AF1EE10FABC
:10242000D2DC704710B582B041F2040CCEF2000C41
:10243000DCF8001000914CF2CC51C2F20101DDF841
:1024400000E003684A68009C0460087880B90120B5
:102450000870DCF80000019001984C69A04202D29B
:10246000086901300861DCF800004861002008704C
:10247000AEEB030000EE100A01EE102AB8EE400A9F
:10248000B8EE411A80EE010A02B010BD2DE9F0430A
:1024900083B041F20401CEF20001086801904CF2D1
:1024A000CC50C2F20100027872B9012202700A68AF
:1024B0000292029A43699A4202D20269013202618F
:1024C0000968416100210170D0E90169D0E9038008
:1024D000019F00244FF0FF31E0FB01743846214694
:1024E00032460023FEF7BEFB0546A0FB060201FBB9
:1024F00006213E1A8C41304621464A460023FEF70B
:10250000B1FB87B207FB09F0301A64F100014246C3
:102510000023FEF7A7FB01EE107A9FED0D2A00EED7
:10252000105AB8EE411A80B2B8EE400A21EE021AF3
:1025300031EE000A01EE100A9FED062AB8EE411AAC
:1025400021EE021A30EE010A03B0BDE8F08300BFAD
:102550006F12833ABD37863510B581B044F2402101
:10256000C0F20F0100FB01F244F6D350C1F2620049
:102570004EF6FC51A2FB0003CEF20001086841F2C6
:10258000040CCEF2000C40F080704FF0000E08609A
:10259000CCF800E04DF683605CF8041CC4F21B30FC
:1025A000A2FB000441F001004CF2CC514CF8040CA9
:1025B000C2F201019809A30CC1E90120C1E9033E5F
:1025C000087808B101B010BD01220A70DCF80000E3
:1025D000009000984B69984238BF0A61DCF800000F
:1025E00048610020087001B010BD00007047000075
:1025F000B0B5D0F835500446D5F8260000F0E6F91D
:10260000A08C95F8503000BA000C2880E18C032B88
:1026100009BA4FEA1142A5F80520218D09BA4FEAFF
:102620001141A5F8071014BF94F82A4000246B88C4
:102630006C72C31A1BB2834208D12C79012C11D1C0
:10264000B3F57A6F07DD4FF6FF7308E001242C71B4
:10265000B3F57A6FF7DC13F57A6F03DA01236C892F
:1026600023446B81B5F90A302C8C00EB43331C1BDF
:1026700000EE104A9FED1B1AB8EEC00A20EE010AC8
:1026800010EE104AEC61EC689FED170A01EE104A5B
:1026900012B221EE000A01EE102A9FED142AB8EEC4
:1026A000C11A21EE021A30EE010A10EE102AEA6079
:1026B0002A699FED0F0A01EE102A09B221EE000AE5
:1026C00001EE101A9FED0B2AB8EEC11A21EE021A84
:1026D00030EE010A10EE101A6B612961AB6168805F
:1026E000B0BD00BF0000343DD0CCCC3D6666663F37
:1026F000D0CC4C3D3333733FB0B54CF28C6EC2F24C
:10270000010E9EF8001000293ED04A1E032A01F057
:10271000030C3BD20023BCF1000F35D00EEB83013C
:102720004A68137C012B0AD10378552B07D14378D3
:10273000552B04D1C378152B04BFC3889380BCF1FB
:10274000010F21D08A68137C012B0AD10378552B05
:1027500007D14378552B04D1C378152B04BFC38808
:102760009380BCF1020F0FD0C9680A7C012A0BD1FB
:102770000278552A18BFB0BD4278552A04D1C278D4
:10278000152A04BFC0888880B0BD00BF01F0FC01DD
:10279000002302E004339942BDD00EEB830254685B
:1027A000257C012D0AD10578552D07D14578552D69
:1027B00004D1C578152D04BFC588A5809468257CF3
:1027C000012D0BD10578552D08D14578552D05D112
:1027D000C578152D04BFC588A58000BFD468257CA9
:1027E000012D0BD10578552D08D14578552D05D1F2
:1027F000C578152D04BFC588A58000BF1269147C5B
:10280000012CC7D10478552CC4D14478552CC1D1A2
:10281000C478152C04BFC4889480BBE790ED000AEF
:1028200090ED011A91ED003A91ED014A90ED022AE6
:1028300091ED025A23EE000A24EE011A31EE000A4D
:1028400025EE021A30EE010A70470000082002F05F
:102850001FB80000102002F01BB80000202002F07A
:1028600017B8000072B600BFFEE7000080B543F65F
:102870001043C4F20203D3F800C04FF4407E2CF49E
:1028800040721A601A68032938BF4FEA012E42EAE3
:102890000E011960196821F0F8011960196841EA00
:1028A000C00040F002001860186840F480301860E2
:1028B00080BD000043F60040C4F2020001688905B3
:1028C0000FD5016821F400710160016841F40061D5
:1028D0000160016821F400610160016841F4007148
:1028E00001600168490558BF7047016821F48061A3
:1028F0000160016841F480510160016821F4805158
:102900000160016841F480610160704701F0BEBE62
:1029100010B52DED028B04462C30B0EE408AFFF747
:1029200081FD94ED031A84ED0A0A38EE411A81EE16
:10293000003A94ED071A94ED012A94ED024A84EDD1
:10294000048A84ED038A33EE411A81EE001A94ED75
:10295000000A22EE032A20EE080A32EE000A84ED75
:10296000053A84ED061A24EE011A30EE014A94ED80
:10297000091AB0EE442AB1EE415AB4EE454A84ED4C
:10298000084AF1EE10FAB8BFB0EE452AB4EE412A7B
:10299000F1EE10FAB0EE420AB4EE454AC8BFB0EE0E
:1029A000410AF1EE10FA84ED073A09DBB4EE412A50
:1029B000F1EE10FAC8BF84ED080ABDEC028B10BD21
:1029C00084ED080ABDEC028B10BD000010B5044672
:1029D00000206062206A0121217538B1E16929B1C6
:1029E00088470121002808BF02212175E0680028DE
:1029F00008BF10BD618A0122BDE8104002F030B866
:102A00002DE9F0439BB044A021210AF0DFF94CF2FC
:102A10002C79C2F20109C9F8240042A00F210BF061
:102A20009BFAC9F8280043A00F210AF0CFF9C9F892
:102A30002C0043A007210BF08FFAC9F8300045F6AF
:102A40007820C0F60100416982694FF000084FF418
:102A5000202E4427C469056A466AD0F828C040F68B
:102A6000985042F6F543CDE9087E44F64277CDE929
:102A7000008102A9C2F20000C0F60003C5F241279E
:102A800074C14FF4887140F20112CDF82880079785
:102A9000CDF818C0FFF744F8C9F83400012089F8D0
:102AA0000200082089F8008010F058F8C9F83800B2
:102AB0000EF0C4FFC9F83C0007F0FEFC2449C9F839
:102AC000400023A0071D13918ECFD0E90565C06992
:102AD0000DF1500C8CE88E0025491A9024A0CDE908
:102AE0001865071DD0E90565C0690B918ECF0DF102
:102AF000300C129013A88CE88E00CDE910650AF016
:102B0000F1FDC9F844000BA80AF0ECFDC9F8480033
:102B10001BB0BDE8F08300BF67696D62616C5F63E5
:102B20006D64000067696D62616C5F75706C6F61E8
:102B30006400000073686F6F745F636D6400000071
:102B400073686F6F745F75706C6F61640000000074
:102B500054E00120000000000AD7A33C0000000060
:102B60000000000000000000020000000000000063
:102B700054E00120040000000AD7A33C000000003C
:102B80000000000000000000020000000000000043
:102B9000B0B5A6B040F2B470C2F200000025C0F893
:102BA0001350C0E9025505614BA00F210AF00EF940
:102BB00040F23C74C2F20004A0604BA021210BF053
:102BC000CBF9E06021200FF0C9FF21212061FEF741
:102BD000A1F807F071FC60610EF030FFA0610520E4
:102BE0006823C0F20010CDF8823046F650131390DF
:102BF0000120C6F27433C0F20300CDF87E30636961
:102C0000149040F63500ADF8540003F12C00CDF8D7
:102C10008E0003F11C00CDF892000320C0F6D20014
:102C2000CDF80600CD20CDF8120046F25910C0F2C2
:102C30007700CDF8320003F1340040F6985C40F2A2
:102C40000132CDF8420003F12400C2F2000C012150
:102C5000CDF85E204FF40052CDF8460013A8CDF811
:102C600056C0CDF85A10CDF86250CDF86650CDF868
:102C70006A50CDF86E50CDF87250ADF87620CDF890
:102C80007A50ADF88650CDF88A508DF80010CDF806
:102C900001508DF80550CDF80AC0CDF80E10CDF8D2
:102CA0001650CDF81A50CDF81E50CDF82250CDF860
:102CB0002650ADF82A20CDF82E50CDF83650ADF87C
:102CC0003A50CDF83E50FFF7D9FAE0616846FFF779
:102CD00011F9206226B0B0BD67696D62616C5F75E5
:102CE000706C6F616400000067696D62616C5F63A6
:102CF0006D6400004CF22C73C2F20103D0F824C0C2
:102D0000826A9B6BD0F835105A60C3F800C000206F
:102D10008882D1F8170001228A75FFF757BE00009C
:102D20002DE9F0412DED028B40F23C77C2F2000715
:102D3000D7E903010BF008F90146386A012951D19E
:102D4000D0F8261040F2B474097DC2F200040129C3
:102D500052D10121617501884289A4F80910F969ED
:102D6000A4F80B20CB693A69D1F82560C4F80D307E
:102D70001278337D042AA37500F27C80DFE812F01C
:102D800045000600AC000600560100BFFFF77CF8C6
:102D9000F869FFF76FFA38694178032908D0386A73
:102DA0000021FFF76BF8F8690021FFF7CFF93869C8
:102DB0000178032940F07C81396A027D088841F658
:102DC000D201002A08BF40F6D2010AF02BF800EE2B
:102DD000100AB8EEC00A87ED100A0EF0B5FA38698D
:102DE0006BE100BFFA69002180F84D1082F83110C4
:102DF000BDEC028BBDE8F081F9693B69D1F8256033
:102E000000221A70337D6275A37500233D4625F8B4
:102E1000703F40F698562A46C2F2000680F84D30C0
:102E200081F8313022F8083D304640F2FF11C4F8F5
:102E30001130FFF741F8304640F2FE312A46FFF7E5
:102E40003BF84CF2C005C2F20105284609F08EFE9F
:102E500005F5A87009F08AFE05F1540009F086FE18
:102E600005F1A80009F082FE05F5FC7009F07EFE70
:102E7000B9E200BF00233D4625F8703F40F6985662
:102E80002A46C2F2000680F84D3081F8313022F82F
:102E9000083D304640F2FF11FFF70EF8304640F291
:102EA000FE312A46FFF708F84CF2C005C2F20105D0
:102EB000284609F05BFE05F5A87009F057FE05F1FC
:102EC000540009F053FE05F1A80009F04FFE05F586
:102ED000FC7009F04BFE86E2FEF7D6FFF869FFF7BB
:102EE000C9F938694178022908D0386A0121FEF70A
:102EF000C5FFF8690121FFF729F938698168386A47
:102F000000EE101AFEF7C8FF38694168F86900EE54
:102F1000101AFFF737FA40F2B4557869C2F200058B
:102F2000A97C426B002900EE102A00F04F8129682D
:102F3000406A40F28C08C2F2000800EE901A01EEDE
:102F4000100A08F1F00009F0FDFC786998ED4C1AC0
:102F5000406AB0EE083A00EE100AA8684CF2C006CB
:102F600002EE100A22EE032AC2F2010672EE010AF4
:102F700006F1FC0009F0EEFB96ED510A3A46BDEE73
:102F8000C00A10EE100A22F8480F40F69850C2F21C
:102F9000000040F2FF11FEF78FFF68689FEDD80A2E
:102FA00000EE900AF4EE400AF1EE10FA06DBB3EE02
:102FB000000AF4EE400AF1EE10FA04DD10EE100AF9
:102FC000F0EE400A6860F8699FEDCE8AC169006939
:102FD00000EE101A01EE100A21EE081A08F50C7026
:102FE00009F0B0FCF86998ED9C1A006900EE100A2F
:102FF000E86820EE080A02EE100A72EE010A06F5F1
:10300000137009F0A7FB96EDA50A3A46BDEEC00A7B
:1030100010EE100A22F8500F40F69850C2F200004D
:1030200040F2FE31FEF748FF53E100BF79884A1CA9
:103030007A8041B97969496B00EE101ABDEEC00A79
:1030400010EE101AB9803978012919D17969B7F9C8
:103050000420496B01EE102A00EE101AB8EEC11AD6
:1030600030EE410AB0EEC00AB7EE001AB4EE410AE3
:10307000F1EE10FA04DCAFF30080386A00213980E9
:1030800097ED090A9FEDDE1AC06820EE010ABDEE39
:10309000C00AB86210EE100A208040F69850C2F2C2
:1030A000000040F2FF11224608F08CFD9BE100BFBA
:1030B000016939640021C4F81110C1687964C178CC
:1030C000052901D0032909D10178386A032911D1D2
:1030D000018800EE101AB8EE400A10E00178386A54
:1030E000032940F01181018800EE101AB8EE400A61
:1030F0000FE100BF416900EE101AB8EEC00AC068C7
:1031000040F28C06D7ED100AC2F2000601EE100A5A
:1031100006F1A00009F016FC386A3969C0689FED15
:10312000B92A00EE100AD1F8190096ED381A03EE0C
:10313000100A4CF2C00523EE022AC2F2010572EE1B
:10314000010A05F1A80009F005FB95ED3C0A40F6DF
:103150009858BDEEC00A10EE100A3A46C2F20008B6
:1031600022F8580F404640F2FF11FEF7A5FEF8691D
:103170009FEDA58AC1690069D7ED110A01EE100A19
:1031800000EE101A21EE081A06F5F07009F0DAFBCD
:10319000F869D6ED880A006900EE100A20EE080AE8
:1031A00005F5FC7009F0D6FA95ED900A3A46BDEEA9
:1031B000C00A10EE100A22F8600F404640F2FE31BD
:1031C00005F5A876FEF778FE2846FBE03969406AE7
:1031D0008A68D1F8191040F28C0501EE100A02EE4F
:1031E000101AC2F2000500EE902A31EE421A05F1E3
:1031F000500009F0A7FB78693969406A95ED241AF7
:1032000000EE100A51F8190FBFEE083A02EE100A4C
:10321000486832EE011A02EE100A4CF2C00622EEA5
:10322000032AC2F2010671EE020A06F1540009F007
:1032300091FA96ED270A40F69858BDEEC00A10EEB6
:10324000100A3A46C2F2000822F8480F404640F2FF
:10325000FF11FEF731FED7E90410C269C06A496860
:1032600000EE100A00EE901A01EE102A05F5C87063
:1032700009F068FB78693969C06995ED741A00EE48
:10328000100AD1F8150002EE100A32EE011AF1EE22
:10329000410A06F5D27009F05DFA96ED7B0A3E46CA
:1032A000BDEEC00A10EE100A26F8500F404640F25C
:1032B000FE313246FEF700FED5F8D001396946F8F6
:1032C000140CD1F81D0046F81C0CD1F8150046F876
:1032D000180C4CF2C005C2F2010505F5A87009F002
:1032E00045FC05F5FC7009F041FC284609F03EFC60
:1032F00005F1A80009F03AFC0EF026F873E000BFD3
:10330000000020C25177D63D416900EE101AB8EE98
:10331000C00AC06840F28C06D7ED100AC2F200065F
:1033200001EE100A304609F00DFB386A4CF2C00578
:10333000C068D6ED100AC2F2010500EE100A284658
:1033400009F008FA95ED120A40F69858BDEEC00A49
:1033500010EE100A3A46C2F2000822F8580F404612
:1033600040F2FF11FEF7A8FDF8699FED278AC169B9
:103370000069D7ED110A01EE100A00EE101A21EED5
:10338000081A06F5A07009F0DDFAF869D6ED600AB2
:10339000006905F5FC7600EE100A20EE080A3046BA
:1033A00009F0D8F995ED900A3A46BDEEC00A10EE44
:1033B000100A22F8600F404640F2FE31FEF77CFD15
:1033C00005F1A80009F0D2FB304609F0CFFB4CF222
:1033D000C005C2F2010505F1540009F0C7FB05F56F
:1033E000D27009F0C3FB38690178B86804F8081F87
:1033F0002146BDEC028BBDE8F04109F0D3BC00BF13
:1034000000606A46CDCC4C3F5177D63D70B52DED6E
:10341000028B4CF22C76C2F20106706B4CF2A07457
:10342000D0F81700C2F20104007D012832D1B06B40
:103430009FEDD51AB0F900109FEDD63A00EE101AA4
:10344000B8EEC00A20EE010A9FEDD01A9FEDD02AF7
:10345000B4EE410AF1EE10FAB0EE401AB4EE430AAF
:10346000A8BFB0EE421AF1EE10FAD8BFB0EE410A92
:1034700010EE101AC4F83B10C18800EE101AB8EE16
:10348000400A10EE101AC4F80B108088A4F8090046
:1034900005E000BF0020C4F83B00C4F80B00B06A90
:1034A00004F10F010AF050FD207F01281CBF00200D
:1034B000A0773078C8B100210228B1700ED0012861
:1034C00013D13089013001B2142930810DDB022083
:1034D000307040F20110A6F86A0006E070890130F1
:1034E00081B20A29708100F04981306B06F15D01DB
:1034F0000AF02AFD96F85D0001281CBF022020700A
:10350000F06BD0F86D10097D012907D1B17879B938
:1035100032786AB90120B07028E000BF0020B07096
:103520000020A0772070012086F86A006AE000BFC2
:1035300001291BD00029F3D0007F032850D0022896
:1035400052D001285ED10FF021FC706CB6EE008ADB
:103550000021B0EE480AA6F86A100AF0F7F8B06C3D
:10356000B0EE480A0AF0F2F84CE000BF207F0128D4
:1035700048D1F088411C88B21D28F18010D8208ADB
:1035800041F2D301401A002110F5805F4FF0000096
:1035900038BF012084F83200A177C4F82A1031E046
:1035A000C0087C2802D80320A0772BE0316C0020D3
:1035B000496BF0800220B070A077C4F826106069D3
:1035C000218AB4F91220C4F8220001EB423000EE47
:1035D000100AB8EEC00A10EE100AC4F82E0011E06E
:1035E0000EF05AFA00200BE0316C0020A07720701A
:1035F000F070486BC96AC4F826000120C4F8221094
:10360000A6F86A00F07804F11E05002804BF012125
:1036100086F86A10217884F82000F06A84F8211076
:10362000214609F0BFFB706A294609F0BBFBA07F69
:1036300006F16402E07740F69850C2F200004FF4C1
:103640008871FEF7ADFB208A9FED531AA0F6D200D9
:1036500000EE100A6069642202EE100A306C22EE5D
:10366000012A406BBDEEC22A12EE101A02EE100AB9
:1036700022EE011ABDEEC11A11EE100AA6F8700072
:1036800040F2B450C2F20000A6F86E10B0F8151067
:1036900023785143A6F86C10617F96F8582001F00A
:1036A000010102F0FC020A44217FB8EEC00A61F376
:1036B0004102591EC9B286F8582004299ABF37A280
:1036C000515C0021F27886F85A10022A08D0012AAB
:1036D0000AD096F85910002A21F01E0109E000BF17
:1036E00096F85910022202E096F85910012262F36E
:1036F0004401C27D007C86F85C2096F85D2000F0D5
:10370000010001F0DE019FED271A41EA401002F0AE
:103710000101084420EE010A86F85900BDEEC00AF6
:10372000B08910EE101AA6F87210411C0828B18159
:1037300010D0042814D078B940F6985006F15802F9
:10374000C2F200004FF49071BDEC028BBDE87040F6
:10375000FEF726BB0020B081BDEC028B70BD00BF20
:1037600040F6985006F16C02C2F200004FF49871D6
:10377000BDEC028BBDE87040FEF712BB012080F368
:1037800013880DF0CBFD00BF0AD7A33BCDCC4CBDB9
:1037900000000000CDCC4C3D0000C84203000100F9
:1037A000020000006159443F90F82020013A012AAC
:1037B00008D8006800F11402002013681943116052
:1037C000704700BF00F1240201204FF480211368EC
:1037D000194311607047000010B590F820E0D0F850
:1037E00000C0AEF1010EBEF1010FDCF808E011D807
:1037F0001EF0E05F18D0CEF3016E012000FA0EF04B
:1038000018608B68D3B14868CC6844EAC0000343B1
:1038100018E000BF00F1240101204FF480220B6862
:103820001A430A6010BD00BF00F1240101204FF4CB
:1038300000120B681A430A6010BD00BF0868CB680D
:1038400043EA40530CEB0E10C0F880310B69C0F80E
:103850008431097D012905D100F5C2710B6843F45B
:1038600080730B605168C0F88C11126800F5C0714C
:10387000C0F88821002001220B681A430A6010BD9D
:10388000B0B590F82020013A012A2FD846F2006006
:10389000C4F20000026842F001020260026822F4F1
:1038A0007C520260D1F814E0CC694A6A0368012CAA
:1038B00043EA022202600EF01F024FF0010303FAF6
:1038C00002F2C3696FEA020C23EA0203C36113D058
:1038D0002CBBC36803EA0C03C360CB688C8844EA42
:1038E000034300EBCE0423640B4611E0416A41F42C
:1038F000802141620120B0BDC3681343C3600B68DF
:103900008C8844EA034300EBCE04236401F10C03EA
:103910008C681B8843EA044300EBCE04636443686D
:103920008D6943EA0204D1F810E0096A002D08BF4E
:1039300003EA0C0444604369BEF1000F43EA020449
:1039400008BF03EA0C040129446102D1C169114393
:10395000C161016821F0010101600020B0BD0000DB
:103960007047000090F82020013A012A84BF00200F
:10397000704700681022002908BF0C22805800F010
:103980000300704710B590F82040013C012C7BD813
:10399000D0F800C0002900F08180DCF81040A407B6
:1039A00000F081800CEB011CDCF8B0410CF5D87EF6
:1039B00014F004049460DCF8B04119BFE4085460CA
:1039C000640D1460DEF800400CF5DA7E04F00204A9
:1039D000D460DCF8B44124075ABFDEF8004004F09C
:1039E0000F0408241461DEF800400029C4F3072402
:1039F0009461DEF800404FEA14445461DCF8B821C9
:103A00001A70026802EB0112D2F8B8214FEA1222B2
:103A10005A70026802EB0112D2F8B8214FEA124242
:103A20009A70026802EB0112D2F8B8214FEA1262D2
:103A3000DA70026802EB0112D2F8BC211A71026836
:103A400002EB0112D2F8BC214FEA12225A7102682D
:103A500002EB0112D2F8BC214FEA12429A710268BD
:103A600002EB0112D2F8BC214FEA1262DA7100684F
:103A700014BF00F1100100F10C01002020220B689E
:103A80001A430A6010BD00BF00F1240101204FF469
:103A900080220B681A430A6010BD00BFDCF80C409E
:103AA000A4077FF47FAF00F1240101204FF400123E
:103AB0000B681A430A6010BD2DE9F04F81B004462F
:103AC00000684669D0F804908768D0F80CB0D0F848
:103AD00010A0D0F81880F10704D1002530071DD4BC
:103AE00024E000BFF90710D00121BA07816009D492
:103AF000780700F1AF80380700F1B680204600F06B
:103B00001BFB02E0204600F019FB0025F80500F140
:103B10008780F80300F1B180300707D51BF0100053
:103B200004D0206845F400751021C160700708D5E5
:103B30001BF0080005D020680821C160204600F075
:103B4000FFF9B00706D52068C068800702D020467C
:103B500000F0F8F9700607D51AF0100004D02068BC
:103B600045F4806510210161B00608D51AF00800FF
:103B700005D0206808210161204600F047FAF006D0
:103B800006D520680069800702D0204600F040FA80
:103B9000B00308D519F0100005D02068102141604D
:103BA000204600F099FAF00308D519F0080005D076
:103BB000206808214160204600F0CAFA300440F134
:103BC0009B805FEA497040F1948006F4807008EAB7
:103BD000102028435FEA8871014648BF41F0020186
:103BE000B20558BF01465FEA48700D4648BF45F030
:103BF0000405700558BF0D46300540F17A8018F075
:103C0000700000F076801038000905286CD8DFE8D5
:103C100000F003595D61656945F0080564E000BF87
:103C200020684FF48071BA0581600BD4780515D4F3
:103C300038051DD4204600F083FAF8037FF56CAFF9
:103C40001BE000BF204600F07DFAF8037FF564AF6B
:103C500013E000BF4FF4006558E700BF05F50055BD
:103C6000F8037FF559AF08E04FF480554EE700BFE9
:103C700005F58045F8037FF54FAF20684FF480319C
:103C8000BA0381600AD4780310D4380314D42046D0
:103C900000F05AFA30073FF541AF47E7204600F001
:103CA00055FA30073FF53AAF40E700BF05F500454C
:103CB00030073FF533AF39E705F5803530073FF57D
:103CC0002DAF33E745F010050EE000BF45F02005AD
:103CD0000AE000BF45F0400506E000BF45F0800562
:103CE00002E000BF45F480752068816921F0700111
:103CF000816120680421416055B1606A40EA050194
:103D00002046616201B0BDE8F04FFFF729BE00BF59
:103D100001B0BDE8F08F0000B0B5C8B1044690F81E
:103D2000200010B9204600F071F82068016841F0C9
:103D30000101016000F09AFE054600BF206841685D
:103D4000C90707D100F092FE401B0B28F6D312E002
:103D50000120B0BD016821F00201016000F086FE83
:103D6000054600BF2068416889070DD500F07EFE3A
:103D7000401B0B28F6D3606A052140F400306062D6
:103D8000012084F82010B0BD217E0268012922F0B4
:103D9000800208BF80320260617E0268012922F041
:103DA000400208BF40320260A17E0268012922F071
:103DB000200208BF20320260E17E0268012922F061
:103DC000100218BF10320260217F0268012922F020
:103DD000080208BF08320260617F0268012922F0F0
:103DE000040208BF04320260D4E901C2D4E90335F9
:103DF00061691A432A431143ACF101021143C161C5
:103E000000200121606284F82010B0BDB0B586B0FA
:103E1000006846F60002C4F2000200219042CDE99B
:103E20000411CDE90211019136D046F20041C4F2ED
:103E30000001884240F0828040F2CC71C2F2000161
:103E40000A6843F64000C4F20200531C0B6052B9EA
:103E500000210091016841F000710160016801F0EA
:103E60000071009100990021009150F8101C152458
:103E700041F0080140F8101C50F8100C142500F017
:103E800008000090009840F20040C4F2020000F5E3
:103E90000060032136E000BF43F64000C4F2020098
:103EA0000091016841F080610160016801F080616A
:103EB0000091009940F2CC71C2F200010A68531CD3
:103EC0000B6052B900210091016841F0007101605E
:103ED000016801F00071009100990021009150F8F3
:103EE000101C412441F0020140F8101C50F8100C45
:103EF000402500F002000090009840F20040602150
:103F0000C4F20200019102210291002103910321D8
:103F100004910921059101A900F0C6FC284605215C
:103F2000002201F0BBFB284601F0A4FB204605213E
:103F3000002201F0B3FB204601F09CFB06B0B0BDAF
:103F4000704700002DE9F04782B000210446FFF7DA
:103F500009FD002857D04CF26C5AC2F2010A0AF14E
:103F60000409E84606E000BF20460021FFF7FAFCFE
:103F7000002848D0204600214A464346FFF702FD6C
:103F80009AF801000028EFD0DAF80410C0F1000C14
:103F9000A0F1010E002502E00435A842E4D00AEBAE
:103FA0008506376A3A68A24202D1FA6A91421CD069
:103FB000AE45D9D0776A3A68A24202D1FA6A9142F4
:103FC00013D00CEB0502971CCED0B76A3B68A34216
:103FD00002D1FB6A994208D00332C5D0F76A3A6829
:103FE000A242D9D1FA6A9142D6D1DAF8142007F167
:103FF0002400694687F83020FCF765FED7F83110B9
:1040000009B13846884702B0BDE8F0877047000024
:104010002DE9F04782B001210446FFF7A3FC0028F8
:1040200057D04CF26C5AC2F2010A0AF10409E84670
:1040300006E000BF20460121FFF794FC002848D08D
:10404000204601214A464346FFF79CFC9AF80100AE
:104050000028EFD0DAF80410C0F1000CA0F1010E36
:10406000002502E00435A842E4D00AEB8506376A51
:104070003A68A24202D1FA6A91421CD0AE45D9D028
:10408000776A3A68A24202D1FA6A914213D00CEBE5
:104090000502971CCED0B76A3B68A34202D1FB6AE7
:1040A000994208D00332C5D0F76A3A68A242D9D102
:1040B000FA6A9142D6D1DAF8142007F12400694651
:1040C00087F83020FCF7FFFDD7F8311009B13846EA
:1040D000884702B0BDE8F08770470000B0B50446DD
:1040E00090F8200001281DD1022084F820002068CB
:1040F000016821F00101016000F0B8FC054600BF35
:1041000020684068C00713D000F0B0FC401B0B28AB
:10411000F6D3606A40F400306062052084F8200025
:104120000120B0BD606A40F4002060620120B0BD93
:1041300000206062B0BD00007047000070470000C2
:104140007047000070470000704700007047000093
:104150007047000070B5866D044600F087FC94F847
:104160003510022928D105462068216C026822F00A
:1041700016020260426922F08002426109B9A16C14
:1041800019B1016821F008010160016821F0010105
:10419000016000BF20680068C00715D000F066FC11
:1041A000401B0628F6D320206065032084F83500E4
:1041B000002184F8341070BD80206065012000214A
:1041C00084F8341070BD00BFE06D3F2101FA00F0AB
:1041D000B060012084F835000020002184F83410FC
:1041E00070BD000090F83510022909D1052180F832
:1041F00035100068016821F001010160002070475E
:104200008021416501207047B0B5002840D090F86A
:104210003510022904BF0220B0BD02684AF6AB2166
:1042200002F0F803D2F800C0A3F11005CAF6AA21E3
:10423000A5FB011E2CF0010111600021212311605A
:1042400051609160D1601161536145F6B0434FEA0E
:104250001E1CC0F6010313F80C3040F2FF34A243D9
:104260005F2D4FF03F0588BF0432C0E9162305FAE1
:1042700003F3C0E90F11C0E91111C0E913119360F4
:10428000416580F8351080F834100846B0BD00BF95
:104290000120B0BD90F8350070470000F0B581B046
:1042A0000446002000904CF24440C2F20100026833
:1042B000D4E9166048F2B51337680821C1F64E33C9
:1042C00081403942A2FB03250CD0226813685B07AA
:1042D00008D5136823F004031360B160616D41F0E9
:1042E0000101616501218140394208D0226852698B
:1042F000120604D5B160616D41F0020161650421CF
:104300008140394208D022681268920704D5B16012
:10431000616D41F00401616510218140394217D07F
:1043200020680268120713D5B16002680168520361
:1043300008D4C90508D4016821F008010160216C86
:1043400021B905E008033FD4216C09B12046884714
:10435000E16D202000FA01F23A4241D02068036862
:10436000DB063DD5B26094F835300268052B1BD1D1
:1043700022F016020260426922F080024261226C41
:104380000AB9A26C1AB1026822F0080202603F204A
:104390008840B060012084F83500216D002000299C
:1043A00084F8340052D157E00168520310D4C90593
:1043B00012D4016821F010010160012084F8350059
:1043C000002084F8340007E0A16C0029BED1BFE7CB
:1043D000080301D4616C00E0E16B09B12046884715
:1043E000606DC8B3606DC0072ED0052084F835001D
:1043F0002068A90A026822F001020260009A0132D4
:104400008A4200921AD80268D20717D0009A013265
:104410008A42009212D80268D2070FD0009A013265
:104420008A4200920AD80268D20707D0009A013265
:104430008A42009202D80268D207DFD1012084F8B4
:104440003500002084F83400E16C29B1204601B029
:10445000BDE8F040084700BF01B0F0BD2DE9F041D4
:10446000044600F003FBECB10546022084F8350059
:104470000020216884F83400086820F001000860FA
:1044800021680868C00711D000F0F0FA401B052829
:10449000F6D9032520230320636584F83550BDE851
:1044A000F08100BF0120BDE8F08100BF086848F23C
:1044B0003F02CFF21002D4E9013500EA020C04F108
:1044C0000C0898E8C10143EA0C032B431843D4E9D4
:1044D000072E304338431043626A40EA0E00042A34
:1044E00040EA08031CD1206BD4E90A2E40EA0E00F2
:1044F000184308604869BEF1000F20F0030040EA4D
:10450000020040F0040C11D0B8F5005F36D0B8F1CD
:10451000000F45D1022A46D0012A3BD032B942E0F1
:104520000B60486920F0070040EA020C01F0F80037
:104530004AF6AB221038CAF6AA22A0FB02231A09B7
:1045400045F6B043C0F601039A5C40F2FF335F28A2
:104550004FF03F00C1F814C021EA030100FA02F055
:1045600088BF0431C4E916128860002301250020A9
:10457000636584F83550BDE8F08100BF032AD5D8C3
:10458000012540230120DFE802F0030E030500BFF0
:1045900082E700BFAEF1C070B0FA80F0400904E0DD
:1045A000032A04D3C2D1CEF300600028BED0012577
:1045B00040230120636584F83550BDE8F081000098
:1045C00070B590F834C0BCF1010F46D04FF0010C2B
:1045D00080F834C0D0F858E090F835C0BCF1010F35
:1045E00038D14FF0020C80F835C04FF0000CC0F805
:1045F00054C0D0F800C08468056CC06DDCF8006061
:10460000402C26F48026CCF80060CCF804300B4611
:1046100004BF13460A463F2101FA00F0CCF80830E7
:10462000CCF80C20CEF80800DCF8000040F01600B2
:10463000CCF800002DB1DCF8000040F00800CCF808
:104640000000DCF8000040F00100CCF80000002081
:1046500070BD00BF002180F83410022070BD000042
:10466000B0B5044600F002FA05464CF20800C2F26A
:1046700001000078611C18BF044400BF00F0F6F987
:10468000401BA042FAD3B0BD70470000B0B543F65E
:104690000C44C4F2020420684EF2741510F0F20FBC
:1046A000C2F201052ED02878012807D1E8684FF022
:1046B000FF31E9602168C90608D40DE02878022896
:1046C00014BF686928692168C90605D5E96941F000
:1046D0001001E96110212160216889062AD421682E
:1046E000490630D42168090636D42168890705D5E2
:1046F000E96941F02001E9610221216000F062F8DE
:10470000002028702068C0074BD001202060287846
:1047100001282BD16868013868606868B0B3E86820
:10472000FFF7B2FFE8680130E860E868297AFEF731
:104730009DF836E0E96941F00801E9612021216036
:1047400021684906CED5E96941F00401E9614021BB
:10475000216021680906C8D5E96941F00201E961D3
:104760008021216021688907C2D4C7E7284610F854
:10477000141B022903D1FEF79DF805F11000006813
:10478000FFF782FF002028700BE000BF4FF0FF30E2
:10479000E86000202870FEF78DF84FF0FF30FFF73B
:1047A00073FF2878002818BFB0BD606820F0FF00B4
:1047B0006060606820F080706060606820F0007069
:1047C0006060B0BD70470000B0B541F26051C2F208
:1047D00000010978002941D040F6541EC2F2000EB3
:1047E0000EF16A034D42032206E000BF0432A9180D
:1047F000032903F1A00331D033F8504C844204D193
:1048000053F84ACCBCF1000F2AD1AC18022C25D0A9
:1048100033F8281C814204D153F822CCBCF1000F9C
:1048200026D1012C1AD01988814204D1D3F806C0B0
:10483000BCF1000F24D1002C08BFB0BD198D8142FE
:10484000D4D1D3F82EC0BCF1000FCFD002EB820040
:104850000EEBC000BDE8B040604700BFB0BD00BF78
:10486000033A02EB82000EEBC000BDE8B0406047A7
:10487000023A02EB82000EEBC000BDE8B040604798
:10488000013A02EB82000EEBC000BDE8B040604789
:1048900043F61441C4F201010A68024214BF0860E1
:1048A0007047FFF791BF00002DE9F04F82B000F193
:1048B0003E4241F6004502F1FF77C4F202050822AC
:1048C00043F6004E4FEAB726A84208BF0722C4F2BB
:1048D000010E072E38BF4FEAB72201250026002718
:1048E0004FF00008009208E008F101080437B8F121
:1048F000100F06F1020600F0A7800C6805FA08F90F
:1049000014EA090FF0D0D1F804B003220BF0030C25
:10491000ACF10104B240012C6FEA020A10D882689F
:10492000CC6802EA0A02B440224382604268CBF3B8
:10493000001422EA090204FA08F42243426005E066
:10494000BCF1030F02D14FF0030C20E0C2688C6869
:1049500002EA0A02B4402243BCF1020FC26016D13F
:104960006FF0030202EA58020244D2F820C007F0B6
:104970001C050F230C69AB402CEA030304FA05F570
:104980002B431362D1F804B001250BF0030C02682D
:104990000CFA06F302EA0A021A431BF4403F0260D3
:1049A000A2D0002243F644030192C4F202031A6823
:1049B0004FF6084C42F480421A601A68CFF6FF7C2A
:1049C00002F480420192019A28F00302724452F8E4
:1049D0000C3007F00C050F24AC40A343009C04FAF4
:1049E00005F52B4342F80C30DEF808204B6842EA0C
:1049F000090543F60C4CDC0258BF22EA0905CEF843
:104A00000850C4F2010CDCF800209C0242EA0905BF
:104A100058BF22EA0905CCF80050DEF804209C03B8
:104A200042EA090558BF22EA0905CEF80450DEF82B
:104A30000020DB0342EA090558BF22EA0905CEF847
:104A40000050012550E700BF02B0BDE8F08F000024
:104A5000426902EA0103914341EA034181617047DF
:104A6000002A08BF090481617047000040F27440C9
:104A7000C2F20100006870477047000070470000F4
:104A8000F0B581B00446006800254769426894F893
:104A90003E1002F48076FA0505D5002E1EBF6FF495
:104AA000807242610125BA0505D5002E1EBF023570
:104AB0006FF4007242617A0516D5AEB1628D94F83A
:104AC0003D30D4F830C0202908BF002A24D06FF42C
:104AD0008062402905F10405426101D0102903D10B
:104AE000016841F400710160380507D536B12068CE
:104AF00008356FF40061416101E000BF55B1206CE1
:104B000040EA05012046216401B0BDE8F04004F010
:104B100055BC00BF01B0F0BD03F0F701212909D059
:104B2000282B08BFBCF1210F04D06FF480614161D4
:104B30000435D9E794F83D10E26AB2F1080318BFD2
:104B40000123203A18BF0122134208BF282921D08F
:104B5000212939D10021CFF6FF71E16221212163A2
:104B6000202184F83D10002184F83E10426822F490
:104B7000E06242606FF480624261026822F4806207
:104B800002604269120648BF0161204600F0BCFC89
:104B9000AAE700BF0021CFF6FF71E162416821F46E
:104BA000E06141606FF480614161016821F48061DE
:104BB000016000202021206384F83D1084F83E002D
:104BC000204600F0C9FB8FE76FF4806141618BE7FD
:104BD000F0B581B0076804467868E26A94F83E3020
:104BE00094F83DE0402B01D0102B27D1BE697D69A0
:104BF000E90751D1B2F12A4F00F0A082B2F52A0F95
:104C000000F09C8200F400724FF0010C29078CEA3E
:104C1000522C45D5002A43D0606B616CC9B2396112
:104C200018B1C06B002840F02481A06B002800F070
:104C30008582C06B002840F01C817FE2216C00F46B
:104C4000007300290CBFBE6900267D69A90753D5F2
:104C5000002B51D0206C002818BFBE6994F83D008D
:104C600000F02800282840F093807868002320F482
:104C700080607860012020EA960130064FF018002D
:104C800058BF0C20225A204684F83C3001B0BDE8C1
:104C9000F040FFF7F3BE00BF810557D44FF0010C81
:104CA000A90759D5BCF1000F56D194F83E30E06AFF
:104CB000226B94F83D10222940F0E280216D0029FA
:104CC00008BF402B00F0DC80216D002940F03281CC
:104CD0002169B1F5404F40F02D81002000907869A6
:104CE0000090B86900900098386840F4807038608F
:104CF000206D01306BE200BFE90655D5002B53D083
:104D000094F83D50786820F4E060786000200090CE
:104D100078690090386840F0010038600098386881
:104D200020F4806038607868000540F1408105F02B
:104D3000F7002646222840F0198156F8380F0168FE
:104D4000496826F80E1C36F80E1C17E1E06AB0F52B
:104D50002A0F5FD1012062E07968720701F40061D7
:104D600000F19880002940F0E981690605F004010E
:104D700040F1AC8110F4806000F0A881002940F07F
:104D8000A581204601B0BDE8F04004F059BC00BF49
:104D90000020009079690091B9690091009984F828
:104DA0003C0001B0F0BD00BF0EF0F70100F48062DE
:104DB000212905F0040040F08380290640F1488154
:104DC000002A00F04581002840F0428194F83D001F
:104DD000618D002900F0B281616A11F8012B3A61FE
:104DE0006162618D01396185618D002908BF2928C3
:104DF00040F0A4817868282120F480607860212028
:104E00002063204684F83D1001B0BDE8F04000F07A
:104E10007BBB00BFE06AB0F12A4F01D10820E062FD
:104E200094F83E0040280BD1206D616C002801F001
:104E3000FE0018BF40F00100386101B0F0BD00BFB6
:104E40002069B0F5804F65D194F83D00616C212850
:104E500001F0FE0118BF01313961606B08B1C06B10
:104E600038B9A06B002800F06981C06B002800F001
:104E70006581786840F40060786001B0F0BD00BFE3
:104E80000020009078690090B8690090009801B007
:104E9000F0BD00BF002940F05181290605F0040152
:104EA00040F1208110F4806000F01C81002940F066
:104EB0001981204601B0BDE8F04004F0ADBC00BF50
:104EC000690640F1D780002A00F0D480002840F025
:104ED000D18094F83D00618D002900F02F8139695F
:104EE000626A1170616A01316162618D01396185A7
:104EF000618D002908BF2A2840F020812068416880
:104F000021F480614160222028212063204684F81A
:104F10003D10D6E0206D002800F0BE80206D0128F5
:104F200040F00C81606C062101EAD010F13038614C
:104F300001B0F0BD618D61B1618D012940F0E28069
:104F4000202818BF082840F0FB80386820F48060D3
:104F500038600020009078690090B869009000984F
:104F6000386840F40070386030E100BF56F8340F04
:104F70000168496826F80A1C36F80A1C19B1216C28
:104F800041F004012164796821F400617960FFF740
:104F900081F901280BD0306849F29921C0F600014F
:104FA0000165FFF71FF910B13068016D8847608D0A
:104FB00060B120684169490730D4416949063AD453
:104FC000608D18B1206C40F004002064206C28B182
:104FD000204601B0BDE8F04004F0F0B92A2D07D119
:104FE00000202063282084F83D00204600F08AFA43
:104FF00094F83D00282857D10020CFF6FF70E062DA
:1050000000212020216384F83D00204684F83E10D2
:1050100001B0BDE8F04000F09FB900BF0069616ACF
:105020000870616A206801316162618D01396185B2
:1050300041694906C4D50069616A0870606A013037
:105040006062608D01386085608D0028BAD1BDE74F
:10505000002818BF002B71D0608D00286ED0606AC8
:1050600010F8011B39616062608D0138608501B004
:10507000F0BD00BF002818BF002B5FD0608D002856
:105080005CD03869616A0870606A01306062608D66
:105090000138608552E000BF606C062101EAD01043
:1050A000F030386101B0F0BD206B222818BF222DEE
:1050B00044D100212020216384F83D00204684F85B
:1050C0003E1001B0BDE8F04000F01CBAB1FA81F02A
:1050D000400950EA0C0031D1204601B0BDE8F04053
:1050E00004F032BAB1FA81F0400950EA0C0025D13F
:1050F000BEF1210F1AD1204601B0BDE8F04004F006
:1051000049BB00BF618D02290CD110283CD8012178
:1051100014228140C0F20102114235D04FF4806266
:1051200038E000BF396841F4806135E0402B05D19B
:10513000204601B0BDE8F04004F0C8BB01B0F0BDAE
:1051400010F5803F0CD1386820F4806038607868B2
:1051500000057FF5FEAE386820F4806038602EE0F0
:10516000122A02D101287FF4F0AE1028F3D80121D1
:1051700001FA00F01421C0F201010842EBD03868B6
:1051800040F4806038601AE039684FF4006221F41E
:1051900080613960396811433960796809050ED535
:1051A000421E1F2A16D80121914048F28102C8F2FE
:1051B000000211420ED0786840F4805078600020E0
:1051C000009078690090B8690090009800202065F0
:1051D00001B0F0BD10F5803FEDD0F0E77047000062
:1051E00070B5B8B3044690F83D0028B9002084F8A3
:1051F0003C00204600F002F9242084F83D0020689D
:10520000016821F001010160016841F40041016081
:10521000016821F40041016001F03CFC48F280414A
:10522000C0F21E0140F60013D4F804E088424FF0AB
:105230000001C0F23D0348F2A16C4FF0000238BFFC
:1052400001219842C0F2010C38BF0122E64538BF67
:105250000A460AB1012070BD4DF68361C4F21B31CC
:10526000A0FB01122168950C4B684FF4967623F051
:105270003F0343EA9243754344F6D3564B60C1F271
:1052800062060B6AA5FB0656B50923F03F03E64507
:1052900038BF950C6A1C1A430A62CA6948F2A066B4
:1052A0004CF6FF73C0F20106B64522EA03020BD8A2
:1052B00001384FEA4E03B0FBF3F001306FF31F30BB
:1052C000042898BF04201EE0A368013863B11923A5
:1052D0000EFB03F3B0FBF3F001306FF31F3078B136
:1052E00000F5804008E000BF0EEB4E03B0FBF3F08A
:1052F00001306FF31F3028B100F5004003E000BF1C
:10530000012000E001201043C8610868D4E90723A8
:1053100020F0C000104318430860886848F2FF324C
:1053200004F10C0690434CCE18431043A5698860E5
:10533000C86820F0FF0030432843C860086840F088
:105340000100086000202021206484F83D102063C3
:1053500084F83E0070BD00007047000080B540F248
:105360007C51C2F200010A78E2B10B1D04E000BFDB
:10537000013A03F1040315D0D3F800C0DCF80010A3
:105380008142F5D1D0F844E09CF804108E45EFD16D
:10539000DCF81020002A08BF80BD6046BDE88040D0
:1053A000104700BF80BD00007047000080B540F28C
:1053B0007C51C2F200010A78E2B10B1D04E000BF8B
:1053C000013A03F1040315D0D3F800C0DCF8001053
:1053D0008142F5D1D0F844E09CF804108E45EFD11D
:1053E000DCF81020002A08BF80BD6046BDE8804080
:1053F000104700BF80BD0000704700002DE9F04756
:1054000086B00446016845F60000C4F200008142FF
:1054100002D006B0BDE8F087002643F630050196BD
:10542000C4F20205296846F2400841F020012960D3
:105430002968122201F020010191019903210191B3
:1054400004910421059100F5DE3001A9C4F202089F
:10545000CDE90226FFF728FA009628694FF0606A26
:1054600040F480002861286940F6C05500F48000AF
:1054700000900098C2F200054FF480694FF40037A5
:105480002846C5E9008AC5E90266C5E90496C5E96A
:105490000666C5E90876FEF7E1FF002818BFFDF7AC
:1054A000E1F9A563AC634DF6BC6508F17800C2F282
:1054B00001054021C5E9000A05F1080080E8420223
:1054C0002846C5E90566C5E907676E62FEF7C6FFAF
:1054D000002818BFFDF7C6F92120052100226563C9
:1054E000AC6300F0DBF8212000F0C4F82220052195
:1054F000002200F0D3F8222000F0BCF806B0BDE88E
:10550000F087000070470000704700004CF2080070
:1055100040F27441C2F20100C2F2010100780A684F
:10552000104408607047000080B543F60040C4F2A4
:105530000200016841F400710160016841F480617A
:105540000160016841F480710160032000F0D2F82D
:105550000F2000F005F800F061F8002080BD000089
:1055600070B586B0002543F640010195C4F20201F2
:105570000A68044642F480720A60096801A801F4CE
:10558000807101910199694601F05EFA049E002E36
:1055900018BF012601F07EFA4DF68361B040C4F2D7
:1055A0001B31A0FB01014FF0FF3000EB914141F2B4
:1055B000884042F20002C2F20000C4F2000240F24F
:1055C000E733C0E90021C0E902530561856102F0BB
:1055D0000DF9054610B1284606B070BD41F288406D
:1055E000C2F2000002F0D8F905460028F3D12D20C0
:1055F00000F040F80F2C0DD82D2021460022002568
:1056000000F04CF84CF20C00C2F201000460284695
:1056100006B070BD0125284606B070BD80B582B0C9
:10562000002043F640010190C4F202014A6842F4AE
:1056300080424A604A6802F480420192019A0090D6
:105640000868002240F08050086008680F2100F0D0
:105650008050009000986FF0010000F01FF80420C7
:105660000621002200F01AF8042002B0BDE88040B4
:10567000AFF30080002848BF7047C1B200F01F00A0
:10568000012202FA00F04EF20012CEF2000242EACB
:10569000D10121F0030108607047000010B54EF6FB
:1056A0000C5CCEF2000CDCF80030C3F3022E8EF05E
:1056B0000704042C28BF0424BEF103034FF0FF3E6F
:1056C0000EFA04F438BF0023A14399400EFA03F305
:1056D0009A43114300F00F0200F160430901043ABC
:1056E00003F564436244002848BF02F10C031970BB
:1056F00010BD00004EF60C51CEF200010A684FF6C4
:10570000FF031A4060F30A2242F0806040F0FD700F
:1057100008607047704700000268002051627047BF
:105720002DE9F043D0F80090D9F82400A1B1D9F8C0
:105730002830B1F1010800EB13435DD0A8F101005E
:10574000C0B2032808F0030C0ED24FF0010E002760
:10575000BCF1000F33D14FE040EA0240C9F8280005
:105760000020BDE8F08300BF08F0FC0E09F1F4044E
:10577000002009F5827500BF54F8107F064603EB40
:10578000174046F00103DBB246F0020755F823301C
:10579000FFB255F8277000EB134000EB174346F0BB
:1057A0000300C0B255F82010301DC7B2774503EB97
:1057B0001143E1D106F1050EBCF1000F1CD009EB3D
:1057C0008700D0F80401BCF1010F03EB104313D0A4
:1057D0005FFA8EF009EB8000D0F80401BCF1020FF3
:1057E00003EB104308D00EF10100C0B209EB8000BA
:1057F000D0F8040103EB104343EA024009EB8801AF
:10580000C1F804010020BDE8F0830000D0F8E004F6
:1058100009F0DABE01EBC102D0F8E03400EB8200FF
:10582000026A184609F038BE01EBC102D0F8E03434
:1058300000EB8200D0F86022184609F089BE000013
:10584000D0F8E00409F0C2BE10B5044648B2B0F189
:10585000FF3F01F00F0000EBC00104EB810205DD0A
:1058600002F51571002382F8553203E0012302F19D
:105870001401537594F894240870012A04BF02207F
:1058800010BD2068012284F894240AF07BFC0020DB
:1058900084F8940410BD0000B0B50279044601F00C
:1058A0000F00904284BF0120B0BD49B2B1F1FF3F6B
:1058B0000ADD00EBC00104EB810202F51571002343
:1058C00082F8553208E000BF00EBC00104EB810212
:1058D000012302F11401537594F894240025012A40
:1058E0008D70087004BF0220B0BD2068012284F8CA
:1058F00094240AF033FF284684F89454B0BD000085
:1059000001F00F0101EBC10100EB8100D0F868024A
:105910007047000070B5064648B2B0F1FF3F01F095
:105920000F0000EBC00107DD06EB810404F51571E3
:10593000002584F8555206E006EB810C01240CF199
:1059400014018CF815404D786FF3DF22002D08709C
:105950008A600B7118BF4883022B04BF0020487176
:1059600096F89404012804BF022070BD306801221B
:1059700086F894240AF0AAFA002086F8940470BDF0
:1059800010B501F00F0404EBC40100EB810E4FF0E1
:10599000000CCEF868C28EF855C290F806C0CEF85A
:1059A0006022CEF86432BCF1010F8EF8544208BF79
:1059B000CEF8702200680EF5157162460AF018FFE5
:1059C000002010BDB0B50446007901F00F058542F6
:1059D00084BF0120B0BD48B2B0F1FF3F0ADD01EB4A
:1059E000C10004EB800000F51571002280F85522FB
:1059F00008E000BF05EBC50004EB8000012200F1C8
:105A00001401427594F89404012201288A700D70E3
:105A100004BF0220B0BD206884F894240AF0C8FEB8
:105A200025B1002084F89404B0BD00BF2068A1799E
:105A300004F29C420AF064FE002084F89404B0BD95
:105A400080B501F00F0C0CEBCC0100EB810E714620
:105A500001F814CF4FF0000CC1F814C04FF0010C46
:105A600081F801C090F806C0CA60BCF1010F0B615B
:105A700008BFCEF83020006862460AF0B9FE002068
:105A800080BD00002DE9F04F89B005680646284624
:105A90000BF0C0F810B109B0BDE8F08F30680BF022
:105AA000E7F80028F7D0D5F80808C0F30D213068D2
:105AB000C6F8D4140BF0DCF801463068890703D52A
:105AC000416901F00201416105F500670BF0D0F872
:105AD00001463068C906089604953CD5816921F0D5
